{
  "contractName": "Doneth",
  "abi": [
    {
      "constant": true,
      "inputs": [],
      "name": "genesisBlockNumber",
      "outputs": [
        {
          "name": "",
          "type": "uint256"
        }
      ],
      "payable": false,
      "stateMutability": "view",
      "type": "function"
    },
    {
      "constant": true,
      "inputs": [],
      "name": "name",
      "outputs": [
        {
          "name": "",
          "type": "string"
        }
      ],
      "payable": false,
      "stateMutability": "view",
      "type": "function"
    },
    {
      "constant": true,
      "inputs": [
        {
          "name": "",
          "type": "address"
        }
      ],
      "name": "members",
      "outputs": [
        {
          "name": "exists",
          "type": "bool"
        },
        {
          "name": "admin",
          "type": "bool"
        },
        {
          "name": "shares",
          "type": "uint256"
        },
        {
          "name": "withdrawn",
          "type": "uint256"
        },
        {
          "name": "memberName",
          "type": "string"
        }
      ],
      "payable": false,
      "stateMutability": "view",
      "type": "function"
    },
    {
      "constant": false,
      "inputs": [
        {
          "name": "who",
          "type": "address"
        },
        {
          "name": "newName",
          "type": "string"
        }
      ],
      "name": "changeMemberName",
      "outputs": [],
      "payable": false,
      "stateMutability": "nonpayable",
      "type": "function"
    },
    {
      "constant": true,
      "inputs": [],
      "name": "getBalance",
      "outputs": [
        {
          "name": "balance",
          "type": "uint256"
        }
      ],
      "payable": false,
      "stateMutability": "view",
      "type": "function"
    },
    {
      "constant": false,
      "inputs": [
        {
          "name": "newAllocation",
          "type": "uint256"
        }
      ],
      "name": "changeSharedExpenseAllocation",
      "outputs": [],
      "payable": false,
      "stateMutability": "nonpayable",
      "type": "function"
    },
    {
      "constant": false,
      "inputs": [
        {
          "name": "amount",
          "type": "uint256"
        },
        {
          "name": "to",
          "type": "address"
        }
      ],
      "name": "withdrawSharedExpense",
      "outputs": [],
      "payable": false,
      "stateMutability": "nonpayable",
      "type": "function"
    },
    {
      "constant": false,
      "inputs": [
        {
          "name": "amount",
          "type": "uint256"
        }
      ],
      "name": "withdraw",
      "outputs": [],
      "payable": false,
      "stateMutability": "nonpayable",
      "type": "function"
    },
    {
      "constant": true,
      "inputs": [
        {
          "name": "who",
          "type": "address"
        },
        {
          "name": "token",
          "type": "address"
        }
      ],
      "name": "calculateTotalWithdrawableTokenAmount",
      "outputs": [
        {
          "name": "",
          "type": "uint256"
        }
      ],
      "payable": false,
      "stateMutability": "view",
      "type": "function"
    },
    {
      "constant": true,
      "inputs": [
        {
          "name": "",
          "type": "uint256"
        }
      ],
      "name": "tokenKeys",
      "outputs": [
        {
          "name": "",
          "type": "address"
        }
      ],
      "payable": false,
      "stateMutability": "view",
      "type": "function"
    },
    {
      "constant": true,
      "inputs": [
        {
          "name": "who",
          "type": "address"
        }
      ],
      "name": "calculateTotalWithdrawableAmount",
      "outputs": [
        {
          "name": "",
          "type": "uint256"
        }
      ],
      "payable": false,
      "stateMutability": "view",
      "type": "function"
    },
    {
      "constant": true,
      "inputs": [],
      "name": "totalShares",
      "outputs": [
        {
          "name": "",
          "type": "uint256"
        }
      ],
      "payable": false,
      "stateMutability": "view",
      "type": "function"
    },
    {
      "constant": true,
      "inputs": [],
      "name": "calculateTotalExpenseWithdrawableAmount",
      "outputs": [
        {
          "name": "",
          "type": "uint256"
        }
      ],
      "payable": false,
      "stateMutability": "view",
      "type": "function"
    },
    {
      "constant": true,
      "inputs": [],
      "name": "totalWithdrawn",
      "outputs": [
        {
          "name": "",
          "type": "uint256"
        }
      ],
      "payable": false,
      "stateMutability": "view",
      "type": "function"
    },
    {
      "constant": false,
      "inputs": [
        {
          "name": "who",
          "type": "address"
        },
        {
          "name": "amount",
          "type": "uint256"
        }
      ],
      "name": "addShare",
      "outputs": [],
      "payable": false,
      "stateMutability": "nonpayable",
      "type": "function"
    },
    {
      "constant": false,
      "inputs": [
        {
          "name": "who",
          "type": "address"
        },
        {
          "name": "shares",
          "type": "uint256"
        },
        {
          "name": "admin",
          "type": "bool"
        },
        {
          "name": "memberName",
          "type": "string"
        }
      ],
      "name": "addMember",
      "outputs": [],
      "payable": false,
      "stateMutability": "nonpayable",
      "type": "function"
    },
    {
      "constant": true,
      "inputs": [],
      "name": "sharedExpenseWithdrawn",
      "outputs": [
        {
          "name": "",
          "type": "uint256"
        }
      ],
      "payable": false,
      "stateMutability": "view",
      "type": "function"
    },
    {
      "constant": true,
      "inputs": [],
      "name": "getContractInfo",
      "outputs": [
        {
          "name": "",
          "type": "string"
        },
        {
          "name": "",
          "type": "address"
        },
        {
          "name": "",
          "type": "uint256"
        },
        {
          "name": "",
          "type": "uint256"
        },
        {
          "name": "",
          "type": "uint256"
        }
      ],
      "payable": false,
      "stateMutability": "view",
      "type": "function"
    },
    {
      "constant": true,
      "inputs": [
        {
          "name": "a",
          "type": "uint256"
        },
        {
          "name": "b",
          "type": "uint256"
        },
        {
          "name": "c",
          "type": "uint256"
        }
      ],
      "name": "delegatePercent",
      "outputs": [
        {
          "name": "",
          "type": "uint256"
        }
      ],
      "payable": false,
      "stateMutability": "view",
      "type": "function"
    },
    {
      "constant": false,
      "inputs": [
        {
          "name": "who",
          "type": "address"
        },
        {
          "name": "newValue",
          "type": "bool"
        }
      ],
      "name": "changeAdminPrivilege",
      "outputs": [],
      "payable": false,
      "stateMutability": "nonpayable",
      "type": "function"
    },
    {
      "constant": true,
      "inputs": [
        {
          "name": "_address",
          "type": "address"
        }
      ],
      "name": "returnMember",
      "outputs": [
        {
          "name": "admin",
          "type": "bool"
        },
        {
          "name": "shares",
          "type": "uint256"
        },
        {
          "name": "withdrawn",
          "type": "uint256"
        },
        {
          "name": "memberName",
          "type": "string"
        }
      ],
      "payable": false,
      "stateMutability": "view",
      "type": "function"
    },
    {
      "constant": true,
      "inputs": [],
      "name": "owner",
      "outputs": [
        {
          "name": "",
          "type": "address"
        }
      ],
      "payable": false,
      "stateMutability": "view",
      "type": "function"
    },
    {
      "constant": false,
      "inputs": [
        {
          "name": "who",
          "type": "address"
        },
        {
          "name": "amount",
          "type": "uint256"
        }
      ],
      "name": "allocateShares",
      "outputs": [],
      "payable": false,
      "stateMutability": "nonpayable",
      "type": "function"
    },
    {
      "constant": true,
      "inputs": [],
      "name": "getMemberCount",
      "outputs": [
        {
          "name": "",
          "type": "uint256"
        }
      ],
      "payable": false,
      "stateMutability": "view",
      "type": "function"
    },
    {
      "constant": true,
      "inputs": [
        {
          "name": "token",
          "type": "address"
        }
      ],
      "name": "checkERC20Balance",
      "outputs": [
        {
          "name": "",
          "type": "uint256"
        }
      ],
      "payable": false,
      "stateMutability": "view",
      "type": "function"
    },
    {
      "constant": true,
      "inputs": [],
      "name": "sharedExpense",
      "outputs": [
        {
          "name": "",
          "type": "uint256"
        }
      ],
      "payable": false,
      "stateMutability": "view",
      "type": "function"
    },
    {
      "constant": true,
      "inputs": [],
      "name": "PRECISION",
      "outputs": [
        {
          "name": "",
          "type": "uint256"
        }
      ],
      "payable": false,
      "stateMutability": "view",
      "type": "function"
    },
    {
      "constant": false,
      "inputs": [
        {
          "name": "newName",
          "type": "string"
        }
      ],
      "name": "changeContractName",
      "outputs": [],
      "payable": false,
      "stateMutability": "nonpayable",
      "type": "function"
    },
    {
      "constant": true,
      "inputs": [
        {
          "name": "key",
          "type": "uint256"
        }
      ],
      "name": "getMemberAtKey",
      "outputs": [
        {
          "name": "",
          "type": "address"
        }
      ],
      "payable": false,
      "stateMutability": "view",
      "type": "function"
    },
    {
      "constant": false,
      "inputs": [
        {
          "name": "amount",
          "type": "uint256"
        },
        {
          "name": "token",
          "type": "address"
        }
      ],
      "name": "withdrawToken",
      "outputs": [],
      "payable": false,
      "stateMutability": "nonpayable",
      "type": "function"
    },
    {
      "constant": false,
      "inputs": [
        {
          "name": "who",
          "type": "address"
        },
        {
          "name": "amount",
          "type": "uint256"
        }
      ],
      "name": "removeShare",
      "outputs": [],
      "payable": false,
      "stateMutability": "nonpayable",
      "type": "function"
    },
    {
      "constant": true,
      "inputs": [
        {
          "name": "",
          "type": "address"
        }
      ],
      "name": "tokens",
      "outputs": [
        {
          "name": "exists",
          "type": "bool"
        },
        {
          "name": "totalWithdrawn",
          "type": "uint256"
        }
      ],
      "payable": false,
      "stateMutability": "view",
      "type": "function"
    },
    {
      "constant": false,
      "inputs": [
        {
          "name": "newOwner",
          "type": "address"
        }
      ],
      "name": "transferOwnership",
      "outputs": [],
      "payable": false,
      "stateMutability": "nonpayable",
      "type": "function"
    },
    {
      "constant": true,
      "inputs": [
        {
          "name": "",
          "type": "uint256"
        }
      ],
      "name": "memberKeys",
      "outputs": [
        {
          "name": "",
          "type": "address"
        }
      ],
      "payable": false,
      "stateMutability": "view",
      "type": "function"
    },
    {
      "constant": false,
      "inputs": [
        {
          "name": "who",
          "type": "address"
        },
        {
          "name": "shares",
          "type": "uint256"
        },
        {
          "name": "isAdmin",
          "type": "bool"
        },
        {
          "name": "name",
          "type": "string"
        }
      ],
      "name": "updateMember",
      "outputs": [],
      "payable": false,
      "stateMutability": "nonpayable",
      "type": "function"
    },
    {
      "inputs": [
        {
          "name": "_contractName",
          "type": "string"
        },
        {
          "name": "_founderName",
          "type": "string"
        }
      ],
      "payable": false,
      "stateMutability": "nonpayable",
      "type": "constructor"
    },
    {
      "payable": true,
      "stateMutability": "payable",
      "type": "fallback"
    },
    {
      "anonymous": false,
      "inputs": [
        {
          "indexed": false,
          "name": "from",
          "type": "address"
        },
        {
          "indexed": false,
          "name": "value",
          "type": "uint256"
        }
      ],
      "name": "Deposit",
      "type": "event"
    },
    {
      "anonymous": false,
      "inputs": [
        {
          "indexed": false,
          "name": "from",
          "type": "address"
        },
        {
          "indexed": false,
          "name": "value",
          "type": "uint256"
        },
        {
          "indexed": false,
          "name": "newTotalWithdrawn",
          "type": "uint256"
        }
      ],
      "name": "Withdraw",
      "type": "event"
    },
    {
      "anonymous": false,
      "inputs": [
        {
          "indexed": false,
          "name": "from",
          "type": "address"
        },
        {
          "indexed": false,
          "name": "value",
          "type": "uint256"
        },
        {
          "indexed": false,
          "name": "token",
          "type": "address"
        },
        {
          "indexed": false,
          "name": "amount",
          "type": "uint256"
        }
      ],
      "name": "TokenWithdraw",
      "type": "event"
    },
    {
      "anonymous": false,
      "inputs": [
        {
          "indexed": false,
          "name": "who",
          "type": "address"
        },
        {
          "indexed": false,
          "name": "addedShares",
          "type": "uint256"
        },
        {
          "indexed": false,
          "name": "newTotalShares",
          "type": "uint256"
        }
      ],
      "name": "AddShare",
      "type": "event"
    },
    {
      "anonymous": false,
      "inputs": [
        {
          "indexed": false,
          "name": "who",
          "type": "address"
        },
        {
          "indexed": false,
          "name": "removedShares",
          "type": "uint256"
        },
        {
          "indexed": false,
          "name": "newTotalShares",
          "type": "uint256"
        }
      ],
      "name": "RemoveShare",
      "type": "event"
    },
    {
      "anonymous": false,
      "inputs": [
        {
          "indexed": false,
          "name": "who",
          "type": "address"
        },
        {
          "indexed": false,
          "name": "oldValue",
          "type": "bool"
        },
        {
          "indexed": false,
          "name": "newValue",
          "type": "bool"
        }
      ],
      "name": "ChangePrivilege",
      "type": "event"
    },
    {
      "anonymous": false,
      "inputs": [
        {
          "indexed": false,
          "name": "oldValue",
          "type": "string"
        },
        {
          "indexed": false,
          "name": "newValue",
          "type": "string"
        }
      ],
      "name": "ChangeContractName",
      "type": "event"
    },
    {
      "anonymous": false,
      "inputs": [
        {
          "indexed": false,
          "name": "who",
          "type": "address"
        },
        {
          "indexed": false,
          "name": "oldValue",
          "type": "string"
        },
        {
          "indexed": false,
          "name": "newValue",
          "type": "string"
        }
      ],
      "name": "ChangeMemberName",
      "type": "event"
    },
    {
      "anonymous": false,
      "inputs": [
        {
          "indexed": false,
          "name": "contractBalance",
          "type": "uint256"
        },
        {
          "indexed": false,
          "name": "oldValue",
          "type": "uint256"
        },
        {
          "indexed": false,
          "name": "newValue",
          "type": "uint256"
        }
      ],
      "name": "ChangeSharedExpense",
      "type": "event"
    },
    {
      "anonymous": false,
      "inputs": [
        {
          "indexed": false,
          "name": "from",
          "type": "address"
        },
        {
          "indexed": false,
          "name": "to",
          "type": "address"
        },
        {
          "indexed": false,
          "name": "value",
          "type": "uint256"
        },
        {
          "indexed": false,
          "name": "newSharedExpenseWithdrawn",
          "type": "uint256"
        }
      ],
      "name": "WithdrawSharedExpense",
      "type": "event"
    }
  ],
  "bytecode": "0x606060405234156200001057600080fd5b60405162003efa38038062003efa83398101604052808051820191906020018051820191905050336000806101000a81548173ffffffffffffffffffffffffffffffffffffffff021916908373ffffffffffffffffffffffffffffffffffffffff1602179055506015825111156200008757600080fd5b6015815111156200009757600080fd5b8160019080519060200190620000af9291906200063b565b5043600481905550620000da3360018084620000e26401000000000262001c96176401000000009004565b5050620007f0565b620000ec620006c2565b6000809054906101000a900473ffffffffffffffffffffffffffffffffffffffff1673ffffffffffffffffffffffffffffffffffffffff163373ffffffffffffffffffffffffffffffffffffffff1614158015620001975750600760003373ffffffffffffffffffffffffffffffffffffffff1673ffffffffffffffffffffffffffffffffffffffff16815260200190815260200160002060000160019054906101000a900460ff16155b15620001a257600080fd5b600760008673ffffffffffffffffffffffffffffffffffffffff1673ffffffffffffffffffffffffffffffffffffffff16815260200190815260200160002060000160009054906101000a900460ff1615620001fd57600080fd5b6015825111156200020d57600080fd5b60018160000190151590811515815250508281602001901515908115158152505081816080018190525080600760008773ffffffffffffffffffffffffffffffffffffffff1673ffffffffffffffffffffffffffffffffffffffff16815260200190815260200160002060008201518160000160006101000a81548160ff02191690831515021790555060208201518160000160016101000a81548160ff02191690831515021790555060408201518160010155606082015181600201556080820151816003019080519060200190620002e9929190620006fe565b509050506008805480600101828162000303919062000785565b9160005260206000209001600087909190916101000a81548173ffffffffffffffffffffffffffffffffffffffff021916908373ffffffffffffffffffffffffffffffffffffffff16021790555050620003728585620003796401000000000262001a16176401000000009004565b5050505050565b6000809054906101000a900473ffffffffffffffffffffffffffffffffffffffff1673ffffffffffffffffffffffffffffffffffffffff163373ffffffffffffffffffffffffffffffffffffffff1614158015620004245750600760003373ffffffffffffffffffffffffffffffffffffffff1673ffffffffffffffffffffffffffffffffffffffff16815260200190815260200160002060000160019054906101000a900460ff16155b156200042f57600080fd5b81600760008273ffffffffffffffffffffffffffffffffffffffff1673ffffffffffffffffffffffffffffffffffffffff16815260200190815260200160002060000160009054906101000a900460ff1615156200048c57600080fd5b620004b1826002546200061c6401000000000262003471179091906401000000009004565b6002819055506200051c82600760008673ffffffffffffffffffffffffffffffffffffffff1673ffffffffffffffffffffffffffffffffffffffff168152602001908152602001600020600101546200061c6401000000000262003471179091906401000000009004565b600760008573ffffffffffffffffffffffffffffffffffffffff1673ffffffffffffffffffffffffffffffffffffffff168152602001908152602001600020600101819055507f0d0d4d1bc5a254e66ec692f9d1a4452fed4b59a3a1ba48b1a991838e5c7c4b8a8383600760008773ffffffffffffffffffffffffffffffffffffffff1673ffffffffffffffffffffffffffffffffffffffff16815260200190815260200160002060010154604051808473ffffffffffffffffffffffffffffffffffffffff1673ffffffffffffffffffffffffffffffffffffffff168152602001838152602001828152602001935050505060405180910390a1505050565b60008082840190508381101515156200063157fe5b8091505092915050565b828054600181600116156101000203166002900490600052602060002090601f016020900481019282601f106200067e57805160ff1916838001178555620006af565b82800160010185558215620006af579182015b82811115620006ae57825182559160200191906001019062000691565b5b509050620006be9190620007b4565b5090565b60a0604051908101604052806000151581526020016000151581526020016000815260200160008152602001620006f8620007dc565b81525090565b828054600181600116156101000203166002900490600052602060002090601f016020900481019282601f106200074157805160ff191683800117855562000772565b8280016001018555821562000772579182015b828111156200077157825182559160200191906001019062000754565b5b509050620007819190620007b4565b5090565b815481835581811511620007af57818360005260206000209182019101620007ae9190620007b4565b5b505050565b620007d991905b80821115620007d5576000816000905550600101620007bb565b5090565b90565b602060405190810160405280600081525090565b6136fa80620008006000396000f3006060604052600436106101b7576000357c0100000000000000000000000000000000000000000000000000000000900463ffffffff1680630356fe3a1461022457806306fdde031461024d57806308ae4b0c146102db5780630d6d1437146103ce57806312065fe01461044a5780631468fc261461047357806324e2ca92146104965780632e1a7d4d146104d85780632f0ae513146104fb578063346692b714610567578063389435e8146105ca5780633a98ef39146106175780634a914e8c146106405780634b3197131461066957806350f4f9f8146106925780635ea40983146106d45780636e2fd470146107645780637cc1f8671461078d5780637d22f4311461086357806380056b5b146108ac57806385dcbb5a146108f05780638da5cb5b146109bb5780638e2a647014610a10578063997072f714610a525780639b3bc6fb14610a7b5780639d21328f14610ac8578063aaf5eb6814610af1578063ad3cd88314610b1a578063aec8fae814610b77578063be4b177214610bda578063c06474e014610c1c578063e486033914610c5e578063f2fde38b14610cb6578063f504b08914610cef578063fac2548b14610d52575b7fe1fffcc4923d04b559f4d29a8bfc6cda04eb5b0d3c460751c2402c5c5cc9109c3334604051808373ffffffffffffffffffffffffffffffffffffffff1673ffffffffffffffffffffffffffffffffffffffff1681526020018281526020019250505060405180910390a1005b341561022f57600080fd5b610237610de2565b6040518082815260200191505060405180910390f35b341561025857600080fd5b610260610de8565b6040518080602001828103825283818151815260200191508051906020019080838360005b838110156102a0578082015181840152602081019050610285565b50505050905090810190601f1680156102cd5780820380516001836020036101000a031916815260200191505b509250505060405180910390f35b34156102e657600080fd5b610312600480803573ffffffffffffffffffffffffffffffffffffffff16906020019091905050610e86565b604051808615151515815260200185151515158152602001848152602001838152602001806020018281038252838181546001816001161561010002031660029004815260200191508054600181600116156101000203166002900480156103bb5780601f10610390576101008083540402835291602001916103bb565b820191906000526020600020905b81548152906001019060200180831161039e57829003601f168201915b5050965050505050505060405180910390f35b34156103d957600080fd5b610448600480803573ffffffffffffffffffffffffffffffffffffffff1690602001909190803590602001908201803590602001908080601f01602080910402602001604051908101604052809392919081815260200183838082843782019150505050505091905050610ed5565b005b341561045557600080fd5b61045d611223565b6040518082815260200191505060405180910390f35b341561047e57600080fd5b6104946004808035906020019091905050611242565b005b34156104a157600080fd5b6104d6600480803590602001909190803573ffffffffffffffffffffffffffffffffffffffff1690602001909190505061134e565b005b34156104e357600080fd5b6104f9600480803590602001909190505061151e565b005b341561050657600080fd5b610551600480803573ffffffffffffffffffffffffffffffffffffffff1690602001909190803573ffffffffffffffffffffffffffffffffffffffff16906020019091905050611758565b6040518082815260200191505060405180910390f35b341561057257600080fd5b6105886004808035906020019091905050611856565b604051808273ffffffffffffffffffffffffffffffffffffffff1673ffffffffffffffffffffffffffffffffffffffff16815260200191505060405180910390f35b34156105d557600080fd5b610601600480803573ffffffffffffffffffffffffffffffffffffffff16906020019091905050611895565b6040518082815260200191505060405180910390f35b341561062257600080fd5b61062a6119ec565b6040518082815260200191505060405180910390f35b341561064b57600080fd5b6106536119f2565b6040518082815260200191505060405180910390f35b341561067457600080fd5b61067c611a10565b6040518082815260200191505060405180910390f35b341561069d57600080fd5b6106d2600480803573ffffffffffffffffffffffffffffffffffffffff16906020019091908035906020019091905050611a16565b005b34156106df57600080fd5b610762600480803573ffffffffffffffffffffffffffffffffffffffff16906020019091908035906020019091908035151590602001909190803590602001908201803590602001908080601f01602080910402602001604051908101604052809392919081815260200183838082843782019150505050505091905050611c96565b005b341561076f57600080fd5b610777611f0d565b6040518082815260200191505060405180910390f35b341561079857600080fd5b6107a0611f13565b60405180806020018673ffffffffffffffffffffffffffffffffffffffff1673ffffffffffffffffffffffffffffffffffffffff168152602001858152602001848152602001838152602001828103825287818151815260200191508051906020019080838360005b83811015610824578082015181840152602081019050610809565b50505050905090810190601f1680156108515780820380516001836020036101000a031916815260200191505b50965050505050505060405180910390f35b341561086e57600080fd5b6108966004808035906020019091908035906020019091908035906020019091905050611ffb565b6040518082815260200191505060405180910390f35b34156108b757600080fd5b6108ee600480803573ffffffffffffffffffffffffffffffffffffffff16906020019091908035151590602001909190505061201b565b005b34156108fb57600080fd5b610927600480803573ffffffffffffffffffffffffffffffffffffffff169060200190919050506121f6565b604051808515151515815260200184815260200183815260200180602001828103825283818151815260200191508051906020019080838360005b8381101561097d578082015181840152602081019050610962565b50505050905090810190601f1680156109aa5780820380516001836020036101000a031916815260200191505b509550505050505060405180910390f35b34156109c657600080fd5b6109ce6123c8565b604051808273ffffffffffffffffffffffffffffffffffffffff1673ffffffffffffffffffffffffffffffffffffffff16815260200191505060405180910390f35b3415610a1b57600080fd5b610a50600480803573ffffffffffffffffffffffffffffffffffffffff169060200190919080359060200190919050506123ed565b005b3415610a5d57600080fd5b610a6561259d565b6040518082815260200191505060405180910390f35b3415610a8657600080fd5b610ab2600480803573ffffffffffffffffffffffffffffffffffffffff169060200190919050506125aa565b6040518082815260200191505060405180910390f35b3415610ad357600080fd5b610adb612734565b6040518082815260200191505060405180910390f35b3415610afc57600080fd5b610b0461273a565b6040518082815260200191505060405180910390f35b3415610b2557600080fd5b610b75600480803590602001908201803590602001908080601f0160208091040260200160405190810160405280939291908181526020018383808284378201915050505050509190505061273f565b005b3415610b8257600080fd5b610b986004808035906020019091905050612943565b604051808273ffffffffffffffffffffffffffffffffffffffff1673ffffffffffffffffffffffffffffffffffffffff16815260200191505060405180910390f35b3415610be557600080fd5b610c1a600480803590602001909190803573ffffffffffffffffffffffffffffffffffffffff16906020019091905050612987565b005b3415610c2757600080fd5b610c5c600480803573ffffffffffffffffffffffffffffffffffffffff16906020019091908035906020019091905050612df5565b005b3415610c6957600080fd5b610c95600480803573ffffffffffffffffffffffffffffffffffffffff16906020019091905050613075565b60405180831515151581526020018281526020019250505060405180910390f35b3415610cc157600080fd5b610ced600480803573ffffffffffffffffffffffffffffffffffffffff169060200190919050506130a6565b005b3415610cfa57600080fd5b610d10600480803590602001909190505061317b565b604051808273ffffffffffffffffffffffffffffffffffffffff1673ffffffffffffffffffffffffffffffffffffffff16815260200191505060405180910390f35b3415610d5d57600080fd5b610de0600480803573ffffffffffffffffffffffffffffffffffffffff16906020019091908035906020019091908035151590602001909190803590602001908201803590602001908080601f016020809104026020016040519081016040528093929190818152602001838380828437820191505050505050919050506131ba565b005b60045481565b60018054600181600116156101000203166002900480601f016020809104026020016040519081016040528092919081815260200182805460018160011615610100020316600290048015610e7e5780601f10610e5357610100808354040283529160200191610e7e565b820191906000526020600020905b815481529060010190602001808311610e6157829003601f168201915b505050505081565b60076020528060005260406000206000915090508060000160009054906101000a900460ff16908060000160019054906101000a900460ff169080600101549080600201549080600301905085565b81600760008273ffffffffffffffffffffffffffffffffffffffff1673ffffffffffffffffffffffffffffffffffffffff16815260200190815260200160002060000160009054906101000a900460ff161515610f3157600080fd5b8273ffffffffffffffffffffffffffffffffffffffff163373ffffffffffffffffffffffffffffffffffffffff1614158015610fba57506000809054906101000a900473ffffffffffffffffffffffffffffffffffffffff1673ffffffffffffffffffffffffffffffffffffffff163373ffffffffffffffffffffffffffffffffffffffff1614155b80156110135750600760003373ffffffffffffffffffffffffffffffffffffffff1673ffffffffffffffffffffffffffffffffffffffff16815260200190815260200160002060000160019054906101000a900460ff16155b1561101d57600080fd5b60158251111561102c57600080fd5b7f154ad3f744d3641de12f5e012773b0126c47d1ffda727e5a61a2e6db8bb2cb5583600760008673ffffffffffffffffffffffffffffffffffffffff1673ffffffffffffffffffffffffffffffffffffffff16815260200190815260200160002060030184604051808473ffffffffffffffffffffffffffffffffffffffff1673ffffffffffffffffffffffffffffffffffffffff16815260200180602001806020018381038352858181546001816001161561010002031660029004815260200191508054600181600116156101000203166002900480156111505780601f1061112557610100808354040283529160200191611150565b820191906000526020600020905b81548152906001019060200180831161113357829003601f168201915b5050838103825284818151815260200191508051906020019080838360005b8381101561118a57808201518184015260208101905061116f565b50505050905090810190601f1680156111b75780820380516001836020036101000a031916815260200191505b509550505050505060405180910390a181600760008573ffffffffffffffffffffffffffffffffffffffff1673ffffffffffffffffffffffffffffffffffffffff168152602001908152602001600020600301908051906020019061121d92919061351b565b50505050565b60003073ffffffffffffffffffffffffffffffffffffffff1631905090565b6000809054906101000a900473ffffffffffffffffffffffffffffffffffffffff1673ffffffffffffffffffffffffffffffffffffffff163373ffffffffffffffffffffffffffffffffffffffff1614151561129d57600080fd5b6006548110156112ac57600080fd5b3073ffffffffffffffffffffffffffffffffffffffff16316112d96006548361345890919063ffffffff16565b11156112e457600080fd5b7f5b3ea9617f529540e1c3e0beb0e01c060418c2d1fe48d369afe3d47beaa037cf3073ffffffffffffffffffffffffffffffffffffffff16316005548360405180848152602001838152602001828152602001935050505060405180910390a18060058190555050565b6000809054906101000a900473ffffffffffffffffffffffffffffffffffffffff1673ffffffffffffffffffffffffffffffffffffffff163373ffffffffffffffffffffffffffffffffffffffff16141580156113f85750600760003373ffffffffffffffffffffffffffffffffffffffff1673ffffffffffffffffffffffffffffffffffffffff16815260200190815260200160002060000160019054906101000a900460ff16155b1561140257600080fd5b61140a6119f2565b82111561141657600080fd5b61142b8260065461347190919063ffffffff16565b6006819055508073ffffffffffffffffffffffffffffffffffffffff166108fc839081150290604051600060405180830381858888f19350505050151561147157600080fd5b7f223162e752821eb7bd44782f73723defb6e3a087a9afc4d3d4af13783f7b6aca338284600654604051808573ffffffffffffffffffffffffffffffffffffffff1673ffffffffffffffffffffffffffffffffffffffff1681526020018473ffffffffffffffffffffffffffffffffffffffff1673ffffffffffffffffffffffffffffffffffffffff16815260200183815260200182815260200194505050505060405180910390a15050565b600033600760008273ffffffffffffffffffffffffffffffffffffffff1673ffffffffffffffffffffffffffffffffffffffff16815260200190815260200160002060000160009054906101000a900460ff16151561157c57600080fd5b61158533611895565b91506115dc600760003373ffffffffffffffffffffffffffffffffffffffff1673ffffffffffffffffffffffffffffffffffffffff168152602001908152602001600020600201548361345890919063ffffffff16565b8311156115e857600080fd5b61163d83600760003373ffffffffffffffffffffffffffffffffffffffff1673ffffffffffffffffffffffffffffffffffffffff1681526020019081526020016000206002015461347190919063ffffffff16565b600760003373ffffffffffffffffffffffffffffffffffffffff1673ffffffffffffffffffffffffffffffffffffffff168152602001908152602001600020600201819055506116988360035461347190919063ffffffff16565b6003819055503373ffffffffffffffffffffffffffffffffffffffff166108fc849081150290604051600060405180830381858888f1935050505015156116de57600080fd5b7ff279e6a1f5e320cca91135676d9cb6e44ca8a08c0b88342bcdb1144f6511b5683384600354604051808473ffffffffffffffffffffffffffffffffffffffff1673ffffffffffffffffffffffffffffffffffffffff168152602001838152602001828152602001935050505060405180910390a1505050565b60008060008060006117bd600960008873ffffffffffffffffffffffffffffffffffffffff1673ffffffffffffffffffffffffffffffffffffffff168152602001908152602001600020600101546117af886125aa565b61347190919063ffffffff16565b93506117d760025460128661348f9092919063ffffffff16565b925061182e600760008973ffffffffffffffffffffffffffffffffffffffff1673ffffffffffffffffffffffffffffffffffffffff16815260200190815260200160002060010154846134cd90919063ffffffff16565b91506118476012600a0a8361350090919063ffffffff16565b90508094505050505092915050565b600a8181548110151561186557fe5b90600052602060002090016000915054906101000a900473ffffffffffffffffffffffffffffffffffffffff1681565b600080600080600085600760008273ffffffffffffffffffffffffffffffffffffffff1673ffffffffffffffffffffffffffffffffffffffff16815260200190815260200160002060000160009054906101000a900460ff1615156118f957600080fd5b6119256003543073ffffffffffffffffffffffffffffffffffffffff163161347190919063ffffffff16565b945061193c6005548661345890919063ffffffff16565b94506119536006548661347190919063ffffffff16565b945061196d60025460128761348f9092919063ffffffff16565b93506119c4600760008973ffffffffffffffffffffffffffffffffffffffff1673ffffffffffffffffffffffffffffffffffffffff16815260200190815260200160002060010154856134cd90919063ffffffff16565b92506119dd6012600a0a8461350090919063ffffffff16565b91508195505050505050919050565b60025481565b6000611a0b60065460055461345890919063ffffffff16565b905090565b60035481565b6000809054906101000a900473ffffffffffffffffffffffffffffffffffffffff1673ffffffffffffffffffffffffffffffffffffffff163373ffffffffffffffffffffffffffffffffffffffff1614158015611ac05750600760003373ffffffffffffffffffffffffffffffffffffffff1673ffffffffffffffffffffffffffffffffffffffff16815260200190815260200160002060000160019054906101000a900460ff16155b15611aca57600080fd5b81600760008273ffffffffffffffffffffffffffffffffffffffff1673ffffffffffffffffffffffffffffffffffffffff16815260200190815260200160002060000160009054906101000a900460ff161515611b2657600080fd5b611b3b8260025461347190919063ffffffff16565b600281905550611b9682600760008673ffffffffffffffffffffffffffffffffffffffff1673ffffffffffffffffffffffffffffffffffffffff1681526020019081526020016000206001015461347190919063ffffffff16565b600760008573ffffffffffffffffffffffffffffffffffffffff1673ffffffffffffffffffffffffffffffffffffffff168152602001908152602001600020600101819055507f0d0d4d1bc5a254e66ec692f9d1a4452fed4b59a3a1ba48b1a991838e5c7c4b8a8383600760008773ffffffffffffffffffffffffffffffffffffffff1673ffffffffffffffffffffffffffffffffffffffff16815260200190815260200160002060010154604051808473ffffffffffffffffffffffffffffffffffffffff1673ffffffffffffffffffffffffffffffffffffffff168152602001838152602001828152602001935050505060405180910390a1505050565b611c9e61359b565b6000809054906101000a900473ffffffffffffffffffffffffffffffffffffffff1673ffffffffffffffffffffffffffffffffffffffff163373ffffffffffffffffffffffffffffffffffffffff1614158015611d485750600760003373ffffffffffffffffffffffffffffffffffffffff1673ffffffffffffffffffffffffffffffffffffffff16815260200190815260200160002060000160019054906101000a900460ff16155b15611d5257600080fd5b600760008673ffffffffffffffffffffffffffffffffffffffff1673ffffffffffffffffffffffffffffffffffffffff16815260200190815260200160002060000160009054906101000a900460ff1615611dac57600080fd5b601582511115611dbb57600080fd5b60018160000190151590811515815250508281602001901515908115158152505081816080018190525080600760008773ffffffffffffffffffffffffffffffffffffffff1673ffffffffffffffffffffffffffffffffffffffff16815260200190815260200160002060008201518160000160006101000a81548160ff02191690831515021790555060208201518160000160016101000a81548160ff02191690831515021790555060408201518160010155606082015181600201556080820151816003019080519060200190611e959291906135d5565b5090505060088054806001018281611ead9190613655565b9160005260206000209001600087909190916101000a81548173ffffffffffffffffffffffffffffffffffffffff021916908373ffffffffffffffffffffffffffffffffffffffff16021790555050611f068585611a16565b5050505050565b60065481565b611f1b613681565b60008060008060016000809054906101000a900473ffffffffffffffffffffffffffffffffffffffff16600454600254600354848054600181600116156101000203166002900480601f016020809104026020016040519081016040528092919081815260200182805460018160011615610100020316600290048015611fe35780601f10611fb857610100808354040283529160200191611fe3565b820191906000526020600020905b815481529060010190602001808311611fc657829003601f168201915b50505050509450945094509450945094509091929394565b600061201283838661348f9092919063ffffffff16565b90509392505050565b6000809054906101000a900473ffffffffffffffffffffffffffffffffffffffff1673ffffffffffffffffffffffffffffffffffffffff163373ffffffffffffffffffffffffffffffffffffffff16141580156120c55750600760003373ffffffffffffffffffffffffffffffffffffffff1673ffffffffffffffffffffffffffffffffffffffff16815260200190815260200160002060000160019054906101000a900460ff16155b156120cf57600080fd5b7eb763075216b1778fecb2719c6d2040ed88fdbe6092a9597de5df9d175c968a82600760008573ffffffffffffffffffffffffffffffffffffffff1673ffffffffffffffffffffffffffffffffffffffff16815260200190815260200160002060000160019054906101000a900460ff1683604051808473ffffffffffffffffffffffffffffffffffffffff1673ffffffffffffffffffffffffffffffffffffffff1681526020018315151515815260200182151515158152602001935050505060405180910390a180600760008473ffffffffffffffffffffffffffffffffffffffff1673ffffffffffffffffffffffffffffffffffffffff16815260200190815260200160002060000160016101000a81548160ff0219169083151502179055505050565b6000806000612203613681565b61220b61359b565b85600760008273ffffffffffffffffffffffffffffffffffffffff1673ffffffffffffffffffffffffffffffffffffffff16815260200190815260200160002060000160009054906101000a900460ff16151561226757600080fd5b600760008873ffffffffffffffffffffffffffffffffffffffff1673ffffffffffffffffffffffffffffffffffffffff16815260200190815260200160002060a060405190810160405290816000820160009054906101000a900460ff161515151581526020016000820160019054906101000a900460ff161515151581526020016001820154815260200160028201548152602001600382018054600181600116156101000203166002900480601f0160208091040260200160405190810160405280929190818152602001828054600181600116156101000203166002900480156123955780601f1061236a57610100808354040283529160200191612395565b820191906000526020600020905b81548152906001019060200180831161237857829003601f168201915b50505050508152505091508160200151826040015183606001518460800151809050955095509550955050509193509193565b6000809054906101000a900473ffffffffffffffffffffffffffffffffffffffff1681565b60008060009054906101000a900473ffffffffffffffffffffffffffffffffffffffff1673ffffffffffffffffffffffffffffffffffffffff163373ffffffffffffffffffffffffffffffffffffffff16141580156124995750600760003373ffffffffffffffffffffffffffffffffffffffff1673ffffffffffffffffffffffffffffffffffffffff16815260200190815260200160002060000160019054906101000a900460ff16155b156124a357600080fd5b82600760008273ffffffffffffffffffffffffffffffffffffffff1673ffffffffffffffffffffffffffffffffffffffff16815260200190815260200160002060000160009054906101000a900460ff1615156124ff57600080fd5b600760008573ffffffffffffffffffffffffffffffffffffffff1673ffffffffffffffffffffffffffffffffffffffff1681526020019081526020016000206001015491508183141561255157600080fd5b8183111561257a5761257584612570848661345890919063ffffffff16565b611a16565b612597565b61259684612591858561345890919063ffffffff16565b612df5565b5b50505050565b6000600880549050905090565b6000808273ffffffffffffffffffffffffffffffffffffffff166370a08231306000604051602001526040518263ffffffff167c0100000000000000000000000000000000000000000000000000000000028152600401808273ffffffffffffffffffffffffffffffffffffffff1673ffffffffffffffffffffffffffffffffffffffff168152602001915050602060405180830381600087803b151561265057600080fd5b6102c65a03f1151561266157600080fd5b505050604051805190509050600960008473ffffffffffffffffffffffffffffffffffffffff1673ffffffffffffffffffffffffffffffffffffffff16815260200190815260200160002060000160009054906101000a900460ff161580156126ca5750600081115b1561272b576001600960008573ffffffffffffffffffffffffffffffffffffffff1673ffffffffffffffffffffffffffffffffffffffff16815260200190815260200160002060000160006101000a81548160ff0219169083151502179055505b80915050919050565b60055481565b601281565b6000809054906101000a900473ffffffffffffffffffffffffffffffffffffffff1673ffffffffffffffffffffffffffffffffffffffff163373ffffffffffffffffffffffffffffffffffffffff16141580156127e95750600760003373ffffffffffffffffffffffffffffffffffffffff1673ffffffffffffffffffffffffffffffffffffffff16815260200190815260200160002060000160019054906101000a900460ff16155b156127f357600080fd5b60158151111561280257600080fd5b7f7244709f741ec5f1d637fd5a891de308c779d1023c0f3128595bb88bf571ef886001826040518080602001806020018381038352858181546001816001161561010002031660029004815260200191508054600181600116156101000203166002900480156128b35780601f10612888576101008083540402835291602001916128b3565b820191906000526020600020905b81548152906001019060200180831161289657829003601f168201915b5050838103825284818151815260200191508051906020019080838360005b838110156128ed5780820151818401526020810190506128d2565b50505050905090810190601f16801561291a5780820380516001836020036101000a031916815260200191505b5094505050505060405180910390a1806001908051906020019061293f92919061351b565b5050565b600060088281548110151561295457fe5b906000526020600020900160009054906101000a900473ffffffffffffffffffffffffffffffffffffffff169050919050565b600033600760008273ffffffffffffffffffffffffffffffffffffffff1673ffffffffffffffffffffffffffffffffffffffff16815260200190815260200160002060000160009054906101000a900460ff1615156129e557600080fd5b6129ef3384611758565b9150612a83600760003373ffffffffffffffffffffffffffffffffffffffff1673ffffffffffffffffffffffffffffffffffffffff16815260200190815260200160002060040160008573ffffffffffffffffffffffffffffffffffffffff1673ffffffffffffffffffffffffffffffffffffffff168152602001908152602001600020548361345890919063ffffffff16565b841115612a8f57600080fd5b612b2184600760003373ffffffffffffffffffffffffffffffffffffffff1673ffffffffffffffffffffffffffffffffffffffff16815260200190815260200160002060040160008673ffffffffffffffffffffffffffffffffffffffff1673ffffffffffffffffffffffffffffffffffffffff1681526020019081526020016000205461347190919063ffffffff16565b600760003373ffffffffffffffffffffffffffffffffffffffff1673ffffffffffffffffffffffffffffffffffffffff16815260200190815260200160002060040160008573ffffffffffffffffffffffffffffffffffffffff1673ffffffffffffffffffffffffffffffffffffffff16815260200190815260200160002081905550612bf984600960008673ffffffffffffffffffffffffffffffffffffffff1673ffffffffffffffffffffffffffffffffffffffff1681526020019081526020016000206001015461347190919063ffffffff16565b600960008573ffffffffffffffffffffffffffffffffffffffff1673ffffffffffffffffffffffffffffffffffffffff168152602001908152602001600020600101819055508273ffffffffffffffffffffffffffffffffffffffff1663a9059cbb33866000604051602001526040518363ffffffff167c0100000000000000000000000000000000000000000000000000000000028152600401808373ffffffffffffffffffffffffffffffffffffffff1673ffffffffffffffffffffffffffffffffffffffff16815260200182815260200192505050602060405180830381600087803b1515612cea57600080fd5b6102c65a03f11515612cfb57600080fd5b50505060405180519050507fffdaa1b8f229c4f9a0c79b712224a2ad8d3aa3c483c23a125f4b9c179870938d338585600960008873ffffffffffffffffffffffffffffffffffffffff1673ffffffffffffffffffffffffffffffffffffffff16815260200190815260200160002060010154604051808573ffffffffffffffffffffffffffffffffffffffff1673ffffffffffffffffffffffffffffffffffffffff1681526020018481526020018373ffffffffffffffffffffffffffffffffffffffff1673ffffffffffffffffffffffffffffffffffffffff16815260200182815260200194505050505060405180910390a150505050565b6000809054906101000a900473ffffffffffffffffffffffffffffffffffffffff1673ffffffffffffffffffffffffffffffffffffffff163373ffffffffffffffffffffffffffffffffffffffff1614158015612e9f5750600760003373ffffffffffffffffffffffffffffffffffffffff1673ffffffffffffffffffffffffffffffffffffffff16815260200190815260200160002060000160019054906101000a900460ff16155b15612ea957600080fd5b81600760008273ffffffffffffffffffffffffffffffffffffffff1673ffffffffffffffffffffffffffffffffffffffff16815260200190815260200160002060000160009054906101000a900460ff161515612f0557600080fd5b612f1a8260025461345890919063ffffffff16565b600281905550612f7582600760008673ffffffffffffffffffffffffffffffffffffffff1673ffffffffffffffffffffffffffffffffffffffff1681526020019081526020016000206001015461345890919063ffffffff16565b600760008573ffffffffffffffffffffffffffffffffffffffff1673ffffffffffffffffffffffffffffffffffffffff168152602001908152602001600020600101819055507f67d4e98c6b70fdfbb7305797bbb30889a736b9773c74f9557683ffacbd22d5a88383600760008773ffffffffffffffffffffffffffffffffffffffff1673ffffffffffffffffffffffffffffffffffffffff16815260200190815260200160002060010154604051808473ffffffffffffffffffffffffffffffffffffffff1673ffffffffffffffffffffffffffffffffffffffff168152602001838152602001828152602001935050505060405180910390a1505050565b60096020528060005260406000206000915090508060000160009054906101000a900460ff16908060010154905082565b6000809054906101000a900473ffffffffffffffffffffffffffffffffffffffff1673ffffffffffffffffffffffffffffffffffffffff163373ffffffffffffffffffffffffffffffffffffffff1614151561310157600080fd5b600073ffffffffffffffffffffffffffffffffffffffff168173ffffffffffffffffffffffffffffffffffffffff1614151561317857806000806101000a81548173ffffffffffffffffffffffffffffffffffffffff021916908373ffffffffffffffffffffffffffffffffffffffff1602179055505b50565b60088181548110151561318a57fe5b90600052602060002090016000915054906101000a900473ffffffffffffffffffffffffffffffffffffffff1681565b6000809054906101000a900473ffffffffffffffffffffffffffffffffffffffff1673ffffffffffffffffffffffffffffffffffffffff163373ffffffffffffffffffffffffffffffffffffffff16141580156132645750600760003373ffffffffffffffffffffffffffffffffffffffff1673ffffffffffffffffffffffffffffffffffffffff16815260200190815260200160002060000160019054906101000a900460ff16155b1561326e57600080fd5b806040518082805190602001908083835b6020831015156132a4578051825260208201915060208101905060208303925061327f565b6001836020036101000a038019825116818451168082178552505050505050905001915050604051809103902060001916600760008673ffffffffffffffffffffffffffffffffffffffff1673ffffffffffffffffffffffffffffffffffffffff16815260200190815260200160002060030160405180828054600181600116156101000203166002900480156133725780601f10613350576101008083540402835291820191613372565b820191906000526020600020905b81548152906001019060200180831161335e575b5050915050604051809103902060001916141515613395576133948482610ed5565b5b811515600760008673ffffffffffffffffffffffffffffffffffffffff1673ffffffffffffffffffffffffffffffffffffffff16815260200190815260200160002060000160019054906101000a900460ff1615151415156133fc576133fb848361201b565b5b82600760008673ffffffffffffffffffffffffffffffffffffffff1673ffffffffffffffffffffffffffffffffffffffff168152602001908152602001600020600101541415156134525761345184846123ed565b5b50505050565b600082821115151561346657fe5b818303905092915050565b600080828401905083811015151561348557fe5b8091505092915050565b60008060006134a48660018601600a0a6134cd565b9150600a60056134b48488613500565b018115156134be57fe5b04905080925050509392505050565b600080828402905060008414806134ee57508284828115156134eb57fe5b04145b15156134f657fe5b8091505092915050565b600080828481151561350e57fe5b0490508091505092915050565b828054600181600116156101000203166002900490600052602060002090601f016020900481019282601f1061355c57805160ff191683800117855561358a565b8280016001018555821561358a579182015b8281111561358957825182559160200191906001019061356e565b5b5090506135979190613695565b5090565b60a06040519081016040528060001515815260200160001515815260200160008152602001600081526020016135cf6136ba565b81525090565b828054600181600116156101000203166002900490600052602060002090601f016020900481019282601f1061361657805160ff1916838001178555613644565b82800160010185558215613644579182015b82811115613643578251825591602001919060010190613628565b5b5090506136519190613695565b5090565b81548183558181151161367c5781836000526020600020918201910161367b9190613695565b5b505050565b602060405190810160405280600081525090565b6136b791905b808211156136b357600081600090555060010161369b565b5090565b90565b6020604051908101604052806000815250905600a165627a7a72305820e05324d719ca2df01bc2cbf5dba83deebe1ea0655a5ea96a6d6dd25f74c52c9c0029",
  "source": "pragma solidity ^0.4.15;\n\n/**\n * @title Doneth (Doneth)\n * @dev Doneth is a contract that allows shared access to funds\n * in the form of Ether and ERC20 tokens. It is especially relevant\n * to donation based projects. The admins of the contract determine \n * who is a member, and each member gets a number of shares. The \n * number of shares each member has determines how much Ether/ERC20 \n * the member can withdraw from the contract.\n */\n\n/*\n * Ownable\n *\n * Base contract with an owner.\n * Provides onlyOwner modifier, which prevents function from running\n * if it is called by anyone other than the owner.\n */\n\ncontract Ownable {\n    address public owner;\n\n    function Ownable() {\n        owner = msg.sender;\n    }\n\n    modifier onlyOwner() {\n        require(msg.sender == owner);\n        _;\n    }\n\n    function transferOwnership(address newOwner) onlyOwner {\n        if (newOwner != address(0)) {\n            owner = newOwner;\n        }\n    }\n}\n\ncontract Doneth is Ownable {\n    using SafeMath for uint256;  \n\n    // Name of the contract\n    string public name;\n\n    // Sum of all shares allocated to members\n    uint256 public totalShares;\n\n    // Sum of all withdrawals done by members\n    uint256 public totalWithdrawn;\n\n    // Block number of when the contract was created\n    uint256 public genesisBlockNumber;\n\n    // Number of decimal places for floating point division\n    uint256 constant public PRECISION = 18;\n\n    // Variables for shared expense allocation\n    uint256 public sharedExpense;\n    uint256 public sharedExpenseWithdrawn;\n\n    // Used to keep track of members\n    mapping(address => Member) public members;\n    address[] public memberKeys;\n    struct Member {\n        bool exists;\n        bool admin;\n        uint256 shares;\n        uint256 withdrawn;\n        string memberName;\n        mapping(address => uint256) tokensWithdrawn;\n    }\n\n    // Used to keep track of ERC20 tokens used and how much withdrawn\n    mapping(address => Token) public tokens;\n    address[] public tokenKeys;\n    struct Token {\n        bool exists;\n        uint256 totalWithdrawn;\n    }\n\n    function Doneth(string _contractName, string _founderName) {\n        if (bytes(_contractName).length > 21) revert();\n        if (bytes(_founderName).length > 21) revert();\n        name = _contractName;\n        genesisBlockNumber = block.number;\n        addMember(msg.sender, 1, true, _founderName);\n    }\n\n    event Deposit(address from, uint value);\n    event Withdraw(address from, uint value, uint256 newTotalWithdrawn);\n    event TokenWithdraw(address from, uint value, address token, uint amount);\n    event AddShare(address who, uint256 addedShares, uint256 newTotalShares);\n    event RemoveShare(address who, uint256 removedShares, uint256 newTotalShares);\n    event ChangePrivilege(address who, bool oldValue, bool newValue);\n    event ChangeContractName(string oldValue, string newValue);\n    event ChangeMemberName(address who, string oldValue, string newValue);\n    event ChangeSharedExpense(uint256 contractBalance, uint256 oldValue, uint256 newValue);\n    event WithdrawSharedExpense(address from, address to, uint value, uint256 newSharedExpenseWithdrawn);\n\n    // Fallback function accepts Ether from donators\n    function () public payable {\n        Deposit(msg.sender, msg.value);\n    }\n\n    modifier onlyAdmin() { \n        if (msg.sender != owner && !members[msg.sender].admin) revert();   \n        _;\n    }\n\n    modifier onlyExisting(address who) { \n        if (!members[who].exists) revert(); \n        _;\n    }\n\n    // Series of getter functions for contract data\n    function getMemberCount() public constant returns(uint) {\n        return memberKeys.length;\n    }\n    \n    function getMemberAtKey(uint key) public constant returns(address) {\n        return memberKeys[key];\n    }\n    \n    function getBalance() public constant returns(uint256 balance) {\n        return this.balance;\n    }\n    \n    function getContractInfo() public constant returns(string, address, uint256, uint256, uint256) {\n        return (string(name), owner, genesisBlockNumber, totalShares, totalWithdrawn);\n    }\n    \n    function returnMember(address _address) public constant onlyExisting(_address) returns(bool admin, uint256 shares, uint256 withdrawn, string memberName) {\n      Member memory m = members[_address];\n      return (m.admin, m.shares, m.withdrawn, m.memberName);\n    }\n\n    function checkERC20Balance(address token) public constant returns(uint256) {\n        uint256 balance = ERC20(token).balanceOf(address(this));\n        if (!tokens[token].exists && balance > 0) {\n            tokens[token].exists = true;\n        }\n        return balance;\n    }\n\n    // Function to add members to the contract \n    function addMember(address who, uint256 shares, bool admin, string memberName) public onlyAdmin() {\n        // Don't allow the same member to be added twice\n        if (members[who].exists) revert();\n        if (bytes(memberName).length > 21) revert();\n\n        Member memory newMember;\n        newMember.exists = true;\n        newMember.admin = admin;\n        newMember.memberName = memberName;\n\n        members[who] = newMember;\n        memberKeys.push(who);\n        addShare(who, shares);\n    }\n\n    function updateMember(address who, uint256 shares, bool isAdmin, string name) public onlyAdmin() {\n        if (sha3(members[who].memberName) != sha3(name)) changeMemberName(who, name);\n        if (members[who].admin != isAdmin) changeAdminPrivilege(who, isAdmin);\n        if (members[who].shares != shares) allocateShares(who, shares);\n    }\n\n    // Only owner, admin or member can change member's name\n    function changeMemberName(address who, string newName) public onlyExisting(who) {\n        if (msg.sender != who && msg.sender != owner && !members[msg.sender].admin) revert();\n        if (bytes(newName).length > 21) revert();\n        ChangeMemberName(who, members[who].memberName, newName);\n        members[who].memberName = newName;\n    }\n\n    function changeAdminPrivilege(address who, bool newValue) public onlyAdmin() {\n        ChangePrivilege(who, members[who].admin, newValue);\n        members[who].admin = newValue; \n    }\n\n    // Only admins and owners can change the contract name\n    function changeContractName(string newName) public onlyAdmin() {\n        if (bytes(newName).length > 21) revert();\n        ChangeContractName(name, newName);\n        name = newName;\n    }\n\n    // Shared expense allocation allows admins to withdraw an amount to be used for shared\n    // expenses. Shared expense allocation subtracts from the total balance of the contract. \n    // Only owner can change this amount.\n    function changeSharedExpenseAllocation(uint256 newAllocation) public onlyOwner() {\n        if (newAllocation < sharedExpenseWithdrawn) revert();\n        if (newAllocation.sub(sharedExpenseWithdrawn) > this.balance) revert();\n\n        ChangeSharedExpense(this.balance, sharedExpense, newAllocation);\n        sharedExpense = newAllocation;\n    }\n\n    // Set share amount explicitly by calculating difference then adding or removing accordingly\n    function allocateShares(address who, uint256 amount) public onlyAdmin() onlyExisting(who) {\n        uint256 currentShares = members[who].shares;\n        if (amount == currentShares) revert();\n        if (amount > currentShares) {\n            addShare(who, amount.sub(currentShares));\n        } else {\n            removeShare(who, currentShares.sub(amount));\n        }\n    }\n\n    // Increment the number of shares for a member\n    function addShare(address who, uint256 amount) public onlyAdmin() onlyExisting(who) {\n        totalShares = totalShares.add(amount);\n        members[who].shares = members[who].shares.add(amount);\n        AddShare(who, amount, members[who].shares);\n    }\n\n    // Decrement the number of shares for a member\n    function removeShare(address who, uint256 amount) public onlyAdmin() onlyExisting(who) {\n        totalShares = totalShares.sub(amount);\n        members[who].shares = members[who].shares.sub(amount);\n        RemoveShare(who, amount, members[who].shares);\n    }\n\n    // Function for a member to withdraw Ether from the contract proportional\n    // to the amount of shares they have. Calculates the totalWithdrawableAmount\n    // in Ether based on the member's share and the Ether balance of the contract,\n    // then subtracts the amount of Ether that the member has already previously\n    // withdrawn.\n    function withdraw(uint256 amount) public onlyExisting(msg.sender) {\n        uint256 newTotal = calculateTotalWithdrawableAmount(msg.sender);\n        if (amount > newTotal.sub(members[msg.sender].withdrawn)) revert();\n        \n        members[msg.sender].withdrawn = members[msg.sender].withdrawn.add(amount);\n        totalWithdrawn = totalWithdrawn.add(amount);\n        msg.sender.transfer(amount);\n        Withdraw(msg.sender, amount, totalWithdrawn);\n    }\n\n    // Withdrawal function for ERC20 tokens\n    function withdrawToken(uint256 amount, address token) public onlyExisting(msg.sender) {\n        uint256 newTotal = calculateTotalWithdrawableTokenAmount(msg.sender, token);\n        if (amount > newTotal.sub(members[msg.sender].tokensWithdrawn[token])) revert();\n\n        members[msg.sender].tokensWithdrawn[token] = members[msg.sender].tokensWithdrawn[token].add(amount);\n        tokens[token].totalWithdrawn = tokens[token].totalWithdrawn.add(amount);\n        ERC20(token).transfer(msg.sender, amount);\n        TokenWithdraw(msg.sender, amount, token, tokens[token].totalWithdrawn);\n    }\n\n    // Withdraw from shared expense allocation. Total withdrawable is calculated as \n    // sharedExpense minus sharedExpenseWithdrawn. Only Admin can withdraw from shared expense.\n    function withdrawSharedExpense(uint256 amount, address to) public onlyAdmin() {\n        if (amount > calculateTotalExpenseWithdrawableAmount()) revert();\n        \n        sharedExpenseWithdrawn = sharedExpenseWithdrawn.add(amount);\n        to.transfer(amount);\n        WithdrawSharedExpense(msg.sender, to, amount, sharedExpenseWithdrawn);\n    }\n\n    // Converts from shares to Eth.\n    // Ex: 2 shares, 4 total shares, 40 Eth balance\n    // 40 Eth / 4 total shares = 10 eth per share * 2 shares = 20 Eth to cash out\n    function calculateTotalWithdrawableAmount(address who) public constant onlyExisting(who) returns (uint256) {\n        // Total balance to calculate share from = \n        // contract balance + totalWithdrawn - sharedExpense + sharedExpenseWithdrawn\n        uint256 balanceSum = this.balance.add(totalWithdrawn);\n        balanceSum = balanceSum.sub(sharedExpense);\n        balanceSum = balanceSum.add(sharedExpenseWithdrawn);\n        \n        // Need to use parts-per notation to compute percentages for lack of floating point division\n        uint256 ethPerSharePPN = balanceSum.percent(totalShares, PRECISION); \n        uint256 ethPPN = ethPerSharePPN.mul(members[who].shares);\n        uint256 ethVal = ethPPN.div(10**PRECISION); \n        return ethVal;\n    }\n\n\n    function calculateTotalWithdrawableTokenAmount(address who, address token) public constant returns(uint256) {\n        uint256 balanceSum = checkERC20Balance(token).add(tokens[token].totalWithdrawn);\n\n        // Need to use parts-per notation to compute percentages for lack of floating point division\n        uint256 tokPerSharePPN = balanceSum.percent(totalShares, PRECISION); \n        uint256 tokPPN = tokPerSharePPN.mul(members[who].shares);\n        uint256 tokVal = tokPPN.div(10**PRECISION); \n        return tokVal;\n    }\n\n    function calculateTotalExpenseWithdrawableAmount() public constant returns(uint256) {\n        return sharedExpense.sub(sharedExpenseWithdrawn);\n    }\n\n    // Used for testing\n    function delegatePercent(uint256 a, uint256 b, uint256 c) public constant returns (uint256) {\n        return a.percent(b, c);\n    }\n}\n\n/**\n * @title ERC20Basic\n * @dev Simpler version of ERC20 interface\n * @dev see https://github.com/ethereum/EIPs/issues/179\n */\ncontract ERC20Basic {\n  uint256 public totalSupply;\n  function balanceOf(address who) public constant returns (uint256);\n  function transfer(address to, uint256 value) public returns (bool);\n  event Transfer(address indexed from, address indexed to, uint256 value);\n}\n\n\n/**\n * @title ERC20 interface\n * @dev see https://github.com/ethereum/EIPs/issues/20\n */\ncontract ERC20 is ERC20Basic {\n  function allowance(address owner, address spender) public constant returns (uint256);\n  function transferFrom(address from, address to, uint256 value) public returns (bool);\n  function approve(address spender, uint256 value) public returns (bool);\n  event Approval(address indexed owner, address indexed spender, uint256 value);\n}\n\n\n/**\n * @title SafeMath\n * @dev Math operations with safety checks that throw on error\n */\nlibrary SafeMath {\n    function mul(uint256 a, uint256 b) internal constant returns (uint256) {\n        uint256 c = a * b;\n        assert(a == 0 || c / a == b);\n        return c;\n    }\n\n    function div(uint256 a, uint256 b) internal constant returns (uint256) {\n        // assert(b > 0); // Solidity automatically throws when dividing by 0\n        uint256 c = a / b;\n        // assert(a == b * c + a % b); // There is no case in which this doesn't hold\n        return c;\n    }\n\n    function sub(uint256 a, uint256 b) internal constant returns (uint256) {\n        assert(b <= a);\n        return a - b;\n    }\n\n    function add(uint256 a, uint256 b) internal constant returns (uint256) {\n        uint256 c = a + b;\n        assert(c >= a);\n        return c;\n    }\n\n    // Using from SO: https://stackoverflow.com/questions/42738640/division-in-ethereum-solidity/42739843#42739843\n    // Adapted to use SafeMath and uint256.\n    function percent(uint256 numerator, uint256 denominator, uint256 precision) internal constant returns(uint256 quotient) {\n        // caution, check safe-to-multiply here\n        uint256 _numerator = mul(numerator, 10 ** (precision+1));\n        // with rounding of last digit\n        uint256 _quotient = (div(_numerator, denominator) + 5) / 10;\n        return (_quotient);\n    }\n}\n\n",
  "sourcePath": "/Users/billy/vue/doneth/contracts/Doneth.sol",
  "compiler": {
    "name": "solc",
    "version": "0.4.18+commit.9cf6e910.Emscripten.clang"
  },
  "schemaVersion": "1.0.1",
  "updatedAt": "2017-11-15T12:00:43.546Z"
}