{
  "contractName": "Doneth",
  "abi": [
    {
      "constant": true,
      "inputs": [],
      "name": "getSharedExpenseWithdrawn",
      "outputs": [
        {
          "name": "",
          "type": "uint256"
        }
      ],
      "payable": false,
      "stateMutability": "view",
      "type": "function"
    },
    {
      "constant": true,
      "inputs": [],
      "name": "genesisBlockNumber",
      "outputs": [
        {
          "name": "",
          "type": "uint256"
        }
      ],
      "payable": false,
      "stateMutability": "view",
      "type": "function"
    },
    {
      "constant": true,
      "inputs": [],
      "name": "name",
      "outputs": [
        {
          "name": "",
          "type": "string"
        }
      ],
      "payable": false,
      "stateMutability": "view",
      "type": "function"
    },
    {
      "constant": true,
      "inputs": [
        {
          "name": "",
          "type": "address"
        }
      ],
      "name": "members",
      "outputs": [
        {
          "name": "exists",
          "type": "bool"
        },
        {
          "name": "active",
          "type": "bool"
        },
        {
          "name": "admin",
          "type": "bool"
        },
        {
          "name": "shares",
          "type": "uint256"
        },
        {
          "name": "withdrawn",
          "type": "uint256"
        },
        {
          "name": "memberName",
          "type": "string"
        }
      ],
      "payable": false,
      "stateMutability": "view",
      "type": "function"
    },
    {
      "constant": true,
      "inputs": [],
      "name": "getBalance",
      "outputs": [
        {
          "name": "balance",
          "type": "uint256"
        }
      ],
      "payable": false,
      "stateMutability": "view",
      "type": "function"
    },
    {
      "constant": true,
      "inputs": [],
      "name": "getSharedExpense",
      "outputs": [
        {
          "name": "",
          "type": "uint256"
        }
      ],
      "payable": false,
      "stateMutability": "view",
      "type": "function"
    },
    {
      "constant": false,
      "inputs": [
        {
          "name": "newAllocation",
          "type": "uint256"
        }
      ],
      "name": "changeSharedExpenseAllocation",
      "outputs": [],
      "payable": false,
      "stateMutability": "nonpayable",
      "type": "function"
    },
    {
      "constant": false,
      "inputs": [
        {
          "name": "amount",
          "type": "uint256"
        },
        {
          "name": "to",
          "type": "address"
        }
      ],
      "name": "withdrawSharedExpense",
      "outputs": [],
      "payable": false,
      "stateMutability": "nonpayable",
      "type": "function"
    },
    {
      "constant": false,
      "inputs": [
        {
          "name": "amount",
          "type": "uint256"
        }
      ],
      "name": "withdraw",
      "outputs": [],
      "payable": false,
      "stateMutability": "nonpayable",
      "type": "function"
    },
    {
      "constant": true,
      "inputs": [
        {
          "name": "who",
          "type": "address"
        }
      ],
      "name": "calculateTotalWithdrawableAmount",
      "outputs": [
        {
          "name": "",
          "type": "uint256"
        }
      ],
      "payable": false,
      "stateMutability": "view",
      "type": "function"
    },
    {
      "constant": true,
      "inputs": [],
      "name": "totalShares",
      "outputs": [
        {
          "name": "",
          "type": "uint256"
        }
      ],
      "payable": false,
      "stateMutability": "view",
      "type": "function"
    },
    {
      "constant": true,
      "inputs": [],
      "name": "calculateTotalExpenseWithdrawableAmount",
      "outputs": [
        {
          "name": "",
          "type": "uint256"
        }
      ],
      "payable": false,
      "stateMutability": "view",
      "type": "function"
    },
    {
      "constant": true,
      "inputs": [],
      "name": "totalWithdrawn",
      "outputs": [
        {
          "name": "",
          "type": "uint256"
        }
      ],
      "payable": false,
      "stateMutability": "view",
      "type": "function"
    },
    {
      "constant": true,
      "inputs": [],
      "name": "founder",
      "outputs": [
        {
          "name": "",
          "type": "address"
        }
      ],
      "payable": false,
      "stateMutability": "view",
      "type": "function"
    },
    {
      "constant": false,
      "inputs": [
        {
          "name": "who",
          "type": "address"
        },
        {
          "name": "amount",
          "type": "uint256"
        }
      ],
      "name": "addShare",
      "outputs": [],
      "payable": false,
      "stateMutability": "nonpayable",
      "type": "function"
    },
    {
      "constant": true,
      "inputs": [],
      "name": "incrementInterval",
      "outputs": [
        {
          "name": "",
          "type": "uint256"
        }
      ],
      "payable": false,
      "stateMutability": "view",
      "type": "function"
    },
    {
      "constant": false,
      "inputs": [
        {
          "name": "who",
          "type": "address"
        },
        {
          "name": "shares",
          "type": "uint256"
        },
        {
          "name": "admin",
          "type": "bool"
        },
        {
          "name": "memberName",
          "type": "string"
        }
      ],
      "name": "addMember",
      "outputs": [],
      "payable": false,
      "stateMutability": "nonpayable",
      "type": "function"
    },
    {
      "constant": true,
      "inputs": [],
      "name": "sharedExpenseWithdrawn",
      "outputs": [
        {
          "name": "",
          "type": "uint256"
        }
      ],
      "payable": false,
      "stateMutability": "view",
      "type": "function"
    },
    {
      "constant": true,
      "inputs": [],
      "name": "getContractInfo",
      "outputs": [
        {
          "name": "",
          "type": "string"
        },
        {
          "name": "",
          "type": "address"
        },
        {
          "name": "",
          "type": "uint256"
        },
        {
          "name": "",
          "type": "uint256"
        },
        {
          "name": "",
          "type": "uint256"
        }
      ],
      "payable": false,
      "stateMutability": "view",
      "type": "function"
    },
    {
      "constant": true,
      "inputs": [
        {
          "name": "a",
          "type": "uint256"
        },
        {
          "name": "b",
          "type": "uint256"
        },
        {
          "name": "c",
          "type": "uint256"
        }
      ],
      "name": "delegatePercent",
      "outputs": [
        {
          "name": "",
          "type": "uint256"
        }
      ],
      "payable": false,
      "stateMutability": "view",
      "type": "function"
    },
    {
      "constant": false,
      "inputs": [
        {
          "name": "who",
          "type": "address"
        },
        {
          "name": "newValue",
          "type": "bool"
        }
      ],
      "name": "changeAdminPrivilege",
      "outputs": [],
      "payable": false,
      "stateMutability": "nonpayable",
      "type": "function"
    },
    {
      "constant": true,
      "inputs": [
        {
          "name": "_address",
          "type": "address"
        }
      ],
      "name": "returnMember",
      "outputs": [
        {
          "name": "active",
          "type": "bool"
        },
        {
          "name": "admin",
          "type": "bool"
        },
        {
          "name": "shares",
          "type": "uint256"
        },
        {
          "name": "withdrawn",
          "type": "uint256"
        },
        {
          "name": "memberName",
          "type": "string"
        }
      ],
      "payable": false,
      "stateMutability": "view",
      "type": "function"
    },
    {
      "constant": true,
      "inputs": [],
      "name": "getFounder",
      "outputs": [
        {
          "name": "",
          "type": "address"
        }
      ],
      "payable": false,
      "stateMutability": "view",
      "type": "function"
    },
    {
      "constant": true,
      "inputs": [],
      "name": "getMemberCount",
      "outputs": [
        {
          "name": "",
          "type": "uint256"
        }
      ],
      "payable": false,
      "stateMutability": "view",
      "type": "function"
    },
    {
      "constant": true,
      "inputs": [],
      "name": "sharedExpense",
      "outputs": [
        {
          "name": "",
          "type": "uint256"
        }
      ],
      "payable": false,
      "stateMutability": "view",
      "type": "function"
    },
    {
      "constant": true,
      "inputs": [],
      "name": "PRECISION",
      "outputs": [
        {
          "name": "",
          "type": "uint256"
        }
      ],
      "payable": false,
      "stateMutability": "view",
      "type": "function"
    },
    {
      "constant": false,
      "inputs": [
        {
          "name": "newName",
          "type": "string"
        }
      ],
      "name": "changeContractName",
      "outputs": [],
      "payable": false,
      "stateMutability": "nonpayable",
      "type": "function"
    },
    {
      "constant": true,
      "inputs": [
        {
          "name": "key",
          "type": "uint256"
        }
      ],
      "name": "getMemberAtKey",
      "outputs": [
        {
          "name": "",
          "type": "address"
        }
      ],
      "payable": false,
      "stateMutability": "view",
      "type": "function"
    },
    {
      "constant": false,
      "inputs": [
        {
          "name": "who",
          "type": "address"
        },
        {
          "name": "amount",
          "type": "uint256"
        }
      ],
      "name": "removeShare",
      "outputs": [],
      "payable": false,
      "stateMutability": "nonpayable",
      "type": "function"
    },
    {
      "constant": true,
      "inputs": [],
      "name": "incrementShares",
      "outputs": [
        {
          "name": "",
          "type": "bool"
        }
      ],
      "payable": false,
      "stateMutability": "view",
      "type": "function"
    },
    {
      "constant": true,
      "inputs": [
        {
          "name": "",
          "type": "uint256"
        }
      ],
      "name": "memberKeys",
      "outputs": [
        {
          "name": "",
          "type": "address"
        }
      ],
      "payable": false,
      "stateMutability": "view",
      "type": "function"
    },
    {
      "inputs": [
        {
          "name": "_contractName",
          "type": "string"
        },
        {
          "name": "_founderName",
          "type": "string"
        }
      ],
      "payable": false,
      "stateMutability": "nonpayable",
      "type": "constructor"
    },
    {
      "payable": true,
      "stateMutability": "payable",
      "type": "fallback"
    },
    {
      "anonymous": false,
      "inputs": [
        {
          "indexed": false,
          "name": "from",
          "type": "address"
        },
        {
          "indexed": false,
          "name": "value",
          "type": "uint256"
        }
      ],
      "name": "Deposit",
      "type": "event"
    },
    {
      "anonymous": false,
      "inputs": [
        {
          "indexed": false,
          "name": "from",
          "type": "address"
        },
        {
          "indexed": false,
          "name": "value",
          "type": "uint256"
        },
        {
          "indexed": false,
          "name": "newTotalWithdrawn",
          "type": "uint256"
        }
      ],
      "name": "Withdraw",
      "type": "event"
    },
    {
      "anonymous": false,
      "inputs": [
        {
          "indexed": false,
          "name": "who",
          "type": "address"
        },
        {
          "indexed": false,
          "name": "addedShares",
          "type": "uint256"
        },
        {
          "indexed": false,
          "name": "newTotalShares",
          "type": "uint256"
        }
      ],
      "name": "AddShare",
      "type": "event"
    },
    {
      "anonymous": false,
      "inputs": [
        {
          "indexed": false,
          "name": "who",
          "type": "address"
        },
        {
          "indexed": false,
          "name": "removedShares",
          "type": "uint256"
        },
        {
          "indexed": false,
          "name": "newTotalShares",
          "type": "uint256"
        }
      ],
      "name": "RemoveShare",
      "type": "event"
    },
    {
      "anonymous": false,
      "inputs": [
        {
          "indexed": false,
          "name": "num",
          "type": "uint256"
        },
        {
          "indexed": false,
          "name": "balance",
          "type": "uint256"
        },
        {
          "indexed": false,
          "name": "shares",
          "type": "uint256"
        }
      ],
      "name": "Division",
      "type": "event"
    },
    {
      "anonymous": false,
      "inputs": [
        {
          "indexed": false,
          "name": "who",
          "type": "address"
        },
        {
          "indexed": false,
          "name": "oldValue",
          "type": "bool"
        },
        {
          "indexed": false,
          "name": "newValue",
          "type": "bool"
        }
      ],
      "name": "ChangePrivilege",
      "type": "event"
    },
    {
      "anonymous": false,
      "inputs": [
        {
          "indexed": false,
          "name": "oldValue",
          "type": "string"
        },
        {
          "indexed": false,
          "name": "newValue",
          "type": "string"
        }
      ],
      "name": "ChangeContractName",
      "type": "event"
    },
    {
      "anonymous": false,
      "inputs": [
        {
          "indexed": false,
          "name": "contractBalance",
          "type": "uint256"
        },
        {
          "indexed": false,
          "name": "oldValue",
          "type": "uint256"
        },
        {
          "indexed": false,
          "name": "newValue",
          "type": "uint256"
        }
      ],
      "name": "ChangeSharedExpense",
      "type": "event"
    },
    {
      "anonymous": false,
      "inputs": [
        {
          "indexed": false,
          "name": "from",
          "type": "address"
        },
        {
          "indexed": false,
          "name": "value",
          "type": "uint256"
        },
        {
          "indexed": false,
          "name": "newSharedExpenseWithdrawn",
          "type": "uint256"
        }
      ],
      "name": "WithdrawSharedExpense",
      "type": "event"
    }
  ],
  "bytecode": "0x606060405234156200001057600080fd5b60405162002d2f38038062002d2f8339810160405280805182019190602001805182019190505081600190805190602001906200004f9291906200063c565b50336000806101000a81548173ffffffffffffffffffffffffffffffffffffffff021916908373ffffffffffffffffffffffffffffffffffffffff16021790555043600681905550620000ba3360018084620000c2640100000000026200165b176401000000009004565b5050620007fa565b620000cc620006c3565b6000809054906101000a900473ffffffffffffffffffffffffffffffffffffffff1673ffffffffffffffffffffffffffffffffffffffff163373ffffffffffffffffffffffffffffffffffffffff1614158015620001775750600960003373ffffffffffffffffffffffffffffffffffffffff1673ffffffffffffffffffffffffffffffffffffffff16815260200190815260200160002060000160029054906101000a900460ff16155b156200018257600080fd5b600960008673ffffffffffffffffffffffffffffffffffffffff1673ffffffffffffffffffffffffffffffffffffffff16815260200190815260200160002060000160009054906101000a900460ff1615620001dd57600080fd5b6001816000019015159081151581525050828160400190151590811515815250506001816020019015159081151581525050818160a0018190525080600960008773ffffffffffffffffffffffffffffffffffffffff1673ffffffffffffffffffffffffffffffffffffffff16815260200190815260200160002060008201518160000160006101000a81548160ff02191690831515021790555060208201518160000160016101000a81548160ff02191690831515021790555060408201518160000160026101000a81548160ff021916908315150217905550606082015181600101556080820151816002015560a0820151816003019080519060200190620002ea92919062000708565b50905050600a80548060010182816200030491906200078f565b9160005260206000209001600087909190916101000a81548173ffffffffffffffffffffffffffffffffffffffff021916908373ffffffffffffffffffffffffffffffffffffffff160217905550506200037385856200037a64010000000002620013d5176401000000009004565b5050505050565b6000809054906101000a900473ffffffffffffffffffffffffffffffffffffffff1673ffffffffffffffffffffffffffffffffffffffff163373ffffffffffffffffffffffffffffffffffffffff1614158015620004255750600960003373ffffffffffffffffffffffffffffffffffffffff1673ffffffffffffffffffffffffffffffffffffffff16815260200190815260200160002060000160029054906101000a900460ff16155b156200043057600080fd5b81600960008273ffffffffffffffffffffffffffffffffffffffff1673ffffffffffffffffffffffffffffffffffffffff16815260200190815260200160002060000160009054906101000a900460ff1615156200048d57600080fd5b620004b2826002546200061d640100000000026200227a179091906401000000009004565b6002819055506200051d82600960008673ffffffffffffffffffffffffffffffffffffffff1673ffffffffffffffffffffffffffffffffffffffff168152602001908152602001600020600101546200061d640100000000026200227a179091906401000000009004565b600960008573ffffffffffffffffffffffffffffffffffffffff1673ffffffffffffffffffffffffffffffffffffffff168152602001908152602001600020600101819055507f0d0d4d1bc5a254e66ec692f9d1a4452fed4b59a3a1ba48b1a991838e5c7c4b8a8383600960008773ffffffffffffffffffffffffffffffffffffffff1673ffffffffffffffffffffffffffffffffffffffff16815260200190815260200160002060010154604051808473ffffffffffffffffffffffffffffffffffffffff1673ffffffffffffffffffffffffffffffffffffffff168152602001838152602001828152602001935050505060405180910390a1505050565b60008082840190508381101515156200063257fe5b8091505092915050565b828054600181600116156101000203166002900490600052602060002090601f016020900481019282601f106200067f57805160ff1916838001178555620006b0565b82800160010185558215620006b0579182015b82811115620006af57825182559160200191906001019062000692565b5b509050620006bf9190620007be565b5090565b60c060405190810160405280600015158152602001600015158152602001600015158152602001600081526020016000815260200162000702620007e6565b81525090565b828054600181600116156101000203166002900490600052602060002090601f016020900481019282601f106200074b57805160ff19168380011785556200077c565b828001600101855582156200077c579182015b828111156200077b5782518255916020019190600101906200075e565b5b5090506200078b9190620007be565b5090565b815481835581811511620007b957818360005260206000209182019101620007b89190620007be565b5b505050565b620007e391905b80821115620007df576000816000905550600101620007c5565b5090565b90565b602060405190810160405280600081525090565b612525806200080a6000396000f30060606040526004361061018a576000357c0100000000000000000000000000000000000000000000000000000000900463ffffffff1680620fab12146101f75780630356fe3a1461022057806306fdde031461024957806308ae4b0c146102d757806312065fe0146103d5578063120c8078146103fe5780631468fc261461042757806324e2ca921461044a5780632e1a7d4d1461048c578063389435e8146104af5780633a98ef39146104fc5780634a914e8c146105255780634b3197131461054e5780634d853ee51461057757806350f4f9f8146105cc578063597be18b1461060e5780635ea40983146106375780636e2fd470146106c75780637cc1f867146106f05780637d22f431146107c657806380056b5b1461080f57806385dcbb5a14610853578063946bcc3014610929578063997072f71461097e5780639d21328f146109a7578063aaf5eb68146109d0578063ad3cd883146109f9578063aec8fae814610a56578063c06474e014610ab9578063ca27fb0c14610afb578063f504b08914610b28575b7fe1fffcc4923d04b559f4d29a8bfc6cda04eb5b0d3c460751c2402c5c5cc9109c3334604051808373ffffffffffffffffffffffffffffffffffffffff1673ffffffffffffffffffffffffffffffffffffffff1681526020018281526020019250505060405180910390a1005b341561020257600080fd5b61020a610b8b565b6040518082815260200191505060405180910390f35b341561022b57600080fd5b610233610b95565b6040518082815260200191505060405180910390f35b341561025457600080fd5b61025c610b9b565b6040518080602001828103825283818151815260200191508051906020019080838360005b8381101561029c578082015181840152602081019050610281565b50505050905090810190601f1680156102c95780820380516001836020036101000a031916815260200191505b509250505060405180910390f35b34156102e257600080fd5b61030e600480803573ffffffffffffffffffffffffffffffffffffffff16906020019091905050610c39565b60405180871515151581526020018615151515815260200185151515158152602001848152602001838152602001806020018281038252838181546001816001161561010002031660029004815260200191508054600181600116156101000203166002900480156103c15780601f10610396576101008083540402835291602001916103c1565b820191906000526020600020905b8154815290600101906020018083116103a457829003601f168201915b505097505050505050505060405180910390f35b34156103e057600080fd5b6103e8610c9b565b6040518082815260200191505060405180910390f35b341561040957600080fd5b610411610cba565b6040518082815260200191505060405180910390f35b341561043257600080fd5b6104486004808035906020019091905050610cc4565b005b341561045557600080fd5b61048a600480803590602001909190803573ffffffffffffffffffffffffffffffffffffffff16906020019091905050610db3565b005b341561049757600080fd5b6104ad6004808035906020019091905050610fac565b005b34156104ba57600080fd5b6104e6600480803573ffffffffffffffffffffffffffffffffffffffff169060200190919050506111e6565b6040518082815260200191505060405180910390f35b341561050757600080fd5b61050f611386565b6040518082815260200191505060405180910390f35b341561053057600080fd5b61053861138c565b6040518082815260200191505060405180910390f35b341561055957600080fd5b6105616113aa565b6040518082815260200191505060405180910390f35b341561058257600080fd5b61058a6113b0565b604051808273ffffffffffffffffffffffffffffffffffffffff1673ffffffffffffffffffffffffffffffffffffffff16815260200191505060405180910390f35b34156105d757600080fd5b61060c600480803573ffffffffffffffffffffffffffffffffffffffff169060200190919080359060200190919050506113d5565b005b341561061957600080fd5b610621611655565b6040518082815260200191505060405180910390f35b341561064257600080fd5b6106c5600480803573ffffffffffffffffffffffffffffffffffffffff16906020019091908035906020019091908035151590602001909190803590602001908201803590602001908080601f0160208091040260200160405190810160405280939291908181526020018383808284378201915050505050509190505061165b565b005b34156106d257600080fd5b6106da6118f4565b6040518082815260200191505060405180910390f35b34156106fb57600080fd5b6107036118fa565b60405180806020018673ffffffffffffffffffffffffffffffffffffffff1673ffffffffffffffffffffffffffffffffffffffff168152602001858152602001848152602001838152602001828103825287818151815260200191508051906020019080838360005b8381101561078757808201518184015260208101905061076c565b50505050905090810190601f1680156107b45780820380516001836020036101000a031916815260200191505b50965050505050505060405180910390f35b34156107d157600080fd5b6107f960048080359060200190919080359060200190919080359060200190919050506119e2565b6040518082815260200191505060405180910390f35b341561081a57600080fd5b610851600480803573ffffffffffffffffffffffffffffffffffffffff169060200190919080351515906020019091905050611a02565b005b341561085e57600080fd5b61088a600480803573ffffffffffffffffffffffffffffffffffffffff16906020019091905050611b8a565b60405180861515151581526020018515151515815260200184815260200183815260200180602001828103825283818151815260200191508051906020019080838360005b838110156108ea5780820151818401526020810190506108cf565b50505050905090810190601f1680156109175780820380516001836020036101000a031916815260200191505b50965050505050505060405180910390f35b341561093457600080fd5b61093c611d81565b604051808273ffffffffffffffffffffffffffffffffffffffff1673ffffffffffffffffffffffffffffffffffffffff16815260200191505060405180910390f35b341561098957600080fd5b610991611daa565b6040518082815260200191505060405180910390f35b34156109b257600080fd5b6109ba611db7565b6040518082815260200191505060405180910390f35b34156109db57600080fd5b6109e3611dbd565b6040518082815260200191505060405180910390f35b3415610a0457600080fd5b610a54600480803590602001908201803590602001908080601f01602080910402602001604051908101604052809392919081815260200183838082843782019150505050505091905050611dc2565b005b3415610a6157600080fd5b610a776004808035906020019091905050611f64565b604051808273ffffffffffffffffffffffffffffffffffffffff1673ffffffffffffffffffffffffffffffffffffffff16815260200191505060405180910390f35b3415610ac457600080fd5b610af9600480803573ffffffffffffffffffffffffffffffffffffffff16906020019091908035906020019091905050611fa8565b005b3415610b0657600080fd5b610b0e612228565b604051808215151515815260200191505060405180910390f35b3415610b3357600080fd5b610b49600480803590602001909190505061223b565b604051808273ffffffffffffffffffffffffffffffffffffffff1673ffffffffffffffffffffffffffffffffffffffff16815260200191505060405180910390f35b6000600854905090565b60065481565b60018054600181600116156101000203166002900480601f016020809104026020016040519081016040528092919081815260200182805460018160011615610100020316600290048015610c315780601f10610c0657610100808354040283529160200191610c31565b820191906000526020600020905b815481529060010190602001808311610c1457829003601f168201915b505050505081565b60096020528060005260406000206000915090508060000160009054906101000a900460ff16908060000160019054906101000a900460ff16908060000160029054906101000a900460ff169080600101549080600201549080600301905086565b60003073ffffffffffffffffffffffffffffffffffffffff1631905090565b6000600754905090565b60008060009054906101000a900473ffffffffffffffffffffffffffffffffffffffff1673ffffffffffffffffffffffffffffffffffffffff163373ffffffffffffffffffffffffffffffffffffffff16141515610d2157600080fd5b3073ffffffffffffffffffffffffffffffffffffffff1631821115610d4557600080fd5b6007549050816007819055507f5b3ea9617f529540e1c3e0beb0e01c060418c2d1fe48d369afe3d47beaa037cf3073ffffffffffffffffffffffffffffffffffffffff1631828460405180848152602001838152602001828152602001935050505060405180910390a15050565b6000809054906101000a900473ffffffffffffffffffffffffffffffffffffffff1673ffffffffffffffffffffffffffffffffffffffff163373ffffffffffffffffffffffffffffffffffffffff1614158015610e5d5750600960003373ffffffffffffffffffffffffffffffffffffffff1673ffffffffffffffffffffffffffffffffffffffff16815260200190815260200160002060000160029054906101000a900460ff16155b15610e6757600080fd5b33600960008273ffffffffffffffffffffffffffffffffffffffff1673ffffffffffffffffffffffffffffffffffffffff16815260200190815260200160002060000160009054906101000a900460ff161515610ec357600080fd5b610ecb61138c565b831115610ed757600080fd5b610eec8360085461227a90919063ffffffff16565b6008819055508173ffffffffffffffffffffffffffffffffffffffff166108fc849081150290604051600060405180830381858888f193505050501515610f3257600080fd5b7f5ef9eb557dba13f40cbc27a26725dcacc9b7f442875e9b1ee8054997f4a7b9ef3384600854604051808473ffffffffffffffffffffffffffffffffffffffff1673ffffffffffffffffffffffffffffffffffffffff168152602001838152602001828152602001935050505060405180910390a1505050565b600033600960008273ffffffffffffffffffffffffffffffffffffffff1673ffffffffffffffffffffffffffffffffffffffff16815260200190815260200160002060000160009054906101000a900460ff16151561100a57600080fd5b611013336111e6565b915061106a600960003373ffffffffffffffffffffffffffffffffffffffff1673ffffffffffffffffffffffffffffffffffffffff168152602001908152602001600020600201548361229890919063ffffffff16565b83111561107657600080fd5b6110cb83600960003373ffffffffffffffffffffffffffffffffffffffff1673ffffffffffffffffffffffffffffffffffffffff1681526020019081526020016000206002015461227a90919063ffffffff16565b600960003373ffffffffffffffffffffffffffffffffffffffff1673ffffffffffffffffffffffffffffffffffffffff168152602001908152602001600020600201819055506111268360035461227a90919063ffffffff16565b6003819055503373ffffffffffffffffffffffffffffffffffffffff166108fc849081150290604051600060405180830381858888f19350505050151561116c57600080fd5b7ff279e6a1f5e320cca91135676d9cb6e44ca8a08c0b88342bcdb1144f6511b5683384600354604051808473ffffffffffffffffffffffffffffffffffffffff1673ffffffffffffffffffffffffffffffffffffffff168152602001838152602001828152602001935050505060405180910390a1505050565b600080600080600085600960008273ffffffffffffffffffffffffffffffffffffffff1673ffffffffffffffffffffffffffffffffffffffff16815260200190815260200160002060000160009054906101000a900460ff16151561124a57600080fd5b6112766003543073ffffffffffffffffffffffffffffffffffffffff163161227a90919063ffffffff16565b945061128d6007548661229890919063ffffffff16565b94506112a46008548661227a90919063ffffffff16565b94506112be6002546012876122b19092919063ffffffff16565b9350611315600960008973ffffffffffffffffffffffffffffffffffffffff1673ffffffffffffffffffffffffffffffffffffffff16815260200190815260200160002060010154856122ef90919063ffffffff16565b925061132e6012600a0a8461232290919063ffffffff16565b91507fd8ef84f712e41d28f98fe74cd153013023d849514d0a40ee61834f3c385055ce828660025460405180848152602001838152602001828152602001935050505060405180910390a18195505050505050919050565b60025481565b60006113a560085460075461229890919063ffffffff16565b905090565b60035481565b6000809054906101000a900473ffffffffffffffffffffffffffffffffffffffff1681565b6000809054906101000a900473ffffffffffffffffffffffffffffffffffffffff1673ffffffffffffffffffffffffffffffffffffffff163373ffffffffffffffffffffffffffffffffffffffff161415801561147f5750600960003373ffffffffffffffffffffffffffffffffffffffff1673ffffffffffffffffffffffffffffffffffffffff16815260200190815260200160002060000160029054906101000a900460ff16155b1561148957600080fd5b81600960008273ffffffffffffffffffffffffffffffffffffffff1673ffffffffffffffffffffffffffffffffffffffff16815260200190815260200160002060000160009054906101000a900460ff1615156114e557600080fd5b6114fa8260025461227a90919063ffffffff16565b60028190555061155582600960008673ffffffffffffffffffffffffffffffffffffffff1673ffffffffffffffffffffffffffffffffffffffff1681526020019081526020016000206001015461227a90919063ffffffff16565b600960008573ffffffffffffffffffffffffffffffffffffffff1673ffffffffffffffffffffffffffffffffffffffff168152602001908152602001600020600101819055507f0d0d4d1bc5a254e66ec692f9d1a4452fed4b59a3a1ba48b1a991838e5c7c4b8a8383600960008773ffffffffffffffffffffffffffffffffffffffff1673ffffffffffffffffffffffffffffffffffffffff16815260200190815260200160002060010154604051808473ffffffffffffffffffffffffffffffffffffffff1673ffffffffffffffffffffffffffffffffffffffff168152602001838152602001828152602001935050505060405180910390a1505050565b60055481565b61166361233d565b6000809054906101000a900473ffffffffffffffffffffffffffffffffffffffff1673ffffffffffffffffffffffffffffffffffffffff163373ffffffffffffffffffffffffffffffffffffffff161415801561170d5750600960003373ffffffffffffffffffffffffffffffffffffffff1673ffffffffffffffffffffffffffffffffffffffff16815260200190815260200160002060000160029054906101000a900460ff16155b1561171757600080fd5b600960008673ffffffffffffffffffffffffffffffffffffffff1673ffffffffffffffffffffffffffffffffffffffff16815260200190815260200160002060000160009054906101000a900460ff161561177157600080fd5b6001816000019015159081151581525050828160400190151590811515815250506001816020019015159081151581525050818160a0018190525080600960008773ffffffffffffffffffffffffffffffffffffffff1673ffffffffffffffffffffffffffffffffffffffff16815260200190815260200160002060008201518160000160006101000a81548160ff02191690831515021790555060208201518160000160016101000a81548160ff02191690831515021790555060408201518160000160026101000a81548160ff021916908315150217905550606082015181600101556080820151816002015560a082015181600301908051906020019061187c929190612380565b50905050600a80548060010182816118949190612400565b9160005260206000209001600087909190916101000a81548173ffffffffffffffffffffffffffffffffffffffff021916908373ffffffffffffffffffffffffffffffffffffffff160217905550506118ed85856113d5565b5050505050565b60085481565b61190261242c565b60008060008060016000809054906101000a900473ffffffffffffffffffffffffffffffffffffffff16600654600254600354848054600181600116156101000203166002900480601f0160208091040260200160405190810160405280929190818152602001828054600181600116156101000203166002900480156119ca5780601f1061199f576101008083540402835291602001916119ca565b820191906000526020600020905b8154815290600101906020018083116119ad57829003601f168201915b50505050509450945094509450945094509091929394565b60006119f98383866122b19092919063ffffffff16565b90509392505050565b60008060009054906101000a900473ffffffffffffffffffffffffffffffffffffffff1673ffffffffffffffffffffffffffffffffffffffff163373ffffffffffffffffffffffffffffffffffffffff16141515611a5f57600080fd5b600960008473ffffffffffffffffffffffffffffffffffffffff1673ffffffffffffffffffffffffffffffffffffffff16815260200190815260200160002060000160029054906101000a900460ff16905081600960008573ffffffffffffffffffffffffffffffffffffffff1673ffffffffffffffffffffffffffffffffffffffff16815260200190815260200160002060000160026101000a81548160ff0219169083151502179055507eb763075216b1778fecb2719c6d2040ed88fdbe6092a9597de5df9d175c968a838284604051808473ffffffffffffffffffffffffffffffffffffffff1673ffffffffffffffffffffffffffffffffffffffff1681526020018315151515815260200182151515158152602001935050505060405180910390a1505050565b600080600080611b9861242c565b611ba061233d565b86600960008273ffffffffffffffffffffffffffffffffffffffff1673ffffffffffffffffffffffffffffffffffffffff16815260200190815260200160002060000160009054906101000a900460ff161515611bfc57600080fd5b600960008973ffffffffffffffffffffffffffffffffffffffff1673ffffffffffffffffffffffffffffffffffffffff16815260200190815260200160002060c060405190810160405290816000820160009054906101000a900460ff161515151581526020016000820160019054906101000a900460ff161515151581526020016000820160029054906101000a900460ff161515151581526020016001820154815260200160028201548152602001600382018054600181600116156101000203166002900480601f016020809104026020016040519081016040528092919081815260200182805460018160011615610100020316600290048015611d455780601f10611d1a57610100808354040283529160200191611d45565b820191906000526020600020905b815481529060010190602001808311611d2857829003601f168201915b505050505081525050915081602001518260400151836060015184608001518560a0015180905096509650965096509650505091939590929450565b60008060009054906101000a900473ffffffffffffffffffffffffffffffffffffffff16905090565b6000600a80549050905090565b60075481565b601281565b60008060009054906101000a900473ffffffffffffffffffffffffffffffffffffffff1673ffffffffffffffffffffffffffffffffffffffff163373ffffffffffffffffffffffffffffffffffffffff16141515611e1f57600080fd5b600190508160019080519060200190611e39929190612440565b507f7244709f741ec5f1d637fd5a891de308c779d1023c0f3128595bb88bf571ef888183604051808060200180602001838103835285818154600181600116156101000203166002900481526020019150805460018160011615610100020316600290048015611eea5780601f10611ebf57610100808354040283529160200191611eea565b820191906000526020600020905b815481529060010190602001808311611ecd57829003601f168201915b5050838103825284818151815260200191508051906020019080838360005b83811015611f24578082015181840152602081019050611f09565b50505050905090810190601f168015611f515780820380516001836020036101000a031916815260200191505b5094505050505060405180910390a15050565b6000600a82815481101515611f7557fe5b906000526020600020900160009054906101000a900473ffffffffffffffffffffffffffffffffffffffff169050919050565b6000809054906101000a900473ffffffffffffffffffffffffffffffffffffffff1673ffffffffffffffffffffffffffffffffffffffff163373ffffffffffffffffffffffffffffffffffffffff16141580156120525750600960003373ffffffffffffffffffffffffffffffffffffffff1673ffffffffffffffffffffffffffffffffffffffff16815260200190815260200160002060000160029054906101000a900460ff16155b1561205c57600080fd5b81600960008273ffffffffffffffffffffffffffffffffffffffff1673ffffffffffffffffffffffffffffffffffffffff16815260200190815260200160002060000160009054906101000a900460ff1615156120b857600080fd5b6120cd8260025461229890919063ffffffff16565b60028190555061212882600960008673ffffffffffffffffffffffffffffffffffffffff1673ffffffffffffffffffffffffffffffffffffffff1681526020019081526020016000206001015461229890919063ffffffff16565b600960008573ffffffffffffffffffffffffffffffffffffffff1673ffffffffffffffffffffffffffffffffffffffff168152602001908152602001600020600101819055507f67d4e98c6b70fdfbb7305797bbb30889a736b9773c74f9557683ffacbd22d5a88383600960008773ffffffffffffffffffffffffffffffffffffffff1673ffffffffffffffffffffffffffffffffffffffff16815260200190815260200160002060010154604051808473ffffffffffffffffffffffffffffffffffffffff1673ffffffffffffffffffffffffffffffffffffffff168152602001838152602001828152602001935050505060405180910390a1505050565b600460009054906101000a900460ff1681565b600a8181548110151561224a57fe5b90600052602060002090016000915054906101000a900473ffffffffffffffffffffffffffffffffffffffff1681565b600080828401905083811015151561228e57fe5b8091505092915050565b60008282111515156122a657fe5b818303905092915050565b60008060006122c68660018601600a0a6122ef565b9150600a60056122d68488612322565b018115156122e057fe5b04905080925050509392505050565b60008082840290506000841480612310575082848281151561230d57fe5b04145b151561231857fe5b8091505092915050565b600080828481151561233057fe5b0490508091505092915050565b60c060405190810160405280600015158152602001600015158152602001600015158152602001600081526020016000815260200161237a6124c0565b81525090565b828054600181600116156101000203166002900490600052602060002090601f016020900481019282601f106123c157805160ff19168380011785556123ef565b828001600101855582156123ef579182015b828111156123ee5782518255916020019190600101906123d3565b5b5090506123fc91906124d4565b5090565b8154818355818115116124275781836000526020600020918201910161242691906124d4565b5b505050565b602060405190810160405280600081525090565b828054600181600116156101000203166002900490600052602060002090601f016020900481019282601f1061248157805160ff19168380011785556124af565b828001600101855582156124af579182015b828111156124ae578251825591602001919060010190612493565b5b5090506124bc91906124d4565b5090565b602060405190810160405280600081525090565b6124f691905b808211156124f25760008160009055506001016124da565b5090565b905600a165627a7a72305820ba8cd610f30f2150c91410e4870d083808bca4fd6e095fc1dd1be9401b4c42b60029",
  "source": "pragma solidity ^0.4.15;\n\n/**\n * @title Doneth (Doneth)\n * @dev Doneth is a contract that allows members of a project\n * to share donations. Project supporters can submit donations.\n * The admins of the contract determine who is a member, and each\n * member gets a number of shares. The number of shares each \n * member has determines how much Ether the member can withdraw \n * from the contract. \n */\ncontract Doneth {\n    using SafeMath for uint256;  \n\n    // Address of the contract creator\n    address public founder;\n\n    // Name of the contract\n    string public name;\n\n    // Sum of all shares allocated to members\n    uint256 public totalShares;\n\n    // Sum of all withdrawals done by members\n    uint256 public totalWithdrawn;\n\n    // Variables to be used in the future \n    bool public incrementShares;\n    uint256 public incrementInterval;\n\n    // Block number of when the contract was created\n    uint256 public genesisBlockNumber;\n\n    // Number of decimal places for floating point division\n    uint256 constant public PRECISION = 18;\n\n    // Variables for shared expense allocation\n    uint256 public sharedExpense;\n    uint256 public sharedExpenseWithdrawn;\n\n    // Used to keep track of members\n    mapping(address => Member) public members;\n    address[] public memberKeys;\n\n    struct Member {\n        bool exists;\n        bool active;\n        bool admin;\n        uint256 shares;\n        uint256 withdrawn;\n        string memberName;\n    }\n\n    function Doneth(string _contractName, string _founderName) {\n        name = _contractName;\n        founder = msg.sender;\n        genesisBlockNumber = block.number;\n        addMember(msg.sender, 1, true, _founderName);\n    }\n\n    event Deposit(address from, uint value);\n    event Withdraw(address from, uint value, uint256 newTotalWithdrawn);\n    event AddShare(address who, uint256 addedShares, uint256 newTotalShares);\n    event RemoveShare(address who, uint256 removedShares, uint256 newTotalShares);\n    event Division(uint256 num, uint256 balance, uint256 shares);\n    event ChangePrivilege(address who, bool oldValue, bool newValue);\n    event ChangeContractName(string oldValue, string newValue);\n    event ChangeSharedExpense(uint256 contractBalance, uint256 oldValue, uint256 newValue);\n    event WithdrawSharedExpense(address from, uint value, uint256 newSharedExpenseWithdrawn);\n\n    // Fallback function accepts Ether from donators\n    function () public payable {\n        Deposit(msg.sender, msg.value);\n    }\n\n    modifier onlyAdmin() { \n        if (msg.sender != founder && !members[msg.sender].admin) revert();   \n        _;\n    }\n\n    modifier onlyExisting(address who) { \n        if (!members[who].exists) revert(); \n        _;\n    }\n\n    modifier onlyFounder() { \n        if (msg.sender != founder) revert();\n        _;\n    }\n\n    // Series of getter functions for contract data\n    function getMemberCount() constant returns(uint) {\n        return memberKeys.length;\n    }\n    \n    function getMemberAtKey(uint key) constant returns(address) {\n        return memberKeys[key];\n    }\n    \n    function getBalance() constant returns(uint256 balance) {\n        return this.balance;\n    }\n    \n    function getFounder() constant returns(address) {\n        return founder;\n    }\n\n    function getSharedExpense() constant returns(uint256) {\n        return sharedExpense;\n    }\n\n    function getSharedExpenseWithdrawn() constant returns(uint256) {\n        return sharedExpenseWithdrawn;\n    }\n\n    function getContractInfo() constant returns(string, address, uint256, uint256, uint256) {\n        return (name, founder, genesisBlockNumber, totalShares, totalWithdrawn);\n    }\n    \n    function returnMember (address _address) constant onlyExisting(_address) returns(bool active, bool admin, uint256 shares, uint256 withdrawn, string memberName) {\n      Member memory m = members[_address];\n      return (m.active, m.admin, m.shares, m.withdrawn, m.memberName);\n    }\n\n    // Function to add members to the contract \n    function addMember(address who, uint256 shares, bool admin, string memberName) public onlyAdmin() {\n        // Don't allow the same member to be added twice\n        if (members[who].exists) revert();\n\n        Member memory newMember;\n        newMember.exists = true;\n        newMember.admin = admin;\n        newMember.active = true;\n        newMember.memberName = memberName;\n\n        members[who] = newMember;\n        memberKeys.push(who);\n        addShare(who, shares);\n    }\n\n    // Only founder can change admin privileges of members; other admins cannot change other admins\n    function changeAdminPrivilege(address who, bool newValue) public onlyFounder() {\n        bool oldValue = members[who].admin;\n        members[who].admin = newValue; \n        ChangePrivilege(who, oldValue, newValue);\n    }\n\n    // Only founder can change the contract name\n    function changeContractName(string newName) public onlyFounder() {\n        string storage oldName = name;\n        name = newName;\n        ChangeContractName(oldName, newName);\n    }\n\n    // Shared expense allocation allows all members to withdraw an amount to be used for shared\n    // expenses. Shared expense allocation subtracts from the withdrawable amount each member \n    // can withdraw based on shares. Only founder can change this amount.\n    function changeSharedExpenseAllocation(uint256 newAllocation) public onlyFounder() {\n        if (newAllocation > this.balance) revert();\n\n        uint256 oldAllocation = sharedExpense;\n        sharedExpense = newAllocation;\n        ChangeSharedExpense(this.balance, oldAllocation, newAllocation);\n    }\n\n    // Increment the number of shares for a member\n    function addShare(address who, uint256 amount) public onlyAdmin() onlyExisting(who) {\n        totalShares = totalShares.add(amount);\n        members[who].shares = members[who].shares.add(amount);\n        AddShare(who, amount, members[who].shares);\n    }\n\n    // Decrement the number of shares for a member\n    function removeShare(address who, uint256 amount) public onlyAdmin() onlyExisting(who) {\n        totalShares = totalShares.sub(amount);\n        members[who].shares = members[who].shares.sub(amount);\n        RemoveShare(who, amount, members[who].shares);\n    }\n\n    // Function for a member to withdraw Ether from the contract proportional\n    // to the amount of shares they have. Calculates the totalWithdrawableAmount\n    // in Ether based on the member's share and the Ether balance of the contract,\n    // then subtracts the amount of Ether that the member has already previously\n    // withdrawn.\n    function withdraw(uint256 amount) public onlyExisting(msg.sender) {\n        uint256 newTotal = calculateTotalWithdrawableAmount(msg.sender);\n        if (amount > newTotal.sub(members[msg.sender].withdrawn)) revert();\n        \n        members[msg.sender].withdrawn = members[msg.sender].withdrawn.add(amount);\n        totalWithdrawn = totalWithdrawn.add(amount);\n        msg.sender.transfer(amount);\n        Withdraw(msg.sender, amount, totalWithdrawn);\n    }\n\n    // Withdraw from shared expense allocation. Total withdrawable is calculated as \n    // sharedExpense - sharedExpenseWithdrawn.\n    function withdrawSharedExpense(uint256 amount, address to) public onlyAdmin() onlyExisting(msg.sender) {\n        if (amount > calculateTotalExpenseWithdrawableAmount()) revert();\n        \n        sharedExpenseWithdrawn = sharedExpenseWithdrawn.add(amount);\n        to.transfer(amount);\n        WithdrawSharedExpense(msg.sender, amount, sharedExpenseWithdrawn);\n    }\n\n    function calculateTotalExpenseWithdrawableAmount() public constant returns(uint256) {\n        return sharedExpense.sub(sharedExpenseWithdrawn);\n    }\n\n    // Converts from shares to Eth.\n    // Ex: 100 shares, 1000 total shares, 100 Eth balance\n    // 100 Eth / 1000 total shares = 1/10 eth per share * 100 shares = 10 Eth to cash out\n    function calculateTotalWithdrawableAmount(address who) public constant onlyExisting(who) returns (uint256) {\n        // Total balance to calculate share from = \n        // contract balance + totalWithdrawn - sharedExpense + sharedExpenseWithdrawn\n        uint256 balanceSum = this.balance.add(totalWithdrawn);\n        balanceSum = balanceSum.sub(sharedExpense);\n        balanceSum = balanceSum.add(sharedExpenseWithdrawn);\n        \n        // Need to use parts-per notation to compute percentages for lack of floating point division\n        uint256 ethPerSharePPN = balanceSum.percent(totalShares, PRECISION); \n        uint256 ethPPN = ethPerSharePPN.mul(members[who].shares);\n        uint256 ethVal = ethPPN.div(10**PRECISION); \n        Division(ethVal, balanceSum, totalShares);\n        return ethVal;\n    }\n\n    // Used for testing\n    function delegatePercent(uint256 a, uint256 b, uint256 c) public constant returns (uint256) {\n        return a.percent(b, c);\n    }\n}\n\n/**\n * @title SafeMath\n * @dev Math operations with safety checks that throw on error\n */\nlibrary SafeMath {\n    function mul(uint256 a, uint256 b) internal constant returns (uint256) {\n        uint256 c = a * b;\n        assert(a == 0 || c / a == b);\n        return c;\n    }\n\n    function div(uint256 a, uint256 b) internal constant returns (uint256) {\n        // assert(b > 0); // Solidity automatically throws when dividing by 0\n        uint256 c = a / b;\n        // assert(a == b * c + a % b); // There is no case in which this doesn't hold\n        return c;\n    }\n\n    function sub(uint256 a, uint256 b) internal constant returns (uint256) {\n        assert(b <= a);\n        return a - b;\n    }\n\n    function add(uint256 a, uint256 b) internal constant returns (uint256) {\n        uint256 c = a + b;\n        assert(c >= a);\n        return c;\n    }\n\n    // Using from SO: https://stackoverflow.com/questions/42738640/division-in-ethereum-solidity/42739843#42739843\n    // Adapted to use SafeMath and uint256.\n    function percent(uint256 numerator, uint256 denominator, uint256 precision) internal constant returns(uint256 quotient) {\n        // caution, check safe-to-multiply here\n        uint256 _numerator = mul(numerator, 10 ** (precision+1));\n        // with rounding of last digit\n        uint256 _quotient = (div(_numerator, denominator) + 5) / 10;\n        return (_quotient);\n    }\n}\n\n",
  "sourcePath": "/Users/billy/vue/doneth/contracts/Doneth.sol",
  "compiler": {
    "name": "solc",
    "version": "0.4.18+commit.9cf6e910.Emscripten.clang"
  },
  "schemaVersion": "1.0.1",
  "updatedAt": "2017-11-04T16:17:53.500Z"
}