{
  "contractName": "Doneth",
  "abi": [
    {
      "constant": true,
      "inputs": [],
      "name": "genesisBlockNumber",
      "outputs": [
        {
          "name": "",
          "type": "uint256"
        }
      ],
      "payable": false,
      "stateMutability": "view",
      "type": "function"
    },
    {
      "constant": true,
      "inputs": [],
      "name": "name",
      "outputs": [
        {
          "name": "",
          "type": "string"
        }
      ],
      "payable": false,
      "stateMutability": "view",
      "type": "function"
    },
    {
      "constant": true,
      "inputs": [
        {
          "name": "",
          "type": "address"
        }
      ],
      "name": "members",
      "outputs": [
        {
          "name": "exists",
          "type": "bool"
        },
        {
          "name": "admin",
          "type": "bool"
        },
        {
          "name": "shares",
          "type": "uint256"
        },
        {
          "name": "withdrawn",
          "type": "uint256"
        },
        {
          "name": "memberName",
          "type": "string"
        }
      ],
      "payable": false,
      "stateMutability": "view",
      "type": "function"
    },
    {
      "constant": true,
      "inputs": [],
      "name": "initialized",
      "outputs": [
        {
          "name": "",
          "type": "bool"
        }
      ],
      "payable": false,
      "stateMutability": "view",
      "type": "function"
    },
    {
      "constant": true,
      "inputs": [
        {
          "name": "",
          "type": "uint256"
        }
      ],
      "name": "tokenKeys",
      "outputs": [
        {
          "name": "",
          "type": "address"
        }
      ],
      "payable": false,
      "stateMutability": "view",
      "type": "function"
    },
    {
      "constant": true,
      "inputs": [],
      "name": "totalShares",
      "outputs": [
        {
          "name": "",
          "type": "uint256"
        }
      ],
      "payable": false,
      "stateMutability": "view",
      "type": "function"
    },
    {
      "constant": true,
      "inputs": [],
      "name": "totalWithdrawn",
      "outputs": [
        {
          "name": "",
          "type": "uint256"
        }
      ],
      "payable": false,
      "stateMutability": "view",
      "type": "function"
    },
    {
      "constant": true,
      "inputs": [],
      "name": "sharedExpenseWithdrawn",
      "outputs": [
        {
          "name": "",
          "type": "uint256"
        }
      ],
      "payable": false,
      "stateMutability": "view",
      "type": "function"
    },
    {
      "constant": true,
      "inputs": [],
      "name": "owner",
      "outputs": [
        {
          "name": "",
          "type": "address"
        }
      ],
      "payable": false,
      "stateMutability": "view",
      "type": "function"
    },
    {
      "constant": true,
      "inputs": [],
      "name": "sharedExpense",
      "outputs": [
        {
          "name": "",
          "type": "uint256"
        }
      ],
      "payable": false,
      "stateMutability": "view",
      "type": "function"
    },
    {
      "constant": true,
      "inputs": [],
      "name": "PRECISION",
      "outputs": [
        {
          "name": "",
          "type": "uint256"
        }
      ],
      "payable": false,
      "stateMutability": "view",
      "type": "function"
    },
    {
      "constant": true,
      "inputs": [
        {
          "name": "",
          "type": "address"
        }
      ],
      "name": "tokens",
      "outputs": [
        {
          "name": "exists",
          "type": "bool"
        },
        {
          "name": "totalWithdrawn",
          "type": "uint256"
        }
      ],
      "payable": false,
      "stateMutability": "view",
      "type": "function"
    },
    {
      "constant": false,
      "inputs": [
        {
          "name": "newOwner",
          "type": "address"
        }
      ],
      "name": "transferOwnership",
      "outputs": [],
      "payable": false,
      "stateMutability": "nonpayable",
      "type": "function"
    },
    {
      "constant": true,
      "inputs": [
        {
          "name": "",
          "type": "uint256"
        }
      ],
      "name": "memberKeys",
      "outputs": [
        {
          "name": "",
          "type": "address"
        }
      ],
      "payable": false,
      "stateMutability": "view",
      "type": "function"
    },
    {
      "payable": true,
      "stateMutability": "payable",
      "type": "fallback"
    },
    {
      "anonymous": false,
      "inputs": [
        {
          "indexed": false,
          "name": "from",
          "type": "address"
        },
        {
          "indexed": false,
          "name": "value",
          "type": "uint256"
        }
      ],
      "name": "Deposit",
      "type": "event"
    },
    {
      "anonymous": false,
      "inputs": [
        {
          "indexed": false,
          "name": "from",
          "type": "address"
        },
        {
          "indexed": false,
          "name": "value",
          "type": "uint256"
        },
        {
          "indexed": false,
          "name": "newTotalWithdrawn",
          "type": "uint256"
        }
      ],
      "name": "Withdraw",
      "type": "event"
    },
    {
      "anonymous": false,
      "inputs": [
        {
          "indexed": false,
          "name": "from",
          "type": "address"
        },
        {
          "indexed": false,
          "name": "value",
          "type": "uint256"
        },
        {
          "indexed": false,
          "name": "token",
          "type": "address"
        },
        {
          "indexed": false,
          "name": "amount",
          "type": "uint256"
        }
      ],
      "name": "TokenWithdraw",
      "type": "event"
    },
    {
      "anonymous": false,
      "inputs": [
        {
          "indexed": false,
          "name": "who",
          "type": "address"
        },
        {
          "indexed": false,
          "name": "addedShares",
          "type": "uint256"
        },
        {
          "indexed": false,
          "name": "newTotalShares",
          "type": "uint256"
        }
      ],
      "name": "AddShare",
      "type": "event"
    },
    {
      "anonymous": false,
      "inputs": [
        {
          "indexed": false,
          "name": "who",
          "type": "address"
        },
        {
          "indexed": false,
          "name": "removedShares",
          "type": "uint256"
        },
        {
          "indexed": false,
          "name": "newTotalShares",
          "type": "uint256"
        }
      ],
      "name": "RemoveShare",
      "type": "event"
    },
    {
      "anonymous": false,
      "inputs": [
        {
          "indexed": false,
          "name": "who",
          "type": "address"
        },
        {
          "indexed": false,
          "name": "oldValue",
          "type": "bool"
        },
        {
          "indexed": false,
          "name": "newValue",
          "type": "bool"
        }
      ],
      "name": "ChangePrivilege",
      "type": "event"
    },
    {
      "anonymous": false,
      "inputs": [
        {
          "indexed": false,
          "name": "oldValue",
          "type": "string"
        },
        {
          "indexed": false,
          "name": "newValue",
          "type": "string"
        }
      ],
      "name": "ChangeContractName",
      "type": "event"
    },
    {
      "anonymous": false,
      "inputs": [
        {
          "indexed": false,
          "name": "who",
          "type": "address"
        },
        {
          "indexed": false,
          "name": "oldValue",
          "type": "string"
        },
        {
          "indexed": false,
          "name": "newValue",
          "type": "string"
        }
      ],
      "name": "ChangeMemberName",
      "type": "event"
    },
    {
      "anonymous": false,
      "inputs": [
        {
          "indexed": false,
          "name": "contractBalance",
          "type": "uint256"
        },
        {
          "indexed": false,
          "name": "oldValue",
          "type": "uint256"
        },
        {
          "indexed": false,
          "name": "newValue",
          "type": "uint256"
        }
      ],
      "name": "ChangeSharedExpense",
      "type": "event"
    },
    {
      "anonymous": false,
      "inputs": [
        {
          "indexed": false,
          "name": "from",
          "type": "address"
        },
        {
          "indexed": false,
          "name": "to",
          "type": "address"
        },
        {
          "indexed": false,
          "name": "value",
          "type": "uint256"
        },
        {
          "indexed": false,
          "name": "newSharedExpenseWithdrawn",
          "type": "uint256"
        }
      ],
      "name": "WithdrawSharedExpense",
      "type": "event"
    },
    {
      "constant": false,
      "inputs": [
        {
          "name": "_contractName",
          "type": "string"
        },
        {
          "name": "_founderName",
          "type": "string"
        }
      ],
      "name": "init",
      "outputs": [],
      "payable": false,
      "stateMutability": "nonpayable",
      "type": "function"
    },
    {
      "constant": true,
      "inputs": [],
      "name": "getMemberCount",
      "outputs": [
        {
          "name": "",
          "type": "uint256"
        }
      ],
      "payable": false,
      "stateMutability": "view",
      "type": "function"
    },
    {
      "constant": true,
      "inputs": [
        {
          "name": "key",
          "type": "uint256"
        }
      ],
      "name": "getMemberAtKey",
      "outputs": [
        {
          "name": "",
          "type": "address"
        }
      ],
      "payable": false,
      "stateMutability": "view",
      "type": "function"
    },
    {
      "constant": true,
      "inputs": [],
      "name": "getBalance",
      "outputs": [
        {
          "name": "balance",
          "type": "uint256"
        }
      ],
      "payable": false,
      "stateMutability": "view",
      "type": "function"
    },
    {
      "constant": true,
      "inputs": [],
      "name": "getContractInfo",
      "outputs": [
        {
          "name": "name",
          "type": "string"
        },
        {
          "name": "owner",
          "type": "address"
        },
        {
          "name": "genesisBlockNumber",
          "type": "uint256"
        },
        {
          "name": "totalShares",
          "type": "uint256"
        },
        {
          "name": "totalWithdrawn",
          "type": "uint256"
        }
      ],
      "payable": false,
      "stateMutability": "view",
      "type": "function"
    },
    {
      "constant": true,
      "inputs": [
        {
          "name": "_address",
          "type": "address"
        }
      ],
      "name": "returnMember",
      "outputs": [
        {
          "name": "admin",
          "type": "bool"
        },
        {
          "name": "shares",
          "type": "uint256"
        },
        {
          "name": "withdrawn",
          "type": "uint256"
        },
        {
          "name": "memberName",
          "type": "string"
        }
      ],
      "payable": false,
      "stateMutability": "view",
      "type": "function"
    },
    {
      "constant": true,
      "inputs": [
        {
          "name": "token",
          "type": "address"
        }
      ],
      "name": "checkERC20Balance",
      "outputs": [
        {
          "name": "",
          "type": "uint256"
        }
      ],
      "payable": false,
      "stateMutability": "view",
      "type": "function"
    },
    {
      "constant": false,
      "inputs": [
        {
          "name": "who",
          "type": "address"
        },
        {
          "name": "shares",
          "type": "uint256"
        },
        {
          "name": "admin",
          "type": "bool"
        },
        {
          "name": "memberName",
          "type": "string"
        }
      ],
      "name": "addMember",
      "outputs": [],
      "payable": false,
      "stateMutability": "nonpayable",
      "type": "function"
    },
    {
      "constant": false,
      "inputs": [
        {
          "name": "who",
          "type": "address"
        },
        {
          "name": "shares",
          "type": "uint256"
        },
        {
          "name": "isAdmin",
          "type": "bool"
        },
        {
          "name": "name",
          "type": "string"
        }
      ],
      "name": "updateMember",
      "outputs": [],
      "payable": false,
      "stateMutability": "nonpayable",
      "type": "function"
    },
    {
      "constant": false,
      "inputs": [
        {
          "name": "who",
          "type": "address"
        },
        {
          "name": "newName",
          "type": "string"
        }
      ],
      "name": "changeMemberName",
      "outputs": [],
      "payable": false,
      "stateMutability": "nonpayable",
      "type": "function"
    },
    {
      "constant": false,
      "inputs": [
        {
          "name": "who",
          "type": "address"
        },
        {
          "name": "newValue",
          "type": "bool"
        }
      ],
      "name": "changeAdminPrivilege",
      "outputs": [],
      "payable": false,
      "stateMutability": "nonpayable",
      "type": "function"
    },
    {
      "constant": false,
      "inputs": [
        {
          "name": "newName",
          "type": "string"
        }
      ],
      "name": "changeContractName",
      "outputs": [],
      "payable": false,
      "stateMutability": "nonpayable",
      "type": "function"
    },
    {
      "constant": false,
      "inputs": [
        {
          "name": "newAllocation",
          "type": "uint256"
        }
      ],
      "name": "changeSharedExpenseAllocation",
      "outputs": [],
      "payable": false,
      "stateMutability": "nonpayable",
      "type": "function"
    },
    {
      "constant": false,
      "inputs": [
        {
          "name": "who",
          "type": "address"
        },
        {
          "name": "amount",
          "type": "uint256"
        }
      ],
      "name": "allocateShares",
      "outputs": [],
      "payable": false,
      "stateMutability": "nonpayable",
      "type": "function"
    },
    {
      "constant": false,
      "inputs": [
        {
          "name": "who",
          "type": "address"
        },
        {
          "name": "amount",
          "type": "uint256"
        }
      ],
      "name": "addShare",
      "outputs": [],
      "payable": false,
      "stateMutability": "nonpayable",
      "type": "function"
    },
    {
      "constant": false,
      "inputs": [
        {
          "name": "who",
          "type": "address"
        },
        {
          "name": "amount",
          "type": "uint256"
        }
      ],
      "name": "removeShare",
      "outputs": [],
      "payable": false,
      "stateMutability": "nonpayable",
      "type": "function"
    },
    {
      "constant": false,
      "inputs": [
        {
          "name": "amount",
          "type": "uint256"
        }
      ],
      "name": "withdraw",
      "outputs": [],
      "payable": false,
      "stateMutability": "nonpayable",
      "type": "function"
    },
    {
      "constant": false,
      "inputs": [
        {
          "name": "amount",
          "type": "uint256"
        },
        {
          "name": "token",
          "type": "address"
        }
      ],
      "name": "withdrawToken",
      "outputs": [],
      "payable": false,
      "stateMutability": "nonpayable",
      "type": "function"
    },
    {
      "constant": false,
      "inputs": [
        {
          "name": "amount",
          "type": "uint256"
        },
        {
          "name": "to",
          "type": "address"
        }
      ],
      "name": "withdrawSharedExpense",
      "outputs": [],
      "payable": false,
      "stateMutability": "nonpayable",
      "type": "function"
    },
    {
      "constant": true,
      "inputs": [
        {
          "name": "who",
          "type": "address"
        }
      ],
      "name": "calculateTotalWithdrawableAmount",
      "outputs": [
        {
          "name": "",
          "type": "uint256"
        }
      ],
      "payable": false,
      "stateMutability": "view",
      "type": "function"
    },
    {
      "constant": true,
      "inputs": [
        {
          "name": "who",
          "type": "address"
        },
        {
          "name": "token",
          "type": "address"
        }
      ],
      "name": "calculateTotalWithdrawableTokenAmount",
      "outputs": [
        {
          "name": "",
          "type": "uint256"
        }
      ],
      "payable": false,
      "stateMutability": "view",
      "type": "function"
    },
    {
      "constant": true,
      "inputs": [],
      "name": "calculateTotalExpenseWithdrawableAmount",
      "outputs": [
        {
          "name": "",
          "type": "uint256"
        }
      ],
      "payable": false,
      "stateMutability": "view",
      "type": "function"
    },
    {
      "constant": true,
      "inputs": [
        {
          "name": "a",
          "type": "uint256"
        },
        {
          "name": "b",
          "type": "uint256"
        },
        {
          "name": "c",
          "type": "uint256"
        }
      ],
      "name": "delegatePercent",
      "outputs": [
        {
          "name": "",
          "type": "uint256"
        }
      ],
      "payable": false,
      "stateMutability": "view",
      "type": "function"
    }
  ],
  "bytecode": "0x6080604052326000806101000a81548173ffffffffffffffffffffffffffffffffffffffff021916908373ffffffffffffffffffffffffffffffffffffffff160217905550613c71806100536000396000f3006080604052600436106101cd576000357c0100000000000000000000000000000000000000000000000000000000900463ffffffff1680630356fe3a1461023a57806306fdde031461026557806308ae4b0c146102f55780630d6d1437146103d557806312065fe01461045e5780631468fc2614610489578063158ef93e146104b657806324e2ca92146104e55780632e1a7d4d146105325780632f0ae5131461055f578063346692b7146105d6578063389435e8146106435780633a98ef391461069a5780634a914e8c146106c55780634b319713146106f057806350f4f9f81461071b5780635ea40983146107685780636e2fd470146108075780637029144c146108325780637cc1f867146108e15780637d22f431146109b957806380056b5b14610a0e57806385dcbb5a14610a5d5780638da5cb5b14610b325780638e2a647014610b89578063997072f714610bd65780639b3bc6fb14610c015780639d21328f14610c58578063aaf5eb6814610c83578063ad3cd88314610cae578063aec8fae814610d17578063be4b177214610d84578063c06474e014610dd1578063e486033914610e1e578063f2fde38b14610e80578063f504b08914610ec3578063fac2548b14610f30575b7fe1fffcc4923d04b559f4d29a8bfc6cda04eb5b0d3c460751c2402c5c5cc9109c3334604051808373ffffffffffffffffffffffffffffffffffffffff1673ffffffffffffffffffffffffffffffffffffffff1681526020018281526020019250505060405180910390a1005b34801561024657600080fd5b5061024f610fcf565b6040518082815260200191505060405180910390f35b34801561027157600080fd5b5061027a610fd5565b6040518080602001828103825283818151815260200191508051906020019080838360005b838110156102ba57808201518184015260208101905061029f565b50505050905090810190601f1680156102e75780820380516001836020036101000a031916815260200191505b509250505060405180910390f35b34801561030157600080fd5b50610336600480360381019080803573ffffffffffffffffffffffffffffffffffffffff169060200190929190505050611073565b60405180861515151581526020018515151515815260200184815260200183815260200180602001828103825283818151815260200191508051906020019080838360005b8381101561039657808201518184015260208101905061037b565b50505050905090810190601f1680156103c35780820380516001836020036101000a031916815260200191505b50965050505050505060405180910390f35b3480156103e157600080fd5b5061045c600480360381019080803573ffffffffffffffffffffffffffffffffffffffff169060200190929190803590602001908201803590602001908080601f016020809104026020016040519081016040528093929190818152602001838380828437820191505050505050919291929050505061115b565b005b34801561046a57600080fd5b506104736114a9565b6040518082815260200191505060405180910390f35b34801561049557600080fd5b506104b4600480360381019080803590602001909291905050506114c8565b005b3480156104c257600080fd5b506104cb61162b565b604051808215151515815260200191505060405180910390f35b3480156104f157600080fd5b5061053060048036038101908080359060200190929190803573ffffffffffffffffffffffffffffffffffffffff16906020019092919050505061163e565b005b34801561053e57600080fd5b5061055d60048036038101908080359060200190929190505050611815565b005b34801561056b57600080fd5b506105c0600480360381019080803573ffffffffffffffffffffffffffffffffffffffff169060200190929190803573ffffffffffffffffffffffffffffffffffffffff169060200190929190505050611a56565b6040518082815260200191505060405180910390f35b3480156105e257600080fd5b5061060160048036038101908080359060200190929190505050611b54565b604051808273ffffffffffffffffffffffffffffffffffffffff1673ffffffffffffffffffffffffffffffffffffffff16815260200191505060405180910390f35b34801561064f57600080fd5b50610684600480360381019080803573ffffffffffffffffffffffffffffffffffffffff169060200190929190505050611b92565b6040518082815260200191505060405180910390f35b3480156106a657600080fd5b506106af611ce9565b6040518082815260200191505060405180910390f35b3480156106d157600080fd5b506106da611cef565b6040518082815260200191505060405180910390f35b3480156106fc57600080fd5b50610705611d0d565b6040518082815260200191505060405180910390f35b34801561072757600080fd5b50610766600480360381019080803573ffffffffffffffffffffffffffffffffffffffff16906020019092919080359060200190929190505050611d13565b005b34801561077457600080fd5b50610805600480360381019080803573ffffffffffffffffffffffffffffffffffffffff16906020019092919080359060200190929190803515159060200190929190803590602001908201803590602001908080601f0160208091040260200160405190810160405280939291908181526020018383808284378201915050505050509192919290505050611f93565b005b34801561081357600080fd5b5061081c61220d565b6040518082815260200191505060405180910390f35b34801561083e57600080fd5b506108df600480360381019080803590602001908201803590602001908080601f0160208091040260200160405190810160405280939291908181526020018383808284378201915050505050509192919290803590602001908201803590602001908080601f0160208091040260200160405190810160405280939291908181526020018383808284378201915050505050509192919290505050612213565b005b3480156108ed57600080fd5b506108f66125ef565b60405180806020018673ffffffffffffffffffffffffffffffffffffffff1673ffffffffffffffffffffffffffffffffffffffff168152602001858152602001848152602001838152602001828103825287818151815260200191508051906020019080838360005b8381101561097a57808201518184015260208101905061095f565b50505050905090810190601f1680156109a75780820380516001836020036101000a031916815260200191505b50965050505050505060405180910390f35b3480156109c557600080fd5b506109f8600480360381019080803590602001909291908035906020019092919080359060200190929190505050612610565b6040518082815260200191505060405180910390f35b348015610a1a57600080fd5b50610a5b600480360381019080803573ffffffffffffffffffffffffffffffffffffffff169060200190929190803515159060200190929190505050612630565b005b348015610a6957600080fd5b50610a9e600480360381019080803573ffffffffffffffffffffffffffffffffffffffff16906020019092919050505061280b565b604051808515151515815260200184815260200183815260200180602001828103825283818151815260200191508051906020019080838360005b83811015610af4578082015181840152602081019050610ad9565b50505050905090810190601f168015610b215780820380516001836020036101000a031916815260200191505b509550505050505060405180910390f35b348015610b3e57600080fd5b50610b476129d7565b604051808273ffffffffffffffffffffffffffffffffffffffff1673ffffffffffffffffffffffffffffffffffffffff16815260200191505060405180910390f35b348015610b9557600080fd5b50610bd4600480360381019080803573ffffffffffffffffffffffffffffffffffffffff169060200190929190803590602001909291905050506129fc565b005b348015610be257600080fd5b50610beb612bac565b6040518082815260200191505060405180910390f35b348015610c0d57600080fd5b50610c42600480360381019080803573ffffffffffffffffffffffffffffffffffffffff169060200190929190505050612bb9565b6040518082815260200191505060405180910390f35b348015610c6457600080fd5b50610c6d612c98565b6040518082815260200191505060405180910390f35b348015610c8f57600080fd5b50610c98612c9e565b6040518082815260200191505060405180910390f35b348015610cba57600080fd5b50610d15600480360381019080803590602001908201803590602001908080601f0160208091040260200160405190810160405280939291908181526020018383808284378201915050505050509192919290505050612ca3565b005b348015610d2357600080fd5b50610d4260048036038101908080359060200190929190505050612ea7565b604051808273ffffffffffffffffffffffffffffffffffffffff1673ffffffffffffffffffffffffffffffffffffffff16815260200191505060405180910390f35b348015610d9057600080fd5b50610dcf60048036038101908080359060200190929190803573ffffffffffffffffffffffffffffffffffffffff169060200190929190505050612eea565b005b348015610ddd57600080fd5b50610e1c600480360381019080803573ffffffffffffffffffffffffffffffffffffffff16906020019092919080359060200190929190505050613370565b005b348015610e2a57600080fd5b50610e5f600480360381019080803573ffffffffffffffffffffffffffffffffffffffff1690602001909291905050506135f0565b60405180831515151581526020018281526020019250505060405180910390f35b348015610e8c57600080fd5b50610ec1600480360381019080803573ffffffffffffffffffffffffffffffffffffffff169060200190929190505050613621565b005b348015610ecf57600080fd5b50610eee6004803603810190808035906020019092919050505061374d565b604051808273ffffffffffffffffffffffffffffffffffffffff1673ffffffffffffffffffffffffffffffffffffffff16815260200191505060405180910390f35b348015610f3c57600080fd5b50610fcd600480360381019080803573ffffffffffffffffffffffffffffffffffffffff16906020019092919080359060200190929190803515159060200190929190803590602001908201803590602001908080601f016020809104026020016040519081016040528093929190818152602001838380828437820191505050505050919291929050505061378b565b005b60045481565b60018054600181600116156101000203166002900480601f01602080910402602001604051908101604052809291908181526020018280546001816001161561010002031660029004801561106b5780601f106110405761010080835404028352916020019161106b565b820191906000526020600020905b81548152906001019060200180831161104e57829003601f168201915b505050505081565b60076020528060005260406000206000915090508060000160009054906101000a900460ff16908060000160019054906101000a900460ff1690806001015490806002015490806003018054600181600116156101000203166002900480601f0160208091040260200160405190810160405280929190818152602001828054600181600116156101000203166002900480156111515780601f1061112657610100808354040283529160200191611151565b820191906000526020600020905b81548152906001019060200180831161113457829003601f168201915b5050505050905085565b81600760008273ffffffffffffffffffffffffffffffffffffffff1673ffffffffffffffffffffffffffffffffffffffff16815260200190815260200160002060000160009054906101000a900460ff1615156111b757600080fd5b8273ffffffffffffffffffffffffffffffffffffffff163373ffffffffffffffffffffffffffffffffffffffff161415801561124057506000809054906101000a900473ffffffffffffffffffffffffffffffffffffffff1673ffffffffffffffffffffffffffffffffffffffff163373ffffffffffffffffffffffffffffffffffffffff1614155b80156112995750600760003373ffffffffffffffffffffffffffffffffffffffff1673ffffffffffffffffffffffffffffffffffffffff16815260200190815260200160002060000160019054906101000a900460ff16155b156112a357600080fd5b6015825111156112b257600080fd5b7f154ad3f744d3641de12f5e012773b0126c47d1ffda727e5a61a2e6db8bb2cb5583600760008673ffffffffffffffffffffffffffffffffffffffff1673ffffffffffffffffffffffffffffffffffffffff16815260200190815260200160002060030184604051808473ffffffffffffffffffffffffffffffffffffffff1673ffffffffffffffffffffffffffffffffffffffff16815260200180602001806020018381038352858181546001816001161561010002031660029004815260200191508054600181600116156101000203166002900480156113d65780601f106113ab576101008083540402835291602001916113d6565b820191906000526020600020905b8154815290600101906020018083116113b957829003601f168201915b5050838103825284818151815260200191508051906020019080838360005b838110156114105780820151818401526020810190506113f5565b50505050905090810190601f16801561143d5780820380516001836020036101000a031916815260200191505b509550505050505060405180910390a181600760008573ffffffffffffffffffffffffffffffffffffffff1673ffffffffffffffffffffffffffffffffffffffff16815260200190815260200160002060030190805190602001906114a3929190613aec565b50505050565b60003073ffffffffffffffffffffffffffffffffffffffff1631905090565b6000809054906101000a900473ffffffffffffffffffffffffffffffffffffffff1673ffffffffffffffffffffffffffffffffffffffff163373ffffffffffffffffffffffffffffffffffffffff16148061156f57506000809054906101000a900473ffffffffffffffffffffffffffffffffffffffff1673ffffffffffffffffffffffffffffffffffffffff163273ffffffffffffffffffffffffffffffffffffffff16145b151561157a57600080fd5b60065481101561158957600080fd5b3073ffffffffffffffffffffffffffffffffffffffff16316115b660065483613a2990919063ffffffff16565b11156115c157600080fd5b7f5b3ea9617f529540e1c3e0beb0e01c060418c2d1fe48d369afe3d47beaa037cf3073ffffffffffffffffffffffffffffffffffffffff16316005548360405180848152602001838152602001828152602001935050505060405180910390a18060058190555050565b600060149054906101000a900460ff1681565b6000809054906101000a900473ffffffffffffffffffffffffffffffffffffffff1673ffffffffffffffffffffffffffffffffffffffff163373ffffffffffffffffffffffffffffffffffffffff16141580156116e85750600760003373ffffffffffffffffffffffffffffffffffffffff1673ffffffffffffffffffffffffffffffffffffffff16815260200190815260200160002060000160019054906101000a900460ff16155b156116f257600080fd5b6116fa611cef565b82111561170657600080fd5b61171b82600654613a4290919063ffffffff16565b6006819055508073ffffffffffffffffffffffffffffffffffffffff166108fc839081150290604051600060405180830381858888f19350505050158015611767573d6000803e3d6000fd5b507f223162e752821eb7bd44782f73723defb6e3a087a9afc4d3d4af13783f7b6aca338284600654604051808573ffffffffffffffffffffffffffffffffffffffff1673ffffffffffffffffffffffffffffffffffffffff1681526020018473ffffffffffffffffffffffffffffffffffffffff1673ffffffffffffffffffffffffffffffffffffffff16815260200183815260200182815260200194505050505060405180910390a15050565b600033600760008273ffffffffffffffffffffffffffffffffffffffff1673ffffffffffffffffffffffffffffffffffffffff16815260200190815260200160002060000160009054906101000a900460ff16151561187357600080fd5b61187c33611b92565b91506118d3600760003373ffffffffffffffffffffffffffffffffffffffff1673ffffffffffffffffffffffffffffffffffffffff1681526020019081526020016000206002015483613a2990919063ffffffff16565b8311156118df57600080fd5b61193483600760003373ffffffffffffffffffffffffffffffffffffffff1673ffffffffffffffffffffffffffffffffffffffff16815260200190815260200160002060020154613a4290919063ffffffff16565b600760003373ffffffffffffffffffffffffffffffffffffffff1673ffffffffffffffffffffffffffffffffffffffff1681526020019081526020016000206002018190555061198f83600354613a4290919063ffffffff16565b6003819055503373ffffffffffffffffffffffffffffffffffffffff166108fc849081150290604051600060405180830381858888f193505050501580156119db573d6000803e3d6000fd5b507ff279e6a1f5e320cca91135676d9cb6e44ca8a08c0b88342bcdb1144f6511b5683384600354604051808473ffffffffffffffffffffffffffffffffffffffff1673ffffffffffffffffffffffffffffffffffffffff168152602001838152602001828152602001935050505060405180910390a1505050565b6000806000806000611abb600960008873ffffffffffffffffffffffffffffffffffffffff1673ffffffffffffffffffffffffffffffffffffffff16815260200190815260200160002060010154611aad88612bb9565b613a4290919063ffffffff16565b9350611ad5600254601286613a609092919063ffffffff16565b9250611b2c600760008973ffffffffffffffffffffffffffffffffffffffff1673ffffffffffffffffffffffffffffffffffffffff1681526020019081526020016000206001015484613a9e90919063ffffffff16565b9150611b456012600a0a83613ad190919063ffffffff16565b90508094505050505092915050565b600a81815481101515611b6357fe5b906000526020600020016000915054906101000a900473ffffffffffffffffffffffffffffffffffffffff1681565b600080600080600085600760008273ffffffffffffffffffffffffffffffffffffffff1673ffffffffffffffffffffffffffffffffffffffff16815260200190815260200160002060000160009054906101000a900460ff161515611bf657600080fd5b611c226003543073ffffffffffffffffffffffffffffffffffffffff1631613a4290919063ffffffff16565b9450611c3960055486613a2990919063ffffffff16565b9450611c5060065486613a4290919063ffffffff16565b9450611c6a600254601287613a609092919063ffffffff16565b9350611cc1600760008973ffffffffffffffffffffffffffffffffffffffff1673ffffffffffffffffffffffffffffffffffffffff1681526020019081526020016000206001015485613a9e90919063ffffffff16565b9250611cda6012600a0a84613ad190919063ffffffff16565b91508195505050505050919050565b60025481565b6000611d08600654600554613a2990919063ffffffff16565b905090565b60035481565b6000809054906101000a900473ffffffffffffffffffffffffffffffffffffffff1673ffffffffffffffffffffffffffffffffffffffff163373ffffffffffffffffffffffffffffffffffffffff1614158015611dbd5750600760003373ffffffffffffffffffffffffffffffffffffffff1673ffffffffffffffffffffffffffffffffffffffff16815260200190815260200160002060000160019054906101000a900460ff16155b15611dc757600080fd5b81600760008273ffffffffffffffffffffffffffffffffffffffff1673ffffffffffffffffffffffffffffffffffffffff16815260200190815260200160002060000160009054906101000a900460ff161515611e2357600080fd5b611e3882600254613a4290919063ffffffff16565b600281905550611e9382600760008673ffffffffffffffffffffffffffffffffffffffff1673ffffffffffffffffffffffffffffffffffffffff16815260200190815260200160002060010154613a4290919063ffffffff16565b600760008573ffffffffffffffffffffffffffffffffffffffff1673ffffffffffffffffffffffffffffffffffffffff168152602001908152602001600020600101819055507f0d0d4d1bc5a254e66ec692f9d1a4452fed4b59a3a1ba48b1a991838e5c7c4b8a8383600760008773ffffffffffffffffffffffffffffffffffffffff1673ffffffffffffffffffffffffffffffffffffffff16815260200190815260200160002060010154604051808473ffffffffffffffffffffffffffffffffffffffff1673ffffffffffffffffffffffffffffffffffffffff168152602001838152602001828152602001935050505060405180910390a1505050565b611f9b613b6c565b6000809054906101000a900473ffffffffffffffffffffffffffffffffffffffff1673ffffffffffffffffffffffffffffffffffffffff163373ffffffffffffffffffffffffffffffffffffffff16141580156120455750600760003373ffffffffffffffffffffffffffffffffffffffff1673ffffffffffffffffffffffffffffffffffffffff16815260200190815260200160002060000160019054906101000a900460ff16155b1561204f57600080fd5b600760008673ffffffffffffffffffffffffffffffffffffffff1673ffffffffffffffffffffffffffffffffffffffff16815260200190815260200160002060000160009054906101000a900460ff16156120a957600080fd5b6015825111156120b857600080fd5b60018160000190151590811515815250508281602001901515908115158152505081816080018190525080600760008773ffffffffffffffffffffffffffffffffffffffff1673ffffffffffffffffffffffffffffffffffffffff16815260200190815260200160002060008201518160000160006101000a81548160ff02191690831515021790555060208201518160000160016101000a81548160ff02191690831515021790555060408201518160010155606082015181600201556080820151816003019080519060200190612192929190613ba0565b5090505060088590806001815401808255809150509060018203906000526020600020016000909192909190916101000a81548173ffffffffffffffffffffffffffffffffffffffff021916908373ffffffffffffffffffffffffffffffffffffffff160217905550506122068585611d13565b5050505050565b60065481565b61221b613b6c565b600060149054906101000a900460ff161515156122a0576040517f08c379a00000000000000000000000000000000000000000000000000000000081526004018080602001828103825260138152602001807f414c524541445920494e495449414c495a45440000000000000000000000000081525060200191505060405180910390fd5b6001600060146101000a81548160ff021916908315150217905550326000806101000a81548173ffffffffffffffffffffffffffffffffffffffff021916908373ffffffffffffffffffffffffffffffffffffffff1602179055504360048190555060158351111561231157600080fd5b60158251111561232057600080fd5b8260019080519060200190612336929190613aec565b506001816000019015159081151581525050600181602001901515908115158152505081816080018190525080600760003273ffffffffffffffffffffffffffffffffffffffff1673ffffffffffffffffffffffffffffffffffffffff16815260200190815260200160002060008201518160000160006101000a81548160ff02191690831515021790555060208201518160000160016101000a81548160ff02191690831515021790555060408201518160010155606082015181600201556080820151816003019080519060200190612412929190613ba0565b5090505060083290806001815401808255809150509060018203906000526020600020016000909192909190916101000a81548173ffffffffffffffffffffffffffffffffffffffff021916908373ffffffffffffffffffffffffffffffffffffffff160217905550506124926001600254613a4290919063ffffffff16565b6002819055506124ee6001600760003273ffffffffffffffffffffffffffffffffffffffff1673ffffffffffffffffffffffffffffffffffffffff16815260200190815260200160002060010154613a4290919063ffffffff16565b600760003273ffffffffffffffffffffffffffffffffffffffff1673ffffffffffffffffffffffffffffffffffffffff168152602001908152602001600020600101819055507f0d0d4d1bc5a254e66ec692f9d1a4452fed4b59a3a1ba48b1a991838e5c7c4b8a326001600760003273ffffffffffffffffffffffffffffffffffffffff1673ffffffffffffffffffffffffffffffffffffffff16815260200190815260200160002060010154604051808473ffffffffffffffffffffffffffffffffffffffff1673ffffffffffffffffffffffffffffffffffffffff168152602001838152602001828152602001935050505060405180910390a1505050565b60606000806000808484848484849450945094509450945094509091929394565b6000612627838386613a609092919063ffffffff16565b90509392505050565b6000809054906101000a900473ffffffffffffffffffffffffffffffffffffffff1673ffffffffffffffffffffffffffffffffffffffff163373ffffffffffffffffffffffffffffffffffffffff16141580156126da5750600760003373ffffffffffffffffffffffffffffffffffffffff1673ffffffffffffffffffffffffffffffffffffffff16815260200190815260200160002060000160019054906101000a900460ff16155b156126e457600080fd5b7eb763075216b1778fecb2719c6d2040ed88fdbe6092a9597de5df9d175c968a82600760008573ffffffffffffffffffffffffffffffffffffffff1673ffffffffffffffffffffffffffffffffffffffff16815260200190815260200160002060000160019054906101000a900460ff1683604051808473ffffffffffffffffffffffffffffffffffffffff1673ffffffffffffffffffffffffffffffffffffffff1681526020018315151515815260200182151515158152602001935050505060405180910390a180600760008473ffffffffffffffffffffffffffffffffffffffff1673ffffffffffffffffffffffffffffffffffffffff16815260200190815260200160002060000160016101000a81548160ff0219169083151502179055505050565b6000806000606061281a613b6c565b85600760008273ffffffffffffffffffffffffffffffffffffffff1673ffffffffffffffffffffffffffffffffffffffff16815260200190815260200160002060000160009054906101000a900460ff16151561287657600080fd5b600760008873ffffffffffffffffffffffffffffffffffffffff1673ffffffffffffffffffffffffffffffffffffffff16815260200190815260200160002060a060405190810160405290816000820160009054906101000a900460ff161515151581526020016000820160019054906101000a900460ff161515151581526020016001820154815260200160028201548152602001600382018054600181600116156101000203166002900480601f0160208091040260200160405190810160405280929190818152602001828054600181600116156101000203166002900480156129a45780601f10612979576101008083540402835291602001916129a4565b820191906000526020600020905b81548152906001019060200180831161298757829003601f168201915b50505050508152505091508160200151826040015183606001518460800151809050955095509550955050509193509193565b6000809054906101000a900473ffffffffffffffffffffffffffffffffffffffff1681565b60008060009054906101000a900473ffffffffffffffffffffffffffffffffffffffff1673ffffffffffffffffffffffffffffffffffffffff163373ffffffffffffffffffffffffffffffffffffffff1614158015612aa85750600760003373ffffffffffffffffffffffffffffffffffffffff1673ffffffffffffffffffffffffffffffffffffffff16815260200190815260200160002060000160019054906101000a900460ff16155b15612ab257600080fd5b82600760008273ffffffffffffffffffffffffffffffffffffffff1673ffffffffffffffffffffffffffffffffffffffff16815260200190815260200160002060000160009054906101000a900460ff161515612b0e57600080fd5b600760008573ffffffffffffffffffffffffffffffffffffffff1673ffffffffffffffffffffffffffffffffffffffff16815260200190815260200160002060010154915081831415612b6057600080fd5b81831115612b8957612b8484612b7f8486613a2990919063ffffffff16565b611d13565b612ba6565b612ba584612ba08585613a2990919063ffffffff16565b613370565b5b50505050565b6000600880549050905090565b60008173ffffffffffffffffffffffffffffffffffffffff166370a08231306040518263ffffffff167c0100000000000000000000000000000000000000000000000000000000028152600401808273ffffffffffffffffffffffffffffffffffffffff1673ffffffffffffffffffffffffffffffffffffffff168152602001915050602060405180830381600087803b158015612c5657600080fd5b505af1158015612c6a573d6000803e3d6000fd5b505050506040513d6020811015612c8057600080fd5b81019080805190602001909291905050509050919050565b60055481565b601281565b6000809054906101000a900473ffffffffffffffffffffffffffffffffffffffff1673ffffffffffffffffffffffffffffffffffffffff163373ffffffffffffffffffffffffffffffffffffffff1614158015612d4d5750600760003373ffffffffffffffffffffffffffffffffffffffff1673ffffffffffffffffffffffffffffffffffffffff16815260200190815260200160002060000160019054906101000a900460ff16155b15612d5757600080fd5b601581511115612d6657600080fd5b7f7244709f741ec5f1d637fd5a891de308c779d1023c0f3128595bb88bf571ef88600182604051808060200180602001838103835285818154600181600116156101000203166002900481526020019150805460018160011615610100020316600290048015612e175780601f10612dec57610100808354040283529160200191612e17565b820191906000526020600020905b815481529060010190602001808311612dfa57829003601f168201915b5050838103825284818151815260200191508051906020019080838360005b83811015612e51578082015181840152602081019050612e36565b50505050905090810190601f168015612e7e5780820380516001836020036101000a031916815260200191505b5094505050505060405180910390a18060019080519060200190612ea3929190613aec565b5050565b6000600882815481101515612eb857fe5b9060005260206000200160009054906101000a900473ffffffffffffffffffffffffffffffffffffffff169050919050565b600033600760008273ffffffffffffffffffffffffffffffffffffffff1673ffffffffffffffffffffffffffffffffffffffff16815260200190815260200160002060000160009054906101000a900460ff161515612f4857600080fd5b612f523384611a56565b9150612fe6600760003373ffffffffffffffffffffffffffffffffffffffff1673ffffffffffffffffffffffffffffffffffffffff16815260200190815260200160002060040160008573ffffffffffffffffffffffffffffffffffffffff1673ffffffffffffffffffffffffffffffffffffffff1681526020019081526020016000205483613a2990919063ffffffff16565b841115612ff257600080fd5b61308484600760003373ffffffffffffffffffffffffffffffffffffffff1673ffffffffffffffffffffffffffffffffffffffff16815260200190815260200160002060040160008673ffffffffffffffffffffffffffffffffffffffff1673ffffffffffffffffffffffffffffffffffffffff16815260200190815260200160002054613a4290919063ffffffff16565b600760003373ffffffffffffffffffffffffffffffffffffffff1673ffffffffffffffffffffffffffffffffffffffff16815260200190815260200160002060040160008573ffffffffffffffffffffffffffffffffffffffff1673ffffffffffffffffffffffffffffffffffffffff1681526020019081526020016000208190555061315c84600960008673ffffffffffffffffffffffffffffffffffffffff1673ffffffffffffffffffffffffffffffffffffffff16815260200190815260200160002060010154613a4290919063ffffffff16565b600960008573ffffffffffffffffffffffffffffffffffffffff1673ffffffffffffffffffffffffffffffffffffffff168152602001908152602001600020600101819055508273ffffffffffffffffffffffffffffffffffffffff1663a9059cbb33866040518363ffffffff167c0100000000000000000000000000000000000000000000000000000000028152600401808373ffffffffffffffffffffffffffffffffffffffff1673ffffffffffffffffffffffffffffffffffffffff16815260200182815260200192505050602060405180830381600087803b15801561324557600080fd5b505af1158015613259573d6000803e3d6000fd5b505050506040513d602081101561326f57600080fd5b8101908080519060200190929190505050507fffdaa1b8f229c4f9a0c79b712224a2ad8d3aa3c483c23a125f4b9c179870938d338585600960008873ffffffffffffffffffffffffffffffffffffffff1673ffffffffffffffffffffffffffffffffffffffff16815260200190815260200160002060010154604051808573ffffffffffffffffffffffffffffffffffffffff1673ffffffffffffffffffffffffffffffffffffffff1681526020018481526020018373ffffffffffffffffffffffffffffffffffffffff1673ffffffffffffffffffffffffffffffffffffffff16815260200182815260200194505050505060405180910390a150505050565b6000809054906101000a900473ffffffffffffffffffffffffffffffffffffffff1673ffffffffffffffffffffffffffffffffffffffff163373ffffffffffffffffffffffffffffffffffffffff161415801561341a5750600760003373ffffffffffffffffffffffffffffffffffffffff1673ffffffffffffffffffffffffffffffffffffffff16815260200190815260200160002060000160019054906101000a900460ff16155b1561342457600080fd5b81600760008273ffffffffffffffffffffffffffffffffffffffff1673ffffffffffffffffffffffffffffffffffffffff16815260200190815260200160002060000160009054906101000a900460ff16151561348057600080fd5b61349582600254613a2990919063ffffffff16565b6002819055506134f082600760008673ffffffffffffffffffffffffffffffffffffffff1673ffffffffffffffffffffffffffffffffffffffff16815260200190815260200160002060010154613a2990919063ffffffff16565b600760008573ffffffffffffffffffffffffffffffffffffffff1673ffffffffffffffffffffffffffffffffffffffff168152602001908152602001600020600101819055507f67d4e98c6b70fdfbb7305797bbb30889a736b9773c74f9557683ffacbd22d5a88383600760008773ffffffffffffffffffffffffffffffffffffffff1673ffffffffffffffffffffffffffffffffffffffff16815260200190815260200160002060010154604051808473ffffffffffffffffffffffffffffffffffffffff1673ffffffffffffffffffffffffffffffffffffffff168152602001838152602001828152602001935050505060405180910390a1505050565b60096020528060005260406000206000915090508060000160009054906101000a900460ff16908060010154905082565b6000809054906101000a900473ffffffffffffffffffffffffffffffffffffffff1673ffffffffffffffffffffffffffffffffffffffff163373ffffffffffffffffffffffffffffffffffffffff1614806136c857506000809054906101000a900473ffffffffffffffffffffffffffffffffffffffff1673ffffffffffffffffffffffffffffffffffffffff163273ffffffffffffffffffffffffffffffffffffffff16145b15156136d357600080fd5b600073ffffffffffffffffffffffffffffffffffffffff168173ffffffffffffffffffffffffffffffffffffffff1614151561374a57806000806101000a81548173ffffffffffffffffffffffffffffffffffffffff021916908373ffffffffffffffffffffffffffffffffffffffff1602179055505b50565b60088181548110151561375c57fe5b906000526020600020016000915054906101000a900473ffffffffffffffffffffffffffffffffffffffff1681565b6000809054906101000a900473ffffffffffffffffffffffffffffffffffffffff1673ffffffffffffffffffffffffffffffffffffffff163373ffffffffffffffffffffffffffffffffffffffff16141580156138355750600760003373ffffffffffffffffffffffffffffffffffffffff1673ffffffffffffffffffffffffffffffffffffffff16815260200190815260200160002060000160019054906101000a900460ff16155b1561383f57600080fd5b806040518082805190602001908083835b6020831015156138755780518252602082019150602081019050602083039250613850565b6001836020036101000a038019825116818451168082178552505050505050905001915050604051809103902060001916600760008673ffffffffffffffffffffffffffffffffffffffff1673ffffffffffffffffffffffffffffffffffffffff16815260200190815260200160002060030160405180828054600181600116156101000203166002900480156139435780601f10613921576101008083540402835291820191613943565b820191906000526020600020905b81548152906001019060200180831161392f575b505091505060405180910390206000191614151561396657613965848261115b565b5b811515600760008673ffffffffffffffffffffffffffffffffffffffff1673ffffffffffffffffffffffffffffffffffffffff16815260200190815260200160002060000160019054906101000a900460ff1615151415156139cd576139cc8483612630565b5b82600760008673ffffffffffffffffffffffffffffffffffffffff1673ffffffffffffffffffffffffffffffffffffffff16815260200190815260200160002060010154141515613a2357613a2284846129fc565b5b50505050565b6000828211151515613a3757fe5b818303905092915050565b6000808284019050838110151515613a5657fe5b8091505092915050565b6000806000613a758660018601600a0a613a9e565b9150600a6005613a858488613ad1565b01811515613a8f57fe5b04905080925050509392505050565b60008082840290506000841480613abf5750828482811515613abc57fe5b04145b1515613ac757fe5b8091505092915050565b6000808284811515613adf57fe5b0490508091505092915050565b828054600181600116156101000203166002900490600052602060002090601f016020900481019282601f10613b2d57805160ff1916838001178555613b5b565b82800160010185558215613b5b579182015b82811115613b5a578251825591602001919060010190613b3f565b5b509050613b689190613c20565b5090565b60a0604051908101604052806000151581526020016000151581526020016000815260200160008152602001606081525090565b828054600181600116156101000203166002900490600052602060002090601f016020900481019282601f10613be157805160ff1916838001178555613c0f565b82800160010185558215613c0f579182015b82811115613c0e578251825591602001919060010190613bf3565b5b509050613c1c9190613c20565b5090565b613c4291905b80821115613c3e576000816000905550600101613c26565b5090565b905600a165627a7a72305820a25a598a3c4867db366b2ec9ce950b735376cfa296d435919bc498b3fd1e2acb0029",
  "source": "pragma solidity ^0.4.15;\n\n/**\n * @title Doneth (Doneth)\n * @dev Doneth is a contract that allows shared access to funds\n * in the form of Ether and ERC20 tokens. It is especially relevant\n * to donation based projects. The admins of the contract determine \n * who is a member, and each member gets a number of shares. The \n * number of shares each member has determines how much Ether/ERC20 \n * the member can withdraw from the contract.\n */\n\n/*\n * Ownable\n *\n * Base contract with an owner.\n * Provides onlyOwner modifier, which prevents function from running\n * if it is called by anyone other than the owner.\n */\n\ncontract Ownable {\n    address public owner;\n\n    function Ownable() public {\n        owner = tx.origin;\n    }\n\n    modifier onlyOwner() {\n        require(msg.sender == owner || tx.origin == owner);\n        _;\n    }\n\n    function transferOwnership(address newOwner) onlyOwner public {\n        if (newOwner != address(0)) {\n            owner = newOwner;\n        }\n    }\n}\n\ncontract Doneth is Ownable {\n    using SafeMath for uint256;  \n\n    bool public initialized;\n\n    // Name of the contract\n    string public name;\n\n    // Sum of all shares allocated to members\n    uint256 public totalShares;\n\n    // Sum of all withdrawals done by members\n    uint256 public totalWithdrawn;\n\n    // Block number of when the contract was created\n    uint256 public genesisBlockNumber;\n\n    // Number of decimal places for floating point division\n    uint256 constant public PRECISION = 18;\n\n    // Variables for shared expense allocation\n    uint256 public sharedExpense;\n    uint256 public sharedExpenseWithdrawn;\n\n    // Used to keep track of members\n    mapping(address => Member) public members;\n    address[] public memberKeys;\n    struct Member {\n        bool exists;\n        bool admin;\n        uint256 shares;\n        uint256 withdrawn;\n        string memberName;\n        mapping(address => uint256) tokensWithdrawn;\n    }\n\n    // Used to keep track of ERC20 tokens used and how much withdrawn\n    mapping(address => Token) public tokens;\n    address[] public tokenKeys;\n    struct Token {\n        bool exists;\n        uint256 totalWithdrawn;\n    }\n\n    // constructor() public {\n    //     genesisBlockNumber = block.number;\n    //     addMember(tx.origin, 1, true, \"\");\n    // }\n\n\n    function init(string _contractName, string _founderName) public {\n        require(!initialized, \"ALREADY INITIALIZED\");\n        initialized = true;\n        owner = tx.origin;\n        genesisBlockNumber = block.number;\n        if (bytes(_contractName).length > 21) revert();\n        if (bytes(_founderName).length > 21) revert();\n        name = _contractName;\n        // addMember(founder, 1, true, _founderName);\n\n        Member memory newMember;\n        newMember.exists = true;\n        newMember.admin = true;\n        newMember.memberName = _founderName;\n\n        members[tx.origin] = newMember;\n        memberKeys.push(tx.origin);\n        // addShare(tx.origin, shares);\n        totalShares = totalShares.add(1);\n        members[tx.origin].shares = members[tx.origin].shares.add(1);\n        AddShare(tx.origin, 1, members[tx.origin].shares);\n        // AddShare(tx.origin, 1, members[tx.origin].shares);\n        // AddShare(msg.sender, 1, members[tx.origin].shares);\n    }\n\n    event Deposit(address from, uint value);\n    event Withdraw(address from, uint value, uint256 newTotalWithdrawn);\n    event TokenWithdraw(address from, uint value, address token, uint amount);\n    event AddShare(address who, uint256 addedShares, uint256 newTotalShares);\n    event RemoveShare(address who, uint256 removedShares, uint256 newTotalShares);\n    event ChangePrivilege(address who, bool oldValue, bool newValue);\n    event ChangeContractName(string oldValue, string newValue);\n    event ChangeMemberName(address who, string oldValue, string newValue);\n    event ChangeSharedExpense(uint256 contractBalance, uint256 oldValue, uint256 newValue);\n    event WithdrawSharedExpense(address from, address to, uint value, uint256 newSharedExpenseWithdrawn);\n\n    // Fallback function accepts Ether from donators\n    function () public payable {\n        Deposit(msg.sender, msg.value);\n    }\n\n    modifier onlyAdmin() { \n        if (msg.sender != owner && !members[msg.sender].admin) revert();   \n        _;\n    }\n\n    modifier onlyExisting(address who) { \n        if (!members[who].exists) revert(); \n        _;\n    }\n\n    // Series of getter functions for contract data\n    function getMemberCount() public constant returns(uint) {\n        return memberKeys.length;\n    }\n    \n    function getMemberAtKey(uint key) public constant returns(address) {\n        return memberKeys[key];\n    }\n    \n    function getBalance() public constant returns(uint256 balance) {\n        return this.balance;\n    }\n    \n    function getContractInfo() public constant returns(string name, address owner,  uint256 genesisBlockNumber,  uint256 totalShares,  uint256 totalWithdrawn) {\n        return (string(name), owner, genesisBlockNumber, totalShares, totalWithdrawn);\n    }\n    \n    function returnMember(address _address) public constant onlyExisting(_address) returns(bool admin, uint256 shares, uint256 withdrawn, string memberName) {\n      Member memory m = members[_address];\n      return (m.admin, m.shares, m.withdrawn, m.memberName);\n    }\n\n    function checkERC20Balance(address token) public constant returns(uint256) {\n        return ERC20(token).balanceOf(address(this));\n        // if (!tokens[token].exists && balance > 0) {\n        //     tokens[token].exists = true;\n        // }\n        // return balance;\n    }\n\n    // Function to add members to the contract \n    function addMember(address who, uint256 shares, bool admin, string memberName) public onlyAdmin() {\n        // Don't allow the same member to be added twice\n        if (members[who].exists) revert();\n        if (bytes(memberName).length > 21) revert();\n\n        Member memory newMember;\n        newMember.exists = true;\n        newMember.admin = admin;\n        newMember.memberName = memberName;\n\n        members[who] = newMember;\n        memberKeys.push(who);\n        addShare(who, shares);\n    }\n\n    function updateMember(address who, uint256 shares, bool isAdmin, string name) public onlyAdmin() {\n        if (sha3(members[who].memberName) != sha3(name)) changeMemberName(who, name);\n        if (members[who].admin != isAdmin) changeAdminPrivilege(who, isAdmin);\n        if (members[who].shares != shares) allocateShares(who, shares);\n    }\n\n    // Only owner, admin or member can change member's name\n    function changeMemberName(address who, string newName) public onlyExisting(who) {\n        if (msg.sender != who && msg.sender != owner && !members[msg.sender].admin) revert();\n        if (bytes(newName).length > 21) revert();\n        ChangeMemberName(who, members[who].memberName, newName);\n        members[who].memberName = newName;\n    }\n\n    function changeAdminPrivilege(address who, bool newValue) public onlyAdmin() {\n        ChangePrivilege(who, members[who].admin, newValue);\n        members[who].admin = newValue; \n    }\n\n    // Only admins and owners can change the contract name\n    function changeContractName(string newName) public onlyAdmin() {\n        if (bytes(newName).length > 21) revert();\n        ChangeContractName(name, newName);\n        name = newName;\n    }\n\n    // Shared expense allocation allows admins to withdraw an amount to be used for shared\n    // expenses. Shared expense allocation subtracts from the total balance of the contract. \n    // Only owner can change this amount.\n    function changeSharedExpenseAllocation(uint256 newAllocation) public onlyOwner() {\n        if (newAllocation < sharedExpenseWithdrawn) revert();\n        if (newAllocation.sub(sharedExpenseWithdrawn) > this.balance) revert();\n\n        ChangeSharedExpense(this.balance, sharedExpense, newAllocation);\n        sharedExpense = newAllocation;\n    }\n\n    // Set share amount explicitly by calculating difference then adding or removing accordingly\n    function allocateShares(address who, uint256 amount) public onlyAdmin() onlyExisting(who) {\n        uint256 currentShares = members[who].shares;\n        if (amount == currentShares) revert();\n        if (amount > currentShares) {\n            addShare(who, amount.sub(currentShares));\n        } else {\n            removeShare(who, currentShares.sub(amount));\n        }\n    }\n\n    // Increment the number of shares for a member\n    function addShare(address who, uint256 amount) public onlyAdmin() onlyExisting(who) {\n        totalShares = totalShares.add(amount);\n        members[who].shares = members[who].shares.add(amount);\n        AddShare(who, amount, members[who].shares);\n    }\n\n    // Decrement the number of shares for a member\n    function removeShare(address who, uint256 amount) public onlyAdmin() onlyExisting(who) {\n        totalShares = totalShares.sub(amount);\n        members[who].shares = members[who].shares.sub(amount);\n        RemoveShare(who, amount, members[who].shares);\n    }\n\n    // Function for a member to withdraw Ether from the contract proportional\n    // to the amount of shares they have. Calculates the totalWithdrawableAmount\n    // in Ether based on the member's share and the Ether balance of the contract,\n    // then subtracts the amount of Ether that the member has already previously\n    // withdrawn.\n    function withdraw(uint256 amount) public onlyExisting(msg.sender) {\n        uint256 newTotal = calculateTotalWithdrawableAmount(msg.sender);\n        if (amount > newTotal.sub(members[msg.sender].withdrawn)) revert();\n        \n        members[msg.sender].withdrawn = members[msg.sender].withdrawn.add(amount);\n        totalWithdrawn = totalWithdrawn.add(amount);\n        msg.sender.transfer(amount);\n        Withdraw(msg.sender, amount, totalWithdrawn);\n    }\n\n    // Withdrawal function for ERC20 tokens\n    function withdrawToken(uint256 amount, address token) public onlyExisting(msg.sender) {\n        uint256 newTotal = calculateTotalWithdrawableTokenAmount(msg.sender, token);\n        if (amount > newTotal.sub(members[msg.sender].tokensWithdrawn[token])) revert();\n\n        members[msg.sender].tokensWithdrawn[token] = members[msg.sender].tokensWithdrawn[token].add(amount);\n        tokens[token].totalWithdrawn = tokens[token].totalWithdrawn.add(amount);\n        ERC20(token).transfer(msg.sender, amount);\n        TokenWithdraw(msg.sender, amount, token, tokens[token].totalWithdrawn);\n    }\n\n    // Withdraw from shared expense allocation. Total withdrawable is calculated as \n    // sharedExpense minus sharedExpenseWithdrawn. Only Admin can withdraw from shared expense.\n    function withdrawSharedExpense(uint256 amount, address to) public onlyAdmin() {\n        if (amount > calculateTotalExpenseWithdrawableAmount()) revert();\n        \n        sharedExpenseWithdrawn = sharedExpenseWithdrawn.add(amount);\n        to.transfer(amount);\n        WithdrawSharedExpense(msg.sender, to, amount, sharedExpenseWithdrawn);\n    }\n\n    // Converts from shares to Eth.\n    // Ex: 2 shares, 4 total shares, 40 Eth balance\n    // 40 Eth / 4 total shares = 10 eth per share * 2 shares = 20 Eth to cash out\n    function calculateTotalWithdrawableAmount(address who) public constant onlyExisting(who) returns (uint256) {\n        // Total balance to calculate share from = \n        // contract balance + totalWithdrawn - sharedExpense + sharedExpenseWithdrawn\n        uint256 balanceSum = this.balance.add(totalWithdrawn);\n        balanceSum = balanceSum.sub(sharedExpense);\n        balanceSum = balanceSum.add(sharedExpenseWithdrawn);\n        \n        // Need to use parts-per notation to compute percentages for lack of floating point division\n        uint256 ethPerSharePPN = balanceSum.percent(totalShares, PRECISION); \n        uint256 ethPPN = ethPerSharePPN.mul(members[who].shares);\n        uint256 ethVal = ethPPN.div(10**PRECISION); \n        return ethVal;\n    }\n\n\n    function calculateTotalWithdrawableTokenAmount(address who, address token) public constant returns(uint256) {\n        uint256 balanceSum = checkERC20Balance(token).add(tokens[token].totalWithdrawn);\n\n        // Need to use parts-per notation to compute percentages for lack of floating point division\n        uint256 tokPerSharePPN = balanceSum.percent(totalShares, PRECISION); \n        uint256 tokPPN = tokPerSharePPN.mul(members[who].shares);\n        uint256 tokVal = tokPPN.div(10**PRECISION); \n        return tokVal;\n    }\n\n    function calculateTotalExpenseWithdrawableAmount() public constant returns(uint256) {\n        return sharedExpense.sub(sharedExpenseWithdrawn);\n    }\n\n    // Used for testing\n    function delegatePercent(uint256 a, uint256 b, uint256 c) public constant returns (uint256) {\n        return a.percent(b, c);\n    }\n}\n\n/**\n * @title ERC20Basic\n * @dev Simpler version of ERC20 interface\n * @dev see https://github.com/ethereum/EIPs/issues/179\n */\ncontract ERC20Basic {\n  uint256 public totalSupply;\n  function balanceOf(address who) public constant returns (uint256);\n  function transfer(address to, uint256 value) public returns (bool);\n  event Transfer(address indexed from, address indexed to, uint256 value);\n}\n\n\n/**\n * @title ERC20 interface\n * @dev see https://github.com/ethereum/EIPs/issues/20\n */\ncontract ERC20 is ERC20Basic {\n  function allowance(address owner, address spender) public constant returns (uint256);\n  function transferFrom(address from, address to, uint256 value) public returns (bool);\n  function approve(address spender, uint256 value) public returns (bool);\n  event Approval(address indexed owner, address indexed spender, uint256 value);\n}\n\n\n/**\n * @title SafeMath\n * @dev Math operations with safety checks that throw on error\n */\nlibrary SafeMath {\n    function mul(uint256 a, uint256 b) internal constant returns (uint256) {\n        uint256 c = a * b;\n        assert(a == 0 || c / a == b);\n        return c;\n    }\n\n    function div(uint256 a, uint256 b) internal constant returns (uint256) {\n        // assert(b > 0); // Solidity automatically throws when dividing by 0\n        uint256 c = a / b;\n        // assert(a == b * c + a % b); // There is no case in which this doesn't hold\n        return c;\n    }\n\n    function sub(uint256 a, uint256 b) internal constant returns (uint256) {\n        assert(b <= a);\n        return a - b;\n    }\n\n    function add(uint256 a, uint256 b) internal constant returns (uint256) {\n        uint256 c = a + b;\n        assert(c >= a);\n        return c;\n    }\n\n    // Using from SO: https://stackoverflow.com/questions/42738640/division-in-ethereum-solidity/42739843#42739843\n    // Adapted to use SafeMath and uint256.\n    function percent(uint256 numerator, uint256 denominator, uint256 precision) internal constant returns(uint256 quotient) {\n        // caution, check safe-to-multiply here\n        uint256 _numerator = mul(numerator, 10 ** (precision+1));\n        // with rounding of last digit\n        uint256 _quotient = (div(_numerator, denominator) + 5) / 10;\n        return (_quotient);\n    }\n}\n\n",
  "sourcePath": "/Users/billy/GitHub/okwme/doneth-v2/contracts/Doneth.sol",
  "compiler": {
    "name": "solc",
    "version": "0.4.24+commit.e67f0147.Emscripten.clang"
  },
  "schemaVersion": "3.3.2",
  "updatedAt": "2021-05-01T11:16:10.922Z",
  "networkType": "ethereum",
  "devdoc": {
    "methods": {}
  },
  "userdoc": {
    "methods": {}
  }
}