{
  "contractName": "Doneth",
  "abi": [
    {
      "constant": true,
      "inputs": [],
      "name": "genesisBlockNumber",
      "outputs": [
        {
          "name": "",
          "type": "uint256"
        }
      ],
      "payable": false,
      "stateMutability": "view",
      "type": "function"
    },
    {
      "constant": true,
      "inputs": [],
      "name": "name",
      "outputs": [
        {
          "name": "",
          "type": "string"
        }
      ],
      "payable": false,
      "stateMutability": "view",
      "type": "function"
    },
    {
      "constant": true,
      "inputs": [
        {
          "name": "",
          "type": "address"
        }
      ],
      "name": "members",
      "outputs": [
        {
          "name": "exists",
          "type": "bool"
        },
        {
          "name": "admin",
          "type": "bool"
        },
        {
          "name": "shares",
          "type": "uint256"
        },
        {
          "name": "withdrawn",
          "type": "uint256"
        },
        {
          "name": "memberName",
          "type": "string"
        }
      ],
      "payable": false,
      "stateMutability": "view",
      "type": "function"
    },
    {
      "constant": true,
      "inputs": [],
      "name": "initialized",
      "outputs": [
        {
          "name": "",
          "type": "bool"
        }
      ],
      "payable": false,
      "stateMutability": "view",
      "type": "function"
    },
    {
      "constant": true,
      "inputs": [],
      "name": "totalShares",
      "outputs": [
        {
          "name": "",
          "type": "uint256"
        }
      ],
      "payable": false,
      "stateMutability": "view",
      "type": "function"
    },
    {
      "constant": true,
      "inputs": [],
      "name": "totalWithdrawn",
      "outputs": [
        {
          "name": "",
          "type": "uint256"
        }
      ],
      "payable": false,
      "stateMutability": "view",
      "type": "function"
    },
    {
      "constant": true,
      "inputs": [],
      "name": "implementation",
      "outputs": [
        {
          "name": "",
          "type": "address"
        }
      ],
      "payable": false,
      "stateMutability": "view",
      "type": "function"
    },
    {
      "constant": true,
      "inputs": [],
      "name": "sharedExpenseWithdrawn",
      "outputs": [
        {
          "name": "",
          "type": "uint256"
        }
      ],
      "payable": false,
      "stateMutability": "view",
      "type": "function"
    },
    {
      "constant": true,
      "inputs": [],
      "name": "owner",
      "outputs": [
        {
          "name": "",
          "type": "address"
        }
      ],
      "payable": false,
      "stateMutability": "view",
      "type": "function"
    },
    {
      "constant": true,
      "inputs": [],
      "name": "sharedExpense",
      "outputs": [
        {
          "name": "",
          "type": "uint256"
        }
      ],
      "payable": false,
      "stateMutability": "view",
      "type": "function"
    },
    {
      "constant": true,
      "inputs": [],
      "name": "PRECISION",
      "outputs": [
        {
          "name": "",
          "type": "uint256"
        }
      ],
      "payable": false,
      "stateMutability": "view",
      "type": "function"
    },
    {
      "constant": true,
      "inputs": [
        {
          "name": "",
          "type": "address"
        }
      ],
      "name": "tokens",
      "outputs": [
        {
          "name": "",
          "type": "uint256"
        }
      ],
      "payable": false,
      "stateMutability": "view",
      "type": "function"
    },
    {
      "constant": true,
      "inputs": [
        {
          "name": "",
          "type": "uint256"
        }
      ],
      "name": "memberKeys",
      "outputs": [
        {
          "name": "",
          "type": "address"
        }
      ],
      "payable": false,
      "stateMutability": "view",
      "type": "function"
    },
    {
      "payable": true,
      "stateMutability": "payable",
      "type": "fallback"
    },
    {
      "anonymous": false,
      "inputs": [
        {
          "indexed": false,
          "name": "from",
          "type": "address"
        },
        {
          "indexed": false,
          "name": "value",
          "type": "uint256"
        }
      ],
      "name": "Deposit",
      "type": "event"
    },
    {
      "anonymous": false,
      "inputs": [
        {
          "indexed": false,
          "name": "from",
          "type": "address"
        },
        {
          "indexed": false,
          "name": "value",
          "type": "uint256"
        },
        {
          "indexed": false,
          "name": "newTotalWithdrawn",
          "type": "uint256"
        }
      ],
      "name": "Withdraw",
      "type": "event"
    },
    {
      "anonymous": false,
      "inputs": [
        {
          "indexed": false,
          "name": "from",
          "type": "address"
        },
        {
          "indexed": false,
          "name": "value",
          "type": "uint256"
        },
        {
          "indexed": false,
          "name": "token",
          "type": "address"
        },
        {
          "indexed": false,
          "name": "amount",
          "type": "uint256"
        }
      ],
      "name": "TokenWithdraw",
      "type": "event"
    },
    {
      "anonymous": false,
      "inputs": [
        {
          "indexed": false,
          "name": "who",
          "type": "address"
        },
        {
          "indexed": false,
          "name": "addedShares",
          "type": "uint256"
        },
        {
          "indexed": false,
          "name": "newTotalShares",
          "type": "uint256"
        }
      ],
      "name": "AddShare",
      "type": "event"
    },
    {
      "anonymous": false,
      "inputs": [
        {
          "indexed": false,
          "name": "who",
          "type": "address"
        },
        {
          "indexed": false,
          "name": "removedShares",
          "type": "uint256"
        },
        {
          "indexed": false,
          "name": "newTotalShares",
          "type": "uint256"
        }
      ],
      "name": "RemoveShare",
      "type": "event"
    },
    {
      "anonymous": false,
      "inputs": [
        {
          "indexed": false,
          "name": "who",
          "type": "address"
        },
        {
          "indexed": false,
          "name": "oldValue",
          "type": "bool"
        },
        {
          "indexed": false,
          "name": "newValue",
          "type": "bool"
        }
      ],
      "name": "ChangePrivilege",
      "type": "event"
    },
    {
      "anonymous": false,
      "inputs": [
        {
          "indexed": false,
          "name": "oldValue",
          "type": "string"
        },
        {
          "indexed": false,
          "name": "newValue",
          "type": "string"
        }
      ],
      "name": "ChangeContractName",
      "type": "event"
    },
    {
      "anonymous": false,
      "inputs": [
        {
          "indexed": false,
          "name": "who",
          "type": "address"
        },
        {
          "indexed": false,
          "name": "oldValue",
          "type": "string"
        },
        {
          "indexed": false,
          "name": "newValue",
          "type": "string"
        }
      ],
      "name": "ChangeMemberName",
      "type": "event"
    },
    {
      "anonymous": false,
      "inputs": [
        {
          "indexed": false,
          "name": "contractBalance",
          "type": "uint256"
        },
        {
          "indexed": false,
          "name": "oldValue",
          "type": "uint256"
        },
        {
          "indexed": false,
          "name": "newValue",
          "type": "uint256"
        }
      ],
      "name": "ChangeSharedExpense",
      "type": "event"
    },
    {
      "anonymous": false,
      "inputs": [
        {
          "indexed": false,
          "name": "from",
          "type": "address"
        },
        {
          "indexed": false,
          "name": "to",
          "type": "address"
        },
        {
          "indexed": false,
          "name": "value",
          "type": "uint256"
        },
        {
          "indexed": false,
          "name": "newSharedExpenseWithdrawn",
          "type": "uint256"
        }
      ],
      "name": "WithdrawSharedExpense",
      "type": "event"
    },
    {
      "constant": false,
      "inputs": [],
      "name": "Ownable",
      "outputs": [],
      "payable": false,
      "stateMutability": "nonpayable",
      "type": "function"
    },
    {
      "constant": false,
      "inputs": [
        {
          "name": "newOwner",
          "type": "address"
        }
      ],
      "name": "transferOwnership",
      "outputs": [],
      "payable": false,
      "stateMutability": "nonpayable",
      "type": "function"
    },
    {
      "constant": false,
      "inputs": [],
      "name": "init",
      "outputs": [],
      "payable": false,
      "stateMutability": "nonpayable",
      "type": "function"
    },
    {
      "constant": true,
      "inputs": [],
      "name": "getMemberCount",
      "outputs": [
        {
          "name": "",
          "type": "uint256"
        }
      ],
      "payable": false,
      "stateMutability": "view",
      "type": "function"
    },
    {
      "constant": true,
      "inputs": [
        {
          "name": "key",
          "type": "uint256"
        }
      ],
      "name": "getMemberAtKey",
      "outputs": [
        {
          "name": "",
          "type": "address"
        }
      ],
      "payable": false,
      "stateMutability": "view",
      "type": "function"
    },
    {
      "constant": true,
      "inputs": [],
      "name": "getBalance",
      "outputs": [
        {
          "name": "balance",
          "type": "uint256"
        }
      ],
      "payable": false,
      "stateMutability": "view",
      "type": "function"
    },
    {
      "constant": true,
      "inputs": [],
      "name": "getContractInfo",
      "outputs": [
        {
          "name": "name",
          "type": "string"
        },
        {
          "name": "owner",
          "type": "address"
        },
        {
          "name": "genesisBlockNumber",
          "type": "uint256"
        },
        {
          "name": "totalShares",
          "type": "uint256"
        },
        {
          "name": "totalWithdrawn",
          "type": "uint256"
        }
      ],
      "payable": false,
      "stateMutability": "view",
      "type": "function"
    },
    {
      "constant": true,
      "inputs": [
        {
          "name": "_address",
          "type": "address"
        }
      ],
      "name": "returnMember",
      "outputs": [
        {
          "name": "admin",
          "type": "bool"
        },
        {
          "name": "shares",
          "type": "uint256"
        },
        {
          "name": "withdrawn",
          "type": "uint256"
        },
        {
          "name": "memberName",
          "type": "string"
        }
      ],
      "payable": false,
      "stateMutability": "view",
      "type": "function"
    },
    {
      "constant": true,
      "inputs": [
        {
          "name": "token",
          "type": "address"
        }
      ],
      "name": "checkERC20Balance",
      "outputs": [
        {
          "name": "",
          "type": "uint256"
        }
      ],
      "payable": false,
      "stateMutability": "view",
      "type": "function"
    },
    {
      "constant": false,
      "inputs": [
        {
          "name": "who",
          "type": "address"
        },
        {
          "name": "shares",
          "type": "uint256"
        },
        {
          "name": "admin",
          "type": "bool"
        },
        {
          "name": "memberName",
          "type": "string"
        }
      ],
      "name": "addMember",
      "outputs": [],
      "payable": false,
      "stateMutability": "nonpayable",
      "type": "function"
    },
    {
      "constant": false,
      "inputs": [
        {
          "name": "who",
          "type": "address"
        },
        {
          "name": "shares",
          "type": "uint256"
        },
        {
          "name": "isAdmin",
          "type": "bool"
        },
        {
          "name": "name",
          "type": "string"
        }
      ],
      "name": "updateMember",
      "outputs": [],
      "payable": false,
      "stateMutability": "nonpayable",
      "type": "function"
    },
    {
      "constant": false,
      "inputs": [
        {
          "name": "who",
          "type": "address"
        },
        {
          "name": "newName",
          "type": "string"
        }
      ],
      "name": "changeMemberName",
      "outputs": [],
      "payable": false,
      "stateMutability": "nonpayable",
      "type": "function"
    },
    {
      "constant": false,
      "inputs": [
        {
          "name": "who",
          "type": "address"
        },
        {
          "name": "newValue",
          "type": "bool"
        }
      ],
      "name": "changeAdminPrivilege",
      "outputs": [],
      "payable": false,
      "stateMutability": "nonpayable",
      "type": "function"
    },
    {
      "constant": false,
      "inputs": [
        {
          "name": "newName",
          "type": "string"
        }
      ],
      "name": "changeContractName",
      "outputs": [],
      "payable": false,
      "stateMutability": "nonpayable",
      "type": "function"
    },
    {
      "constant": false,
      "inputs": [
        {
          "name": "newAllocation",
          "type": "uint256"
        }
      ],
      "name": "changeSharedExpenseAllocation",
      "outputs": [],
      "payable": false,
      "stateMutability": "nonpayable",
      "type": "function"
    },
    {
      "constant": false,
      "inputs": [
        {
          "name": "who",
          "type": "address"
        },
        {
          "name": "amount",
          "type": "uint256"
        }
      ],
      "name": "allocateShares",
      "outputs": [],
      "payable": false,
      "stateMutability": "nonpayable",
      "type": "function"
    },
    {
      "constant": false,
      "inputs": [
        {
          "name": "who",
          "type": "address"
        },
        {
          "name": "amount",
          "type": "uint256"
        }
      ],
      "name": "addShare",
      "outputs": [],
      "payable": false,
      "stateMutability": "nonpayable",
      "type": "function"
    },
    {
      "constant": false,
      "inputs": [
        {
          "name": "who",
          "type": "address"
        },
        {
          "name": "amount",
          "type": "uint256"
        }
      ],
      "name": "removeShare",
      "outputs": [],
      "payable": false,
      "stateMutability": "nonpayable",
      "type": "function"
    },
    {
      "constant": false,
      "inputs": [
        {
          "name": "amount",
          "type": "uint256"
        }
      ],
      "name": "withdraw",
      "outputs": [],
      "payable": false,
      "stateMutability": "nonpayable",
      "type": "function"
    },
    {
      "constant": false,
      "inputs": [
        {
          "name": "amount",
          "type": "uint256"
        },
        {
          "name": "token",
          "type": "address"
        }
      ],
      "name": "withdrawToken",
      "outputs": [],
      "payable": false,
      "stateMutability": "nonpayable",
      "type": "function"
    },
    {
      "constant": false,
      "inputs": [
        {
          "name": "amount",
          "type": "uint256"
        },
        {
          "name": "to",
          "type": "address"
        }
      ],
      "name": "withdrawSharedExpense",
      "outputs": [],
      "payable": false,
      "stateMutability": "nonpayable",
      "type": "function"
    },
    {
      "constant": true,
      "inputs": [
        {
          "name": "who",
          "type": "address"
        }
      ],
      "name": "calculateTotalWithdrawableAmount",
      "outputs": [
        {
          "name": "",
          "type": "uint256"
        }
      ],
      "payable": false,
      "stateMutability": "view",
      "type": "function"
    },
    {
      "constant": true,
      "inputs": [
        {
          "name": "who",
          "type": "address"
        },
        {
          "name": "token",
          "type": "address"
        }
      ],
      "name": "calculateTotalWithdrawableTokenAmount",
      "outputs": [
        {
          "name": "",
          "type": "uint256"
        }
      ],
      "payable": false,
      "stateMutability": "view",
      "type": "function"
    },
    {
      "constant": true,
      "inputs": [],
      "name": "calculateTotalExpenseWithdrawableAmount",
      "outputs": [
        {
          "name": "",
          "type": "uint256"
        }
      ],
      "payable": false,
      "stateMutability": "view",
      "type": "function"
    },
    {
      "constant": true,
      "inputs": [
        {
          "name": "a",
          "type": "uint256"
        },
        {
          "name": "b",
          "type": "uint256"
        },
        {
          "name": "c",
          "type": "uint256"
        }
      ],
      "name": "delegatePercent",
      "outputs": [
        {
          "name": "",
          "type": "uint256"
        }
      ],
      "payable": false,
      "stateMutability": "view",
      "type": "function"
    }
  ],
  "bytecode": "0x608060405234801561001057600080fd5b50613b45806100206000396000f3006080604052600436106101d8576000357c0100000000000000000000000000000000000000000000000000000000900463ffffffff1680630356fe3a1461024557806306fdde031461027057806308ae4b0c146103005780630d6d1437146103e057806312065fe0146104695780631468fc2614610494578063158ef93e146104c157806324e2ca92146104f05780632e1a7d4d1461053d5780632f0ae5131461056a578063389435e8146105e15780633a98ef39146106385780634a914e8c146106635780634b3197131461068e57806350f4f9f8146106b95780635c60da1b146107065780635ea409831461075d5780636e2fd470146107fc5780637cc1f867146108275780637d22f431146108ff57806380056b5b1461095457806385dcbb5a146109a35780638afc360514610a785780638da5cb5b14610a8f5780638e2a647014610ae6578063997072f714610b335780639b3bc6fb14610b5e5780639d21328f14610bb5578063aaf5eb6814610be0578063ad3cd88314610c0b578063aec8fae814610c74578063be4b177214610ce1578063c06474e014610d2e578063e1c7392a14610d7b578063e486033914610d92578063f2fde38b14610de9578063f504b08914610e2c578063fac2548b14610e99575b7fe1fffcc4923d04b559f4d29a8bfc6cda04eb5b0d3c460751c2402c5c5cc9109c3334604051808373ffffffffffffffffffffffffffffffffffffffff1673ffffffffffffffffffffffffffffffffffffffff1681526020018281526020019250505060405180910390a1005b34801561025157600080fd5b5061025a610f38565b6040518082815260200191505060405180910390f35b34801561027c57600080fd5b50610285610f3e565b6040518080602001828103825283818151815260200191508051906020019080838360005b838110156102c55780820151818401526020810190506102aa565b50505050905090810190601f1680156102f25780820380516001836020036101000a031916815260200191505b509250505060405180910390f35b34801561030c57600080fd5b50610341600480360381019080803573ffffffffffffffffffffffffffffffffffffffff169060200190929190505050610fdc565b60405180861515151581526020018515151515815260200184815260200183815260200180602001828103825283818151815260200191508051906020019080838360005b838110156103a1578082015181840152602081019050610386565b50505050905090810190601f1680156103ce5780820380516001836020036101000a031916815260200191505b50965050505050505060405180910390f35b3480156103ec57600080fd5b50610467600480360381019080803573ffffffffffffffffffffffffffffffffffffffff169060200190929190803590602001908201803590602001908080601f01602080910402602001604051908101604052809392919081815260200183838082843782019150505050505091929192905050506110c4565b005b34801561047557600080fd5b5061047e611413565b6040518082815260200191505060405180910390f35b3480156104a057600080fd5b506104bf60048036038101908080359060200190929190505050611432565b005b3480156104cd57600080fd5b506104d6611597565b604051808215151515815260200191505060405180910390f35b3480156104fc57600080fd5b5061053b60048036038101908080359060200190929190803573ffffffffffffffffffffffffffffffffffffffff1690602001909291905050506115aa565b005b34801561054957600080fd5b5061056860048036038101908080359060200190929190505050611782565b005b34801561057657600080fd5b506105cb600480360381019080803573ffffffffffffffffffffffffffffffffffffffff169060200190929190803573ffffffffffffffffffffffffffffffffffffffff1690602001909291905050506119c3565b6040518082815260200191505060405180910390f35b3480156105ed57600080fd5b50610622600480360381019080803573ffffffffffffffffffffffffffffffffffffffff169060200190929190505050611abe565b6040518082815260200191505060405180910390f35b34801561064457600080fd5b5061064d611c15565b6040518082815260200191505060405180910390f35b34801561066f57600080fd5b50610678611c1b565b6040518082815260200191505060405180910390f35b34801561069a57600080fd5b506106a3611c39565b6040518082815260200191505060405180910390f35b3480156106c557600080fd5b50610704600480360381019080803573ffffffffffffffffffffffffffffffffffffffff16906020019092919080359060200190929190505050611c3f565b005b34801561071257600080fd5b5061071b611ec0565b604051808273ffffffffffffffffffffffffffffffffffffffff1673ffffffffffffffffffffffffffffffffffffffff16815260200191505060405180910390f35b34801561076957600080fd5b506107fa600480360381019080803573ffffffffffffffffffffffffffffffffffffffff16906020019092919080359060200190929190803515159060200190929190803590602001908201803590602001908080601f0160208091040260200160405190810160405280939291908181526020018383808284378201915050505050509192919290505050611ee5565b005b34801561080857600080fd5b50610811612160565b6040518082815260200191505060405180910390f35b34801561083357600080fd5b5061083c612166565b60405180806020018673ffffffffffffffffffffffffffffffffffffffff1673ffffffffffffffffffffffffffffffffffffffff168152602001858152602001848152602001838152602001828103825287818151815260200191508051906020019080838360005b838110156108c05780820151818401526020810190506108a5565b50505050905090810190601f1680156108ed5780820380516001836020036101000a031916815260200191505b50965050505050505060405180910390f35b34801561090b57600080fd5b5061093e600480360381019080803590602001909291908035906020019092919080359060200190929190505050612187565b6040518082815260200191505060405180910390f35b34801561096057600080fd5b506109a1600480360381019080803573ffffffffffffffffffffffffffffffffffffffff1690602001909291908035151590602001909291905050506121a7565b005b3480156109af57600080fd5b506109e4600480360381019080803573ffffffffffffffffffffffffffffffffffffffff169060200190929190505050612383565b604051808515151515815260200184815260200183815260200180602001828103825283818151815260200191508051906020019080838360005b83811015610a3a578082015181840152602081019050610a1f565b50505050905090810190601f168015610a675780820380516001836020036101000a031916815260200191505b509550505050505060405180910390f35b348015610a8457600080fd5b50610a8d61254f565b005b348015610a9b57600080fd5b50610aa4612592565b604051808273ffffffffffffffffffffffffffffffffffffffff1673ffffffffffffffffffffffffffffffffffffffff16815260200191505060405180910390f35b348015610af257600080fd5b50610b31600480360381019080803573ffffffffffffffffffffffffffffffffffffffff169060200190929190803590602001909291905050506125b8565b005b348015610b3f57600080fd5b50610b48612769565b6040518082815260200191505060405180910390f35b348015610b6a57600080fd5b50610b9f600480360381019080803573ffffffffffffffffffffffffffffffffffffffff169060200190929190505050612776565b6040518082815260200191505060405180910390f35b348015610bc157600080fd5b50610bca612855565b6040518082815260200191505060405180910390f35b348015610bec57600080fd5b50610bf561285b565b6040518082815260200191505060405180910390f35b348015610c1757600080fd5b50610c72600480360381019080803590602001908201803590602001908080601f0160208091040260200160405190810160405280939291908181526020018383808284378201915050505050509192919290505050612860565b005b348015610c8057600080fd5b50610c9f60048036038101908080359060200190929190505050612a65565b604051808273ffffffffffffffffffffffffffffffffffffffff1673ffffffffffffffffffffffffffffffffffffffff16815260200191505060405180910390f35b348015610ced57600080fd5b50610d2c60048036038101908080359060200190929190803573ffffffffffffffffffffffffffffffffffffffff169060200190929190505050612aa8565b005b348015610d3a57600080fd5b50610d79600480360381019080803573ffffffffffffffffffffffffffffffffffffffff16906020019092919080359060200190929190505050612f25565b005b348015610d8757600080fd5b50610d906131a6565b005b348015610d9e57600080fd5b50610dd3600480360381019080803573ffffffffffffffffffffffffffffffffffffffff1690602001909291905050506134d9565b6040518082815260200191505060405180910390f35b348015610df557600080fd5b50610e2a600480360381019080803573ffffffffffffffffffffffffffffffffffffffff1690602001909291905050506134f1565b005b348015610e3857600080fd5b50610e5760048036038101908080359060200190929190505050613620565b604051808273ffffffffffffffffffffffffffffffffffffffff1673ffffffffffffffffffffffffffffffffffffffff16815260200191505060405180910390f35b348015610ea557600080fd5b50610f36600480360381019080803573ffffffffffffffffffffffffffffffffffffffff16906020019092919080359060200190929190803515159060200190929190803590602001908201803590602001908080601f016020809104026020016040519081016040528093929190818152602001838380828437820191505050505050919291929050505061365e565b005b60055481565b60028054600181600116156101000203166002900480601f016020809104026020016040519081016040528092919081815260200182805460018160011615610100020316600290048015610fd45780601f10610fa957610100808354040283529160200191610fd4565b820191906000526020600020905b815481529060010190602001808311610fb757829003601f168201915b505050505081565b60086020528060005260406000206000915090508060000160009054906101000a900460ff16908060000160019054906101000a900460ff1690806001015490806002015490806003018054600181600116156101000203166002900480601f0160208091040260200160405190810160405280929190818152602001828054600181600116156101000203166002900480156110ba5780601f1061108f576101008083540402835291602001916110ba565b820191906000526020600020905b81548152906001019060200180831161109d57829003601f168201915b5050505050905085565b81600860008273ffffffffffffffffffffffffffffffffffffffff1673ffffffffffffffffffffffffffffffffffffffff16815260200190815260200160002060000160009054906101000a900460ff16151561112057600080fd5b8273ffffffffffffffffffffffffffffffffffffffff163373ffffffffffffffffffffffffffffffffffffffff16141580156111aa5750600160009054906101000a900473ffffffffffffffffffffffffffffffffffffffff1673ffffffffffffffffffffffffffffffffffffffff163373ffffffffffffffffffffffffffffffffffffffff1614155b80156112035750600860003373ffffffffffffffffffffffffffffffffffffffff1673ffffffffffffffffffffffffffffffffffffffff16815260200190815260200160002060000160019054906101000a900460ff16155b1561120d57600080fd5b60158251111561121c57600080fd5b7f154ad3f744d3641de12f5e012773b0126c47d1ffda727e5a61a2e6db8bb2cb5583600860008673ffffffffffffffffffffffffffffffffffffffff1673ffffffffffffffffffffffffffffffffffffffff16815260200190815260200160002060030184604051808473ffffffffffffffffffffffffffffffffffffffff1673ffffffffffffffffffffffffffffffffffffffff16815260200180602001806020018381038352858181546001816001161561010002031660029004815260200191508054600181600116156101000203166002900480156113405780601f1061131557610100808354040283529160200191611340565b820191906000526020600020905b81548152906001019060200180831161132357829003601f168201915b5050838103825284818151815260200191508051906020019080838360005b8381101561137a57808201518184015260208101905061135f565b50505050905090810190601f1680156113a75780820380516001836020036101000a031916815260200191505b509550505050505060405180910390a181600860008573ffffffffffffffffffffffffffffffffffffffff1673ffffffffffffffffffffffffffffffffffffffff168152602001908152602001600020600301908051906020019061140d9291906139c0565b50505050565b60003073ffffffffffffffffffffffffffffffffffffffff1631905090565b600160009054906101000a900473ffffffffffffffffffffffffffffffffffffffff1673ffffffffffffffffffffffffffffffffffffffff163373ffffffffffffffffffffffffffffffffffffffff1614806114db5750600160009054906101000a900473ffffffffffffffffffffffffffffffffffffffff1673ffffffffffffffffffffffffffffffffffffffff163273ffffffffffffffffffffffffffffffffffffffff16145b15156114e657600080fd5b6007548110156114f557600080fd5b3073ffffffffffffffffffffffffffffffffffffffff1631611522600754836138fd90919063ffffffff16565b111561152d57600080fd5b7f5b3ea9617f529540e1c3e0beb0e01c060418c2d1fe48d369afe3d47beaa037cf3073ffffffffffffffffffffffffffffffffffffffff16316006548360405180848152602001838152602001828152602001935050505060405180910390a18060068190555050565b600160149054906101000a900460ff1681565b600160009054906101000a900473ffffffffffffffffffffffffffffffffffffffff1673ffffffffffffffffffffffffffffffffffffffff163373ffffffffffffffffffffffffffffffffffffffff16141580156116555750600860003373ffffffffffffffffffffffffffffffffffffffff1673ffffffffffffffffffffffffffffffffffffffff16815260200190815260200160002060000160019054906101000a900460ff16155b1561165f57600080fd5b611667611c1b565b82111561167357600080fd5b6116888260075461391690919063ffffffff16565b6007819055508073ffffffffffffffffffffffffffffffffffffffff166108fc839081150290604051600060405180830381858888f193505050501580156116d4573d6000803e3d6000fd5b507f223162e752821eb7bd44782f73723defb6e3a087a9afc4d3d4af13783f7b6aca338284600754604051808573ffffffffffffffffffffffffffffffffffffffff1673ffffffffffffffffffffffffffffffffffffffff1681526020018473ffffffffffffffffffffffffffffffffffffffff1673ffffffffffffffffffffffffffffffffffffffff16815260200183815260200182815260200194505050505060405180910390a15050565b600033600860008273ffffffffffffffffffffffffffffffffffffffff1673ffffffffffffffffffffffffffffffffffffffff16815260200190815260200160002060000160009054906101000a900460ff1615156117e057600080fd5b6117e933611abe565b9150611840600860003373ffffffffffffffffffffffffffffffffffffffff1673ffffffffffffffffffffffffffffffffffffffff16815260200190815260200160002060020154836138fd90919063ffffffff16565b83111561184c57600080fd5b6118a183600860003373ffffffffffffffffffffffffffffffffffffffff1673ffffffffffffffffffffffffffffffffffffffff1681526020019081526020016000206002015461391690919063ffffffff16565b600860003373ffffffffffffffffffffffffffffffffffffffff1673ffffffffffffffffffffffffffffffffffffffff168152602001908152602001600020600201819055506118fc8360045461391690919063ffffffff16565b6004819055503373ffffffffffffffffffffffffffffffffffffffff166108fc849081150290604051600060405180830381858888f19350505050158015611948573d6000803e3d6000fd5b507ff279e6a1f5e320cca91135676d9cb6e44ca8a08c0b88342bcdb1144f6511b5683384600454604051808473ffffffffffffffffffffffffffffffffffffffff1673ffffffffffffffffffffffffffffffffffffffff168152602001838152602001828152602001935050505060405180910390a1505050565b6000806000806000611a25600a60008873ffffffffffffffffffffffffffffffffffffffff1673ffffffffffffffffffffffffffffffffffffffff16815260200190815260200160002054611a1788612776565b61391690919063ffffffff16565b9350611a3f6003546012866139349092919063ffffffff16565b9250611a96600860008973ffffffffffffffffffffffffffffffffffffffff1673ffffffffffffffffffffffffffffffffffffffff168152602001908152602001600020600101548461397290919063ffffffff16565b9150611aaf6012600a0a836139a590919063ffffffff16565b90508094505050505092915050565b600080600080600085600860008273ffffffffffffffffffffffffffffffffffffffff1673ffffffffffffffffffffffffffffffffffffffff16815260200190815260200160002060000160009054906101000a900460ff161515611b2257600080fd5b611b4e6004543073ffffffffffffffffffffffffffffffffffffffff163161391690919063ffffffff16565b9450611b65600654866138fd90919063ffffffff16565b9450611b7c6007548661391690919063ffffffff16565b9450611b966003546012876139349092919063ffffffff16565b9350611bed600860008973ffffffffffffffffffffffffffffffffffffffff1673ffffffffffffffffffffffffffffffffffffffff168152602001908152602001600020600101548561397290919063ffffffff16565b9250611c066012600a0a846139a590919063ffffffff16565b91508195505050505050919050565b60035481565b6000611c346007546006546138fd90919063ffffffff16565b905090565b60045481565b600160009054906101000a900473ffffffffffffffffffffffffffffffffffffffff1673ffffffffffffffffffffffffffffffffffffffff163373ffffffffffffffffffffffffffffffffffffffff1614158015611cea5750600860003373ffffffffffffffffffffffffffffffffffffffff1673ffffffffffffffffffffffffffffffffffffffff16815260200190815260200160002060000160019054906101000a900460ff16155b15611cf457600080fd5b81600860008273ffffffffffffffffffffffffffffffffffffffff1673ffffffffffffffffffffffffffffffffffffffff16815260200190815260200160002060000160009054906101000a900460ff161515611d5057600080fd5b611d658260035461391690919063ffffffff16565b600381905550611dc082600860008673ffffffffffffffffffffffffffffffffffffffff1673ffffffffffffffffffffffffffffffffffffffff1681526020019081526020016000206001015461391690919063ffffffff16565b600860008573ffffffffffffffffffffffffffffffffffffffff1673ffffffffffffffffffffffffffffffffffffffff168152602001908152602001600020600101819055507f0d0d4d1bc5a254e66ec692f9d1a4452fed4b59a3a1ba48b1a991838e5c7c4b8a8383600860008773ffffffffffffffffffffffffffffffffffffffff1673ffffffffffffffffffffffffffffffffffffffff16815260200190815260200160002060010154604051808473ffffffffffffffffffffffffffffffffffffffff1673ffffffffffffffffffffffffffffffffffffffff168152602001838152602001828152602001935050505060405180910390a1505050565b6000809054906101000a900473ffffffffffffffffffffffffffffffffffffffff1681565b611eed613a40565b600160009054906101000a900473ffffffffffffffffffffffffffffffffffffffff1673ffffffffffffffffffffffffffffffffffffffff163373ffffffffffffffffffffffffffffffffffffffff1614158015611f985750600860003373ffffffffffffffffffffffffffffffffffffffff1673ffffffffffffffffffffffffffffffffffffffff16815260200190815260200160002060000160019054906101000a900460ff16155b15611fa257600080fd5b600860008673ffffffffffffffffffffffffffffffffffffffff1673ffffffffffffffffffffffffffffffffffffffff16815260200190815260200160002060000160009054906101000a900460ff1615611ffc57600080fd5b60158251111561200b57600080fd5b60018160000190151590811515815250508281602001901515908115158152505081816080018190525080600860008773ffffffffffffffffffffffffffffffffffffffff1673ffffffffffffffffffffffffffffffffffffffff16815260200190815260200160002060008201518160000160006101000a81548160ff02191690831515021790555060208201518160000160016101000a81548160ff021916908315150217905550604082015181600101556060820151816002015560808201518160030190805190602001906120e5929190613a74565b5090505060098590806001815401808255809150509060018203906000526020600020016000909192909190916101000a81548173ffffffffffffffffffffffffffffffffffffffff021916908373ffffffffffffffffffffffffffffffffffffffff160217905550506121598585611c3f565b5050505050565b60075481565b60606000806000808484848484849450945094509450945094509091929394565b600061219e8383866139349092919063ffffffff16565b90509392505050565b600160009054906101000a900473ffffffffffffffffffffffffffffffffffffffff1673ffffffffffffffffffffffffffffffffffffffff163373ffffffffffffffffffffffffffffffffffffffff16141580156122525750600860003373ffffffffffffffffffffffffffffffffffffffff1673ffffffffffffffffffffffffffffffffffffffff16815260200190815260200160002060000160019054906101000a900460ff16155b1561225c57600080fd5b7eb763075216b1778fecb2719c6d2040ed88fdbe6092a9597de5df9d175c968a82600860008573ffffffffffffffffffffffffffffffffffffffff1673ffffffffffffffffffffffffffffffffffffffff16815260200190815260200160002060000160019054906101000a900460ff1683604051808473ffffffffffffffffffffffffffffffffffffffff1673ffffffffffffffffffffffffffffffffffffffff1681526020018315151515815260200182151515158152602001935050505060405180910390a180600860008473ffffffffffffffffffffffffffffffffffffffff1673ffffffffffffffffffffffffffffffffffffffff16815260200190815260200160002060000160016101000a81548160ff0219169083151502179055505050565b60008060006060612392613a40565b85600860008273ffffffffffffffffffffffffffffffffffffffff1673ffffffffffffffffffffffffffffffffffffffff16815260200190815260200160002060000160009054906101000a900460ff1615156123ee57600080fd5b600860008873ffffffffffffffffffffffffffffffffffffffff1673ffffffffffffffffffffffffffffffffffffffff16815260200190815260200160002060a060405190810160405290816000820160009054906101000a900460ff161515151581526020016000820160019054906101000a900460ff161515151581526020016001820154815260200160028201548152602001600382018054600181600116156101000203166002900480601f01602080910402602001604051908101604052809291908181526020018280546001816001161561010002031660029004801561251c5780601f106124f15761010080835404028352916020019161251c565b820191906000526020600020905b8154815290600101906020018083116124ff57829003601f168201915b50505050508152505091508160200151826040015183606001518460800151809050955095509550955050509193509193565b32600160006101000a81548173ffffffffffffffffffffffffffffffffffffffff021916908373ffffffffffffffffffffffffffffffffffffffff160217905550565b600160009054906101000a900473ffffffffffffffffffffffffffffffffffffffff1681565b6000600160009054906101000a900473ffffffffffffffffffffffffffffffffffffffff1673ffffffffffffffffffffffffffffffffffffffff163373ffffffffffffffffffffffffffffffffffffffff16141580156126655750600860003373ffffffffffffffffffffffffffffffffffffffff1673ffffffffffffffffffffffffffffffffffffffff16815260200190815260200160002060000160019054906101000a900460ff16155b1561266f57600080fd5b82600860008273ffffffffffffffffffffffffffffffffffffffff1673ffffffffffffffffffffffffffffffffffffffff16815260200190815260200160002060000160009054906101000a900460ff1615156126cb57600080fd5b600860008573ffffffffffffffffffffffffffffffffffffffff1673ffffffffffffffffffffffffffffffffffffffff1681526020019081526020016000206001015491508183141561271d57600080fd5b81831115612746576127418461273c84866138fd90919063ffffffff16565b611c3f565b612763565b6127628461275d85856138fd90919063ffffffff16565b612f25565b5b50505050565b6000600980549050905090565b60008173ffffffffffffffffffffffffffffffffffffffff166370a08231306040518263ffffffff167c0100000000000000000000000000000000000000000000000000000000028152600401808273ffffffffffffffffffffffffffffffffffffffff1673ffffffffffffffffffffffffffffffffffffffff168152602001915050602060405180830381600087803b15801561281357600080fd5b505af1158015612827573d6000803e3d6000fd5b505050506040513d602081101561283d57600080fd5b81019080805190602001909291905050509050919050565b60065481565b601281565b600160009054906101000a900473ffffffffffffffffffffffffffffffffffffffff1673ffffffffffffffffffffffffffffffffffffffff163373ffffffffffffffffffffffffffffffffffffffff161415801561290b5750600860003373ffffffffffffffffffffffffffffffffffffffff1673ffffffffffffffffffffffffffffffffffffffff16815260200190815260200160002060000160019054906101000a900460ff16155b1561291557600080fd5b60158151111561292457600080fd5b7f7244709f741ec5f1d637fd5a891de308c779d1023c0f3128595bb88bf571ef886002826040518080602001806020018381038352858181546001816001161561010002031660029004815260200191508054600181600116156101000203166002900480156129d55780601f106129aa576101008083540402835291602001916129d5565b820191906000526020600020905b8154815290600101906020018083116129b857829003601f168201915b5050838103825284818151815260200191508051906020019080838360005b83811015612a0f5780820151818401526020810190506129f4565b50505050905090810190601f168015612a3c5780820380516001836020036101000a031916815260200191505b5094505050505060405180910390a18060029080519060200190612a619291906139c0565b5050565b6000600982815481101515612a7657fe5b9060005260206000200160009054906101000a900473ffffffffffffffffffffffffffffffffffffffff169050919050565b600033600860008273ffffffffffffffffffffffffffffffffffffffff1673ffffffffffffffffffffffffffffffffffffffff16815260200190815260200160002060000160009054906101000a900460ff161515612b0657600080fd5b612b1033846119c3565b9150612ba4600860003373ffffffffffffffffffffffffffffffffffffffff1673ffffffffffffffffffffffffffffffffffffffff16815260200190815260200160002060040160008573ffffffffffffffffffffffffffffffffffffffff1673ffffffffffffffffffffffffffffffffffffffff16815260200190815260200160002054836138fd90919063ffffffff16565b841115612bb057600080fd5b612c4284600860003373ffffffffffffffffffffffffffffffffffffffff1673ffffffffffffffffffffffffffffffffffffffff16815260200190815260200160002060040160008673ffffffffffffffffffffffffffffffffffffffff1673ffffffffffffffffffffffffffffffffffffffff1681526020019081526020016000205461391690919063ffffffff16565b600860003373ffffffffffffffffffffffffffffffffffffffff1673ffffffffffffffffffffffffffffffffffffffff16815260200190815260200160002060040160008573ffffffffffffffffffffffffffffffffffffffff1673ffffffffffffffffffffffffffffffffffffffff16815260200190815260200160002081905550612d1784600a60008673ffffffffffffffffffffffffffffffffffffffff1673ffffffffffffffffffffffffffffffffffffffff1681526020019081526020016000205461391690919063ffffffff16565b600a60008573ffffffffffffffffffffffffffffffffffffffff1673ffffffffffffffffffffffffffffffffffffffff168152602001908152602001600020819055508273ffffffffffffffffffffffffffffffffffffffff1663a9059cbb33866040518363ffffffff167c0100000000000000000000000000000000000000000000000000000000028152600401808373ffffffffffffffffffffffffffffffffffffffff1673ffffffffffffffffffffffffffffffffffffffff16815260200182815260200192505050602060405180830381600087803b158015612dfd57600080fd5b505af1158015612e11573d6000803e3d6000fd5b505050506040513d6020811015612e2757600080fd5b8101908080519060200190929190505050507fffdaa1b8f229c4f9a0c79b712224a2ad8d3aa3c483c23a125f4b9c179870938d338585600a60008873ffffffffffffffffffffffffffffffffffffffff1673ffffffffffffffffffffffffffffffffffffffff16815260200190815260200160002054604051808573ffffffffffffffffffffffffffffffffffffffff1673ffffffffffffffffffffffffffffffffffffffff1681526020018481526020018373ffffffffffffffffffffffffffffffffffffffff1673ffffffffffffffffffffffffffffffffffffffff16815260200182815260200194505050505060405180910390a150505050565b600160009054906101000a900473ffffffffffffffffffffffffffffffffffffffff1673ffffffffffffffffffffffffffffffffffffffff163373ffffffffffffffffffffffffffffffffffffffff1614158015612fd05750600860003373ffffffffffffffffffffffffffffffffffffffff1673ffffffffffffffffffffffffffffffffffffffff16815260200190815260200160002060000160019054906101000a900460ff16155b15612fda57600080fd5b81600860008273ffffffffffffffffffffffffffffffffffffffff1673ffffffffffffffffffffffffffffffffffffffff16815260200190815260200160002060000160009054906101000a900460ff16151561303657600080fd5b61304b826003546138fd90919063ffffffff16565b6003819055506130a682600860008673ffffffffffffffffffffffffffffffffffffffff1673ffffffffffffffffffffffffffffffffffffffff168152602001908152602001600020600101546138fd90919063ffffffff16565b600860008573ffffffffffffffffffffffffffffffffffffffff1673ffffffffffffffffffffffffffffffffffffffff168152602001908152602001600020600101819055507f67d4e98c6b70fdfbb7305797bbb30889a736b9773c74f9557683ffacbd22d5a88383600860008773ffffffffffffffffffffffffffffffffffffffff1673ffffffffffffffffffffffffffffffffffffffff16815260200190815260200160002060010154604051808473ffffffffffffffffffffffffffffffffffffffff1673ffffffffffffffffffffffffffffffffffffffff168152602001838152602001828152602001935050505060405180910390a1505050565b6131ae613a40565b600160149054906101000a900460ff161515156131ca57600080fd5b60018060146101000a81548160ff02191690831515021790555032600160006101000a81548173ffffffffffffffffffffffffffffffffffffffff021916908373ffffffffffffffffffffffffffffffffffffffff160217905550436005819055506001816000019015159081151581525050600181602001901515908115158152505080600860003273ffffffffffffffffffffffffffffffffffffffff1673ffffffffffffffffffffffffffffffffffffffff16815260200190815260200160002060008201518160000160006101000a81548160ff02191690831515021790555060208201518160000160016101000a81548160ff021916908315150217905550604082015181600101556060820151816002015560808201518160030190805190602001906132fe929190613a74565b5090505060093290806001815401808255809150509060018203906000526020600020016000909192909190916101000a81548173ffffffffffffffffffffffffffffffffffffffff021916908373ffffffffffffffffffffffffffffffffffffffff1602179055505061337e600160035461391690919063ffffffff16565b6003819055506133da6001600860003273ffffffffffffffffffffffffffffffffffffffff1673ffffffffffffffffffffffffffffffffffffffff1681526020019081526020016000206001015461391690919063ffffffff16565b600860003273ffffffffffffffffffffffffffffffffffffffff1673ffffffffffffffffffffffffffffffffffffffff168152602001908152602001600020600101819055507f0d0d4d1bc5a254e66ec692f9d1a4452fed4b59a3a1ba48b1a991838e5c7c4b8a326001600860003273ffffffffffffffffffffffffffffffffffffffff1673ffffffffffffffffffffffffffffffffffffffff16815260200190815260200160002060010154604051808473ffffffffffffffffffffffffffffffffffffffff1673ffffffffffffffffffffffffffffffffffffffff168152602001838152602001828152602001935050505060405180910390a150565b600a6020528060005260406000206000915090505481565b600160009054906101000a900473ffffffffffffffffffffffffffffffffffffffff1673ffffffffffffffffffffffffffffffffffffffff163373ffffffffffffffffffffffffffffffffffffffff16148061359a5750600160009054906101000a900473ffffffffffffffffffffffffffffffffffffffff1673ffffffffffffffffffffffffffffffffffffffff163273ffffffffffffffffffffffffffffffffffffffff16145b15156135a557600080fd5b600073ffffffffffffffffffffffffffffffffffffffff168173ffffffffffffffffffffffffffffffffffffffff1614151561361d5780600160006101000a81548173ffffffffffffffffffffffffffffffffffffffff021916908373ffffffffffffffffffffffffffffffffffffffff1602179055505b50565b60098181548110151561362f57fe5b906000526020600020016000915054906101000a900473ffffffffffffffffffffffffffffffffffffffff1681565b600160009054906101000a900473ffffffffffffffffffffffffffffffffffffffff1673ffffffffffffffffffffffffffffffffffffffff163373ffffffffffffffffffffffffffffffffffffffff16141580156137095750600860003373ffffffffffffffffffffffffffffffffffffffff1673ffffffffffffffffffffffffffffffffffffffff16815260200190815260200160002060000160019054906101000a900460ff16155b1561371357600080fd5b806040518082805190602001908083835b6020831015156137495780518252602082019150602081019050602083039250613724565b6001836020036101000a038019825116818451168082178552505050505050905001915050604051809103902060001916600860008673ffffffffffffffffffffffffffffffffffffffff1673ffffffffffffffffffffffffffffffffffffffff16815260200190815260200160002060030160405180828054600181600116156101000203166002900480156138175780601f106137f5576101008083540402835291820191613817565b820191906000526020600020905b815481529060010190602001808311613803575b505091505060405180910390206000191614151561383a5761383984826110c4565b5b811515600860008673ffffffffffffffffffffffffffffffffffffffff1673ffffffffffffffffffffffffffffffffffffffff16815260200190815260200160002060000160019054906101000a900460ff1615151415156138a1576138a084836121a7565b5b82600860008673ffffffffffffffffffffffffffffffffffffffff1673ffffffffffffffffffffffffffffffffffffffff168152602001908152602001600020600101541415156138f7576138f684846125b8565b5b50505050565b600082821115151561390b57fe5b818303905092915050565b600080828401905083811015151561392a57fe5b8091505092915050565b60008060006139498660018601600a0a613972565b9150600a600561395984886139a5565b0181151561396357fe5b04905080925050509392505050565b60008082840290506000841480613993575082848281151561399057fe5b04145b151561399b57fe5b8091505092915050565b60008082848115156139b357fe5b0490508091505092915050565b828054600181600116156101000203166002900490600052602060002090601f016020900481019282601f10613a0157805160ff1916838001178555613a2f565b82800160010185558215613a2f579182015b82811115613a2e578251825591602001919060010190613a13565b5b509050613a3c9190613af4565b5090565b60a0604051908101604052806000151581526020016000151581526020016000815260200160008152602001606081525090565b828054600181600116156101000203166002900490600052602060002090601f016020900481019282601f10613ab557805160ff1916838001178555613ae3565b82800160010185558215613ae3579182015b82811115613ae2578251825591602001919060010190613ac7565b5b509050613af09190613af4565b5090565b613b1691905b80821115613b12576000816000905550600101613afa565b5090565b905600a165627a7a72305820979d5954ac7be6fcf0f0093ff6dc44d30346615c843c0782a80d2b5a5ced809a0029",
  "source": "pragma solidity ^0.4.15;\n\n/**\n * @title Doneth (Doneth)\n * @dev Doneth is a contract that allows shared access to funds\n * in the form of Ether and ERC20 tokens. It is especially relevant\n * to donation based projects. The admins of the contract determine \n * who is a member, and each member gets a number of shares. The \n * number of shares each member has determines how much Ether/ERC20 \n * the member can withdraw from the contract.\n */\n\n\ncontract Doneth {\n\n    address public implementation;\n    // constructor(address _implementation) public {}\n\n    address public owner;\n\n    function Ownable() public {\n        owner = tx.origin;\n    }\n\n    modifier onlyOwner() {\n        require(msg.sender == owner || tx.origin == owner);\n        _;\n    }\n\n    function transferOwnership(address newOwner) onlyOwner public {\n        if (newOwner != address(0)) {\n            owner = newOwner;\n        }\n    }\n\n    using SafeMath for uint256;  \n\n    bool public initialized;\n\n    // Name of the contract\n    string public name;\n\n    // Sum of all shares allocated to members\n    uint256 public totalShares;\n\n    // Sum of all withdrawals done by members\n    uint256 public totalWithdrawn;\n\n    // Block number of when the contract was created\n    uint256 public genesisBlockNumber;\n\n    // Number of decimal places for floating point division\n    uint256 constant public PRECISION = 18;\n\n    // Variables for shared expense allocation\n    uint256 public sharedExpense;\n    uint256 public sharedExpenseWithdrawn;\n\n    // Used to keep track of members\n    mapping(address => Member) public members;\n    address[] public memberKeys;\n    struct Member {\n        bool exists;\n        bool admin;\n        uint256 shares;\n        uint256 withdrawn;\n        string memberName;\n        mapping(address => uint256) tokensWithdrawn;\n    }\n\n    // Used to keep track of ERC20 tokens used and how much withdrawn\n    mapping(address => uint256) public tokens;\n\n    function init() public {\n        require(!initialized);\n        initialized = true;\n\n        owner = tx.origin;\n        genesisBlockNumber = block.number;\n\n        Member memory newMember;\n        newMember.exists = true;\n        newMember.admin = true;\n        members[tx.origin] = newMember;\n        memberKeys.push(tx.origin);\n\n        totalShares = totalShares.add(1);\n        members[tx.origin].shares = members[tx.origin].shares.add(1);\n        AddShare(tx.origin, 1, members[tx.origin].shares);\n    }\n\n    event Deposit(address from, uint value);\n    event Withdraw(address from, uint value, uint256 newTotalWithdrawn);\n    event TokenWithdraw(address from, uint value, address token, uint amount);\n    event AddShare(address who, uint256 addedShares, uint256 newTotalShares);\n    event RemoveShare(address who, uint256 removedShares, uint256 newTotalShares);\n    event ChangePrivilege(address who, bool oldValue, bool newValue);\n    event ChangeContractName(string oldValue, string newValue);\n    event ChangeMemberName(address who, string oldValue, string newValue);\n    event ChangeSharedExpense(uint256 contractBalance, uint256 oldValue, uint256 newValue);\n    event WithdrawSharedExpense(address from, address to, uint value, uint256 newSharedExpenseWithdrawn);\n\n    // Fallback function accepts Ether from donators\n    function () public payable {\n        Deposit(msg.sender, msg.value);\n    }\n\n    modifier onlyAdmin() { \n        if (msg.sender != owner && !members[msg.sender].admin) revert();   \n        _;\n    }\n\n    modifier onlyExisting(address who) { \n        if (!members[who].exists) revert(); \n        _;\n    }\n\n    // Series of getter functions for contract data\n    function getMemberCount() public constant returns(uint) {\n        return memberKeys.length;\n    }\n    \n    function getMemberAtKey(uint key) public constant returns(address) {\n        return memberKeys[key];\n    }\n    \n    function getBalance() public constant returns(uint256 balance) {\n        return this.balance;\n    }\n    \n    function getContractInfo() public constant returns(string name, address owner,  uint256 genesisBlockNumber,  uint256 totalShares,  uint256 totalWithdrawn) {\n        return (string(name), owner, genesisBlockNumber, totalShares, totalWithdrawn);\n    }\n    \n    function returnMember(address _address) public constant onlyExisting(_address) returns(bool admin, uint256 shares, uint256 withdrawn, string memberName) {\n      Member memory m = members[_address];\n      return (m.admin, m.shares, m.withdrawn, m.memberName);\n    }\n\n    function checkERC20Balance(address token) public constant returns(uint256) {\n        return ERC20(token).balanceOf(address(this));\n    }\n\n    // Function to add members to the contract \n    function addMember(address who, uint256 shares, bool admin, string memberName) public onlyAdmin() {\n        // Don't allow the same member to be added twice\n        if (members[who].exists) revert();\n        if (bytes(memberName).length > 21) revert();\n\n        Member memory newMember;\n        newMember.exists = true;\n        newMember.admin = admin;\n        newMember.memberName = memberName;\n\n        members[who] = newMember;\n        memberKeys.push(who);\n        addShare(who, shares);\n    }\n\n    function updateMember(address who, uint256 shares, bool isAdmin, string name) public onlyAdmin() {\n        if (sha3(members[who].memberName) != sha3(name)) changeMemberName(who, name);\n        if (members[who].admin != isAdmin) changeAdminPrivilege(who, isAdmin);\n        if (members[who].shares != shares) allocateShares(who, shares);\n    }\n\n    // Only owner, admin or member can change member's name\n    function changeMemberName(address who, string newName) public onlyExisting(who) {\n        if (msg.sender != who && msg.sender != owner && !members[msg.sender].admin) revert();\n        if (bytes(newName).length > 21) revert();\n        ChangeMemberName(who, members[who].memberName, newName);\n        members[who].memberName = newName;\n    }\n\n    function changeAdminPrivilege(address who, bool newValue) public onlyAdmin() {\n        ChangePrivilege(who, members[who].admin, newValue);\n        members[who].admin = newValue; \n    }\n\n    // Only admins and owners can change the contract name\n    function changeContractName(string newName) public onlyAdmin() {\n        if (bytes(newName).length > 21) revert();\n        ChangeContractName(name, newName);\n        name = newName;\n    }\n\n    // Shared expense allocation allows admins to withdraw an amount to be used for shared\n    // expenses. Shared expense allocation subtracts from the total balance of the contract. \n    // Only owner can change this amount.\n    function changeSharedExpenseAllocation(uint256 newAllocation) public onlyOwner() {\n        if (newAllocation < sharedExpenseWithdrawn) revert();\n        if (newAllocation.sub(sharedExpenseWithdrawn) > this.balance) revert();\n\n        ChangeSharedExpense(this.balance, sharedExpense, newAllocation);\n        sharedExpense = newAllocation;\n    }\n\n    // Set share amount explicitly by calculating difference then adding or removing accordingly\n    function allocateShares(address who, uint256 amount) public onlyAdmin() onlyExisting(who) {\n        uint256 currentShares = members[who].shares;\n        if (amount == currentShares) revert();\n        if (amount > currentShares) {\n            addShare(who, amount.sub(currentShares));\n        } else {\n            removeShare(who, currentShares.sub(amount));\n        }\n    }\n\n    // Increment the number of shares for a member\n    function addShare(address who, uint256 amount) public onlyAdmin() onlyExisting(who) {\n        totalShares = totalShares.add(amount);\n        members[who].shares = members[who].shares.add(amount);\n        AddShare(who, amount, members[who].shares);\n    }\n\n    // Decrement the number of shares for a member\n    function removeShare(address who, uint256 amount) public onlyAdmin() onlyExisting(who) {\n        totalShares = totalShares.sub(amount);\n        members[who].shares = members[who].shares.sub(amount);\n        RemoveShare(who, amount, members[who].shares);\n    }\n\n    // Function for a member to withdraw Ether from the contract proportional\n    // to the amount of shares they have. Calculates the totalWithdrawableAmount\n    // in Ether based on the member's share and the Ether balance of the contract,\n    // then subtracts the amount of Ether that the member has already previously\n    // withdrawn.\n    function withdraw(uint256 amount) public onlyExisting(msg.sender) {\n        uint256 newTotal = calculateTotalWithdrawableAmount(msg.sender);\n        if (amount > newTotal.sub(members[msg.sender].withdrawn)) revert();\n        \n        members[msg.sender].withdrawn = members[msg.sender].withdrawn.add(amount);\n        totalWithdrawn = totalWithdrawn.add(amount);\n        msg.sender.transfer(amount);\n        Withdraw(msg.sender, amount, totalWithdrawn);\n    }\n\n    // Withdrawal function for ERC20 tokensx\n    function withdrawToken(uint256 amount, address token) public onlyExisting(msg.sender) {\n        uint256 newTotal = calculateTotalWithdrawableTokenAmount(msg.sender, token);\n        if (amount > newTotal.sub(members[msg.sender].tokensWithdrawn[token])) revert();\n\n        members[msg.sender].tokensWithdrawn[token] = members[msg.sender].tokensWithdrawn[token].add(amount);\n        tokens[token] = tokens[token].add(amount);\n        ERC20(token).transfer(msg.sender, amount);\n        TokenWithdraw(msg.sender, amount, token, tokens[token]);\n    }\n\n    // Withdraw from shared expense allocation. Total withdrawable is calculated as \n    // sharedExpense minus sharedExpenseWithdrawn. Only Admin can withdraw from shared expense.\n    function withdrawSharedExpense(uint256 amount, address to) public onlyAdmin() {\n        if (amount > calculateTotalExpenseWithdrawableAmount()) revert();\n        \n        sharedExpenseWithdrawn = sharedExpenseWithdrawn.add(amount);\n        to.transfer(amount);\n        WithdrawSharedExpense(msg.sender, to, amount, sharedExpenseWithdrawn);\n    }\n\n    // Converts from shares to Eth.\n    // Ex: 2 shares, 4 total shares, 40 Eth balance\n    // 40 Eth / 4 total shares = 10 eth per share * 2 shares = 20 Eth to cash out\n    function calculateTotalWithdrawableAmount(address who) public constant onlyExisting(who) returns (uint256) {\n        // Total balance to calculate share from = \n        // contract balance + totalWithdrawn - sharedExpense + sharedExpenseWithdrawn\n        uint256 balanceSum = this.balance.add(totalWithdrawn);\n        balanceSum = balanceSum.sub(sharedExpense);\n        balanceSum = balanceSum.add(sharedExpenseWithdrawn);\n        \n        // Need to use parts-per notation to compute percentages for lack of floating point division\n        uint256 ethPerSharePPN = balanceSum.percent(totalShares, PRECISION); \n        uint256 ethPPN = ethPerSharePPN.mul(members[who].shares);\n        uint256 ethVal = ethPPN.div(10**PRECISION); \n        return ethVal;\n    }\n\n\n    function calculateTotalWithdrawableTokenAmount(address who, address token) public constant returns(uint256) {\n        uint256 balanceSum = checkERC20Balance(token).add(tokens[token]);\n\n        // Need to use parts-per notation to compute percentages for lack of floating point division\n        uint256 tokPerSharePPN = balanceSum.percent(totalShares, PRECISION); \n        uint256 tokPPN = tokPerSharePPN.mul(members[who].shares);\n        uint256 tokVal = tokPPN.div(10**PRECISION); \n        return tokVal;\n    }\n\n    function calculateTotalExpenseWithdrawableAmount() public constant returns(uint256) {\n        return sharedExpense.sub(sharedExpenseWithdrawn);\n    }\n\n    // Used for testing\n    function delegatePercent(uint256 a, uint256 b, uint256 c) public constant returns (uint256) {\n        return a.percent(b, c);\n    }\n}\n\n/**\n * @title ERC20Basic\n * @dev Simpler version of ERC20 interface\n * @dev see https://github.com/ethereum/EIPs/issues/179\n */\ncontract ERC20Basic {\n  uint256 public totalSupply;\n  function balanceOf(address who) public constant returns (uint256);\n  function transfer(address to, uint256 value) public returns (bool);\n  event Transfer(address indexed from, address indexed to, uint256 value);\n}\n\n\n/**\n * @title ERC20 interface\n * @dev see https://github.com/ethereum/EIPs/issues/20\n */\ncontract ERC20 is ERC20Basic {\n  function allowance(address owner, address spender) public constant returns (uint256);\n  function transferFrom(address from, address to, uint256 value) public returns (bool);\n  function approve(address spender, uint256 value) public returns (bool);\n  event Approval(address indexed owner, address indexed spender, uint256 value);\n}\n\n\n/**\n * @title SafeMath\n * @dev Math operations with safety checks that throw on error\n */\nlibrary SafeMath {\n    function mul(uint256 a, uint256 b) internal constant returns (uint256) {\n        uint256 c = a * b;\n        assert(a == 0 || c / a == b);\n        return c;\n    }\n\n    function div(uint256 a, uint256 b) internal constant returns (uint256) {\n        // assert(b > 0); // Solidity automatically throws when dividing by 0\n        uint256 c = a / b;\n        // assert(a == b * c + a % b); // There is no case in which this doesn't hold\n        return c;\n    }\n\n    function sub(uint256 a, uint256 b) internal constant returns (uint256) {\n        assert(b <= a);\n        return a - b;\n    }\n\n    function add(uint256 a, uint256 b) internal constant returns (uint256) {\n        uint256 c = a + b;\n        assert(c >= a);\n        return c;\n    }\n\n    // Using from SO: https://stackoverflow.com/questions/42738640/division-in-ethereum-solidity/42739843#42739843\n    // Adapted to use SafeMath and uint256.\n    function percent(uint256 numerator, uint256 denominator, uint256 precision) internal constant returns(uint256 quotient) {\n        // caution, check safe-to-multiply here\n        uint256 _numerator = mul(numerator, 10 ** (precision+1));\n        // with rounding of last digit\n        uint256 _quotient = (div(_numerator, denominator) + 5) / 10;\n        return (_quotient);\n    }\n}\n\n",
  "sourcePath": "/Users/billy/GitHub/okwme/doneth-v2/contracts/Doneth.sol",
  "compiler": {
    "name": "solc",
    "version": "0.4.24+commit.e67f0147.Emscripten.clang"
  },
  "schemaVersion": "3.3.2",
  "updatedAt": "2021-05-02T12:42:44.222Z",
  "networkType": "ethereum",
  "devdoc": {
    "methods": {},
    "title": "Doneth (Doneth)"
  },
  "userdoc": {
    "methods": {}
  }
}