{
  "contractName": "Doneth",
  "abi": [
    {
      "constant": true,
      "inputs": [],
      "name": "genesisBlockNumber",
      "outputs": [
        {
          "name": "",
          "type": "uint256"
        }
      ],
      "payable": false,
      "stateMutability": "view",
      "type": "function"
    },
    {
      "constant": true,
      "inputs": [],
      "name": "name",
      "outputs": [
        {
          "name": "",
          "type": "string"
        }
      ],
      "payable": false,
      "stateMutability": "view",
      "type": "function"
    },
    {
      "constant": true,
      "inputs": [
        {
          "name": "",
          "type": "address"
        }
      ],
      "name": "members",
      "outputs": [
        {
          "name": "exists",
          "type": "bool"
        },
        {
          "name": "active",
          "type": "bool"
        },
        {
          "name": "admin",
          "type": "bool"
        },
        {
          "name": "shares",
          "type": "uint256"
        },
        {
          "name": "withdrawn",
          "type": "uint256"
        },
        {
          "name": "memberName",
          "type": "string"
        }
      ],
      "payable": false,
      "stateMutability": "view",
      "type": "function"
    },
    {
      "constant": false,
      "inputs": [
        {
          "name": "who",
          "type": "address"
        },
        {
          "name": "newName",
          "type": "string"
        }
      ],
      "name": "changeMemberName",
      "outputs": [],
      "payable": false,
      "stateMutability": "nonpayable",
      "type": "function"
    },
    {
      "constant": true,
      "inputs": [],
      "name": "getBalance",
      "outputs": [
        {
          "name": "balance",
          "type": "uint256"
        }
      ],
      "payable": false,
      "stateMutability": "view",
      "type": "function"
    },
    {
      "constant": false,
      "inputs": [
        {
          "name": "newAllocation",
          "type": "uint256"
        }
      ],
      "name": "changeSharedExpenseAllocation",
      "outputs": [],
      "payable": false,
      "stateMutability": "nonpayable",
      "type": "function"
    },
    {
      "constant": false,
      "inputs": [
        {
          "name": "amount",
          "type": "uint256"
        },
        {
          "name": "to",
          "type": "address"
        }
      ],
      "name": "withdrawSharedExpense",
      "outputs": [],
      "payable": false,
      "stateMutability": "nonpayable",
      "type": "function"
    },
    {
      "constant": false,
      "inputs": [
        {
          "name": "amount",
          "type": "uint256"
        }
      ],
      "name": "withdraw",
      "outputs": [],
      "payable": false,
      "stateMutability": "nonpayable",
      "type": "function"
    },
    {
      "constant": true,
      "inputs": [
        {
          "name": "who",
          "type": "address"
        },
        {
          "name": "token",
          "type": "address"
        }
      ],
      "name": "calculateTotalWithdrawableTokenAmount",
      "outputs": [
        {
          "name": "",
          "type": "uint256"
        }
      ],
      "payable": false,
      "stateMutability": "view",
      "type": "function"
    },
    {
      "constant": true,
      "inputs": [
        {
          "name": "",
          "type": "uint256"
        }
      ],
      "name": "tokenKeys",
      "outputs": [
        {
          "name": "",
          "type": "address"
        }
      ],
      "payable": false,
      "stateMutability": "view",
      "type": "function"
    },
    {
      "constant": true,
      "inputs": [
        {
          "name": "who",
          "type": "address"
        }
      ],
      "name": "calculateTotalWithdrawableAmount",
      "outputs": [
        {
          "name": "",
          "type": "uint256"
        }
      ],
      "payable": false,
      "stateMutability": "view",
      "type": "function"
    },
    {
      "constant": true,
      "inputs": [],
      "name": "totalShares",
      "outputs": [
        {
          "name": "",
          "type": "uint256"
        }
      ],
      "payable": false,
      "stateMutability": "view",
      "type": "function"
    },
    {
      "constant": true,
      "inputs": [],
      "name": "calculateTotalExpenseWithdrawableAmount",
      "outputs": [
        {
          "name": "",
          "type": "uint256"
        }
      ],
      "payable": false,
      "stateMutability": "view",
      "type": "function"
    },
    {
      "constant": true,
      "inputs": [],
      "name": "totalWithdrawn",
      "outputs": [
        {
          "name": "",
          "type": "uint256"
        }
      ],
      "payable": false,
      "stateMutability": "view",
      "type": "function"
    },
    {
      "constant": false,
      "inputs": [
        {
          "name": "who",
          "type": "address"
        },
        {
          "name": "amount",
          "type": "uint256"
        }
      ],
      "name": "addShare",
      "outputs": [],
      "payable": false,
      "stateMutability": "nonpayable",
      "type": "function"
    },
    {
      "constant": true,
      "inputs": [],
      "name": "incrementInterval",
      "outputs": [
        {
          "name": "",
          "type": "uint256"
        }
      ],
      "payable": false,
      "stateMutability": "view",
      "type": "function"
    },
    {
      "constant": false,
      "inputs": [
        {
          "name": "who",
          "type": "address"
        },
        {
          "name": "shares",
          "type": "uint256"
        },
        {
          "name": "admin",
          "type": "bool"
        },
        {
          "name": "memberName",
          "type": "string"
        }
      ],
      "name": "addMember",
      "outputs": [],
      "payable": false,
      "stateMutability": "nonpayable",
      "type": "function"
    },
    {
      "constant": true,
      "inputs": [],
      "name": "sharedExpenseWithdrawn",
      "outputs": [
        {
          "name": "",
          "type": "uint256"
        }
      ],
      "payable": false,
      "stateMutability": "view",
      "type": "function"
    },
    {
      "constant": true,
      "inputs": [],
      "name": "getContractInfo",
      "outputs": [
        {
          "name": "",
          "type": "string"
        },
        {
          "name": "",
          "type": "address"
        },
        {
          "name": "",
          "type": "uint256"
        },
        {
          "name": "",
          "type": "uint256"
        },
        {
          "name": "",
          "type": "uint256"
        }
      ],
      "payable": false,
      "stateMutability": "view",
      "type": "function"
    },
    {
      "constant": true,
      "inputs": [
        {
          "name": "a",
          "type": "uint256"
        },
        {
          "name": "b",
          "type": "uint256"
        },
        {
          "name": "c",
          "type": "uint256"
        }
      ],
      "name": "delegatePercent",
      "outputs": [
        {
          "name": "",
          "type": "uint256"
        }
      ],
      "payable": false,
      "stateMutability": "view",
      "type": "function"
    },
    {
      "constant": false,
      "inputs": [
        {
          "name": "who",
          "type": "address"
        },
        {
          "name": "newValue",
          "type": "bool"
        }
      ],
      "name": "changeAdminPrivilege",
      "outputs": [],
      "payable": false,
      "stateMutability": "nonpayable",
      "type": "function"
    },
    {
      "constant": true,
      "inputs": [
        {
          "name": "_address",
          "type": "address"
        }
      ],
      "name": "returnMember",
      "outputs": [
        {
          "name": "active",
          "type": "bool"
        },
        {
          "name": "admin",
          "type": "bool"
        },
        {
          "name": "shares",
          "type": "uint256"
        },
        {
          "name": "withdrawn",
          "type": "uint256"
        },
        {
          "name": "memberName",
          "type": "string"
        }
      ],
      "payable": false,
      "stateMutability": "view",
      "type": "function"
    },
    {
      "constant": true,
      "inputs": [],
      "name": "owner",
      "outputs": [
        {
          "name": "",
          "type": "address"
        }
      ],
      "payable": false,
      "stateMutability": "view",
      "type": "function"
    },
    {
      "constant": false,
      "inputs": [
        {
          "name": "who",
          "type": "address"
        },
        {
          "name": "amount",
          "type": "uint256"
        }
      ],
      "name": "allocateShares",
      "outputs": [],
      "payable": false,
      "stateMutability": "nonpayable",
      "type": "function"
    },
    {
      "constant": true,
      "inputs": [],
      "name": "getMemberCount",
      "outputs": [
        {
          "name": "",
          "type": "uint256"
        }
      ],
      "payable": false,
      "stateMutability": "view",
      "type": "function"
    },
    {
      "constant": false,
      "inputs": [
        {
          "name": "token",
          "type": "address"
        }
      ],
      "name": "checkERC20Balance",
      "outputs": [
        {
          "name": "",
          "type": "uint256"
        }
      ],
      "payable": false,
      "stateMutability": "nonpayable",
      "type": "function"
    },
    {
      "constant": true,
      "inputs": [],
      "name": "sharedExpense",
      "outputs": [
        {
          "name": "",
          "type": "uint256"
        }
      ],
      "payable": false,
      "stateMutability": "view",
      "type": "function"
    },
    {
      "constant": true,
      "inputs": [],
      "name": "PRECISION",
      "outputs": [
        {
          "name": "",
          "type": "uint256"
        }
      ],
      "payable": false,
      "stateMutability": "view",
      "type": "function"
    },
    {
      "constant": false,
      "inputs": [
        {
          "name": "newName",
          "type": "string"
        }
      ],
      "name": "changeContractName",
      "outputs": [],
      "payable": false,
      "stateMutability": "nonpayable",
      "type": "function"
    },
    {
      "constant": true,
      "inputs": [
        {
          "name": "key",
          "type": "uint256"
        }
      ],
      "name": "getMemberAtKey",
      "outputs": [
        {
          "name": "",
          "type": "address"
        }
      ],
      "payable": false,
      "stateMutability": "view",
      "type": "function"
    },
    {
      "constant": false,
      "inputs": [
        {
          "name": "amount",
          "type": "uint256"
        },
        {
          "name": "token",
          "type": "address"
        }
      ],
      "name": "withdrawToken",
      "outputs": [],
      "payable": false,
      "stateMutability": "nonpayable",
      "type": "function"
    },
    {
      "constant": false,
      "inputs": [
        {
          "name": "who",
          "type": "address"
        },
        {
          "name": "amount",
          "type": "uint256"
        }
      ],
      "name": "removeShare",
      "outputs": [],
      "payable": false,
      "stateMutability": "nonpayable",
      "type": "function"
    },
    {
      "constant": true,
      "inputs": [],
      "name": "incrementShares",
      "outputs": [
        {
          "name": "",
          "type": "bool"
        }
      ],
      "payable": false,
      "stateMutability": "view",
      "type": "function"
    },
    {
      "constant": true,
      "inputs": [
        {
          "name": "",
          "type": "address"
        }
      ],
      "name": "tokens",
      "outputs": [
        {
          "name": "exists",
          "type": "bool"
        },
        {
          "name": "totalWithdrawn",
          "type": "uint256"
        }
      ],
      "payable": false,
      "stateMutability": "view",
      "type": "function"
    },
    {
      "constant": false,
      "inputs": [
        {
          "name": "newOwner",
          "type": "address"
        }
      ],
      "name": "transferOwnership",
      "outputs": [],
      "payable": false,
      "stateMutability": "nonpayable",
      "type": "function"
    },
    {
      "constant": true,
      "inputs": [
        {
          "name": "",
          "type": "uint256"
        }
      ],
      "name": "memberKeys",
      "outputs": [
        {
          "name": "",
          "type": "address"
        }
      ],
      "payable": false,
      "stateMutability": "view",
      "type": "function"
    },
    {
      "constant": false,
      "inputs": [
        {
          "name": "who",
          "type": "address"
        },
        {
          "name": "shares",
          "type": "uint256"
        },
        {
          "name": "isAdmin",
          "type": "bool"
        },
        {
          "name": "name",
          "type": "string"
        }
      ],
      "name": "updateMember",
      "outputs": [],
      "payable": false,
      "stateMutability": "nonpayable",
      "type": "function"
    },
    {
      "inputs": [
        {
          "name": "_contractName",
          "type": "string"
        },
        {
          "name": "_founderName",
          "type": "string"
        }
      ],
      "payable": false,
      "stateMutability": "nonpayable",
      "type": "constructor"
    },
    {
      "payable": true,
      "stateMutability": "payable",
      "type": "fallback"
    },
    {
      "anonymous": false,
      "inputs": [
        {
          "indexed": false,
          "name": "from",
          "type": "address"
        },
        {
          "indexed": false,
          "name": "value",
          "type": "uint256"
        }
      ],
      "name": "Deposit",
      "type": "event"
    },
    {
      "anonymous": false,
      "inputs": [
        {
          "indexed": false,
          "name": "from",
          "type": "address"
        },
        {
          "indexed": false,
          "name": "value",
          "type": "uint256"
        },
        {
          "indexed": false,
          "name": "newTotalWithdrawn",
          "type": "uint256"
        }
      ],
      "name": "Withdraw",
      "type": "event"
    },
    {
      "anonymous": false,
      "inputs": [
        {
          "indexed": false,
          "name": "from",
          "type": "address"
        },
        {
          "indexed": false,
          "name": "value",
          "type": "uint256"
        },
        {
          "indexed": false,
          "name": "token",
          "type": "address"
        },
        {
          "indexed": false,
          "name": "amount",
          "type": "uint256"
        }
      ],
      "name": "TokenWithdraw",
      "type": "event"
    },
    {
      "anonymous": false,
      "inputs": [
        {
          "indexed": false,
          "name": "who",
          "type": "address"
        },
        {
          "indexed": false,
          "name": "addedShares",
          "type": "uint256"
        },
        {
          "indexed": false,
          "name": "newTotalShares",
          "type": "uint256"
        }
      ],
      "name": "AddShare",
      "type": "event"
    },
    {
      "anonymous": false,
      "inputs": [
        {
          "indexed": false,
          "name": "who",
          "type": "address"
        },
        {
          "indexed": false,
          "name": "removedShares",
          "type": "uint256"
        },
        {
          "indexed": false,
          "name": "newTotalShares",
          "type": "uint256"
        }
      ],
      "name": "RemoveShare",
      "type": "event"
    },
    {
      "anonymous": false,
      "inputs": [
        {
          "indexed": false,
          "name": "who",
          "type": "address"
        },
        {
          "indexed": false,
          "name": "oldValue",
          "type": "bool"
        },
        {
          "indexed": false,
          "name": "newValue",
          "type": "bool"
        }
      ],
      "name": "ChangePrivilege",
      "type": "event"
    },
    {
      "anonymous": false,
      "inputs": [
        {
          "indexed": false,
          "name": "oldValue",
          "type": "string"
        },
        {
          "indexed": false,
          "name": "newValue",
          "type": "string"
        }
      ],
      "name": "ChangeContractName",
      "type": "event"
    },
    {
      "anonymous": false,
      "inputs": [
        {
          "indexed": false,
          "name": "who",
          "type": "address"
        },
        {
          "indexed": false,
          "name": "oldValue",
          "type": "string"
        },
        {
          "indexed": false,
          "name": "newValue",
          "type": "string"
        }
      ],
      "name": "ChangeMemberName",
      "type": "event"
    },
    {
      "anonymous": false,
      "inputs": [
        {
          "indexed": false,
          "name": "contractBalance",
          "type": "uint256"
        },
        {
          "indexed": false,
          "name": "oldValue",
          "type": "uint256"
        },
        {
          "indexed": false,
          "name": "newValue",
          "type": "uint256"
        }
      ],
      "name": "ChangeSharedExpense",
      "type": "event"
    },
    {
      "anonymous": false,
      "inputs": [
        {
          "indexed": false,
          "name": "from",
          "type": "address"
        },
        {
          "indexed": false,
          "name": "to",
          "type": "address"
        },
        {
          "indexed": false,
          "name": "value",
          "type": "uint256"
        },
        {
          "indexed": false,
          "name": "newSharedExpenseWithdrawn",
          "type": "uint256"
        }
      ],
      "name": "WithdrawSharedExpense",
      "type": "event"
    }
  ],
  "bytecode": "0x606060405234156200001057600080fd5b60405162003ff238038062003ff283398101604052808051820191906020018051820191905050336000806101000a81548173ffffffffffffffffffffffffffffffffffffffff021916908373ffffffffffffffffffffffffffffffffffffffff1602179055506015825111156200008757600080fd5b6015815111156200009757600080fd5b8160019080519060200190620000af9291906200066c565b5043600681905550620000da3360018084620000e26401000000000262001d3b176401000000009004565b50506200082a565b620000ec620006f3565b6000809054906101000a900473ffffffffffffffffffffffffffffffffffffffff1673ffffffffffffffffffffffffffffffffffffffff163373ffffffffffffffffffffffffffffffffffffffff1614158015620001975750600960003373ffffffffffffffffffffffffffffffffffffffff1673ffffffffffffffffffffffffffffffffffffffff16815260200190815260200160002060000160029054906101000a900460ff16155b15620001a257600080fd5b600960008673ffffffffffffffffffffffffffffffffffffffff1673ffffffffffffffffffffffffffffffffffffffff16815260200190815260200160002060000160009054906101000a900460ff1615620001fd57600080fd5b6015825111156200020d57600080fd5b6001816000019015159081151581525050828160400190151590811515815250506001816020019015159081151581525050818160a0018190525080600960008773ffffffffffffffffffffffffffffffffffffffff1673ffffffffffffffffffffffffffffffffffffffff16815260200190815260200160002060008201518160000160006101000a81548160ff02191690831515021790555060208201518160000160016101000a81548160ff02191690831515021790555060408201518160000160026101000a81548160ff021916908315150217905550606082015181600101556080820151816002015560a08201518160030190805190602001906200031a92919062000738565b50905050600a8054806001018281620003349190620007bf565b9160005260206000209001600087909190916101000a81548173ffffffffffffffffffffffffffffffffffffffff021916908373ffffffffffffffffffffffffffffffffffffffff16021790555050620003a38585620003aa6401000000000262001ab5176401000000009004565b5050505050565b6000809054906101000a900473ffffffffffffffffffffffffffffffffffffffff1673ffffffffffffffffffffffffffffffffffffffff163373ffffffffffffffffffffffffffffffffffffffff1614158015620004555750600960003373ffffffffffffffffffffffffffffffffffffffff1673ffffffffffffffffffffffffffffffffffffffff16815260200190815260200160002060000160029054906101000a900460ff16155b156200046057600080fd5b81600960008273ffffffffffffffffffffffffffffffffffffffff1673ffffffffffffffffffffffffffffffffffffffff16815260200190815260200160002060000160009054906101000a900460ff161515620004bd57600080fd5b620004e2826002546200064d6401000000000262003526179091906401000000009004565b6002819055506200054d82600960008673ffffffffffffffffffffffffffffffffffffffff1673ffffffffffffffffffffffffffffffffffffffff168152602001908152602001600020600101546200064d6401000000000262003526179091906401000000009004565b600960008573ffffffffffffffffffffffffffffffffffffffff1673ffffffffffffffffffffffffffffffffffffffff168152602001908152602001600020600101819055507f0d0d4d1bc5a254e66ec692f9d1a4452fed4b59a3a1ba48b1a991838e5c7c4b8a8383600960008773ffffffffffffffffffffffffffffffffffffffff1673ffffffffffffffffffffffffffffffffffffffff16815260200190815260200160002060010154604051808473ffffffffffffffffffffffffffffffffffffffff1673ffffffffffffffffffffffffffffffffffffffff168152602001838152602001828152602001935050505060405180910390a1505050565b60008082840190508381101515156200066257fe5b8091505092915050565b828054600181600116156101000203166002900490600052602060002090601f016020900481019282601f10620006af57805160ff1916838001178555620006e0565b82800160010185558215620006e0579182015b82811115620006df578251825591602001919060010190620006c2565b5b509050620006ef9190620007ee565b5090565b60c06040519081016040528060001515815260200160001515815260200160001515815260200160008152602001600081526020016200073262000816565b81525090565b828054600181600116156101000203166002900490600052602060002090601f016020900481019282601f106200077b57805160ff1916838001178555620007ac565b82800160010185558215620007ac579182015b82811115620007ab5782518255916020019190600101906200078e565b5b509050620007bb9190620007ee565b5090565b815481835581811511620007e957818360005260206000209182019101620007e89190620007ee565b5b505050565b6200081391905b808211156200080f576000816000905550600101620007f5565b5090565b90565b602060405190810160405280600081525090565b6137b8806200083a6000396000f3006060604052600436106101cd576000357c0100000000000000000000000000000000000000000000000000000000900463ffffffff1680630356fe3a1461023a57806306fdde031461026357806308ae4b0c146102f15780630d6d1437146103ef57806312065fe01461046b5780631468fc261461049457806324e2ca92146104b75780632e1a7d4d146104f95780632f0ae5131461051c578063346692b714610588578063389435e8146105eb5780633a98ef39146106385780634a914e8c146106615780634b3197131461068a57806350f4f9f8146106b3578063597be18b146106f55780635ea409831461071e5780636e2fd470146107ae5780637cc1f867146107d75780637d22f431146108ad57806380056b5b146108f657806385dcbb5a1461093a5780638da5cb5b14610a105780638e2a647014610a65578063997072f714610aa75780639b3bc6fb14610ad05780639d21328f14610b1d578063aaf5eb6814610b46578063ad3cd88314610b6f578063aec8fae814610bcc578063be4b177214610c2f578063c06474e014610c71578063ca27fb0c14610cb3578063e486033914610ce0578063f2fde38b14610d38578063f504b08914610d71578063fac2548b14610dd4575b7fe1fffcc4923d04b559f4d29a8bfc6cda04eb5b0d3c460751c2402c5c5cc9109c3334604051808373ffffffffffffffffffffffffffffffffffffffff1673ffffffffffffffffffffffffffffffffffffffff1681526020018281526020019250505060405180910390a1005b341561024557600080fd5b61024d610e64565b6040518082815260200191505060405180910390f35b341561026e57600080fd5b610276610e6a565b6040518080602001828103825283818151815260200191508051906020019080838360005b838110156102b657808201518184015260208101905061029b565b50505050905090810190601f1680156102e35780820380516001836020036101000a031916815260200191505b509250505060405180910390f35b34156102fc57600080fd5b610328600480803573ffffffffffffffffffffffffffffffffffffffff16906020019091905050610f08565b60405180871515151581526020018615151515815260200185151515158152602001848152602001838152602001806020018281038252838181546001816001161561010002031660029004815260200191508054600181600116156101000203166002900480156103db5780601f106103b0576101008083540402835291602001916103db565b820191906000526020600020905b8154815290600101906020018083116103be57829003601f168201915b505097505050505050505060405180910390f35b34156103fa57600080fd5b610469600480803573ffffffffffffffffffffffffffffffffffffffff1690602001909190803590602001908201803590602001908080601f01602080910402602001604051908101604052809392919081815260200183838082843782019150505050505091905050610f6a565b005b341561047657600080fd5b61047e61125f565b6040518082815260200191505060405180910390f35b341561049f57600080fd5b6104b5600480803590602001909190505061127e565b005b34156104c257600080fd5b6104f7600480803590602001909190803573ffffffffffffffffffffffffffffffffffffffff16906020019091905050611390565b005b341561050457600080fd5b61051a60048080359060200190919050506115bd565b005b341561052757600080fd5b610572600480803573ffffffffffffffffffffffffffffffffffffffff1690602001909190803573ffffffffffffffffffffffffffffffffffffffff169060200190919050506117f7565b6040518082815260200191505060405180910390f35b341561059357600080fd5b6105a960048080359060200190919050506118f5565b604051808273ffffffffffffffffffffffffffffffffffffffff1673ffffffffffffffffffffffffffffffffffffffff16815260200191505060405180910390f35b34156105f657600080fd5b610622600480803573ffffffffffffffffffffffffffffffffffffffff16906020019091905050611934565b6040518082815260200191505060405180910390f35b341561064357600080fd5b61064b611a8b565b6040518082815260200191505060405180910390f35b341561066c57600080fd5b610674611a91565b6040518082815260200191505060405180910390f35b341561069557600080fd5b61069d611aaf565b6040518082815260200191505060405180910390f35b34156106be57600080fd5b6106f3600480803573ffffffffffffffffffffffffffffffffffffffff16906020019091908035906020019091905050611ab5565b005b341561070057600080fd5b610708611d35565b6040518082815260200191505060405180910390f35b341561072957600080fd5b6107ac600480803573ffffffffffffffffffffffffffffffffffffffff16906020019091908035906020019091908035151590602001909190803590602001908201803590602001908080601f01602080910402602001604051908101604052809392919081815260200183838082843782019150505050505091905050611d3b565b005b34156107b957600080fd5b6107c1611fe3565b6040518082815260200191505060405180910390f35b34156107e257600080fd5b6107ea611fe9565b60405180806020018673ffffffffffffffffffffffffffffffffffffffff1673ffffffffffffffffffffffffffffffffffffffff168152602001858152602001848152602001838152602001828103825287818151815260200191508051906020019080838360005b8381101561086e578082015181840152602081019050610853565b50505050905090810190601f16801561089b5780820380516001836020036101000a031916815260200191505b50965050505050505060405180910390f35b34156108b857600080fd5b6108e060048080359060200190919080359060200190919080359060200190919050506120d1565b6040518082815260200191505060405180910390f35b341561090157600080fd5b610938600480803573ffffffffffffffffffffffffffffffffffffffff1690602001909190803515159060200190919050506120f1565b005b341561094557600080fd5b610971600480803573ffffffffffffffffffffffffffffffffffffffff169060200190919050506122cc565b60405180861515151581526020018515151515815260200184815260200183815260200180602001828103825283818151815260200191508051906020019080838360005b838110156109d15780820151818401526020810190506109b6565b50505050905090810190601f1680156109fe5780820380516001836020036101000a031916815260200191505b50965050505050505060405180910390f35b3415610a1b57600080fd5b610a236124c3565b604051808273ffffffffffffffffffffffffffffffffffffffff1673ffffffffffffffffffffffffffffffffffffffff16815260200191505060405180910390f35b3415610a7057600080fd5b610aa5600480803573ffffffffffffffffffffffffffffffffffffffff169060200190919080359060200190919050506124e8565b005b3415610ab257600080fd5b610aba612698565b6040518082815260200191505060405180910390f35b3415610adb57600080fd5b610b07600480803573ffffffffffffffffffffffffffffffffffffffff169060200190919050506126a5565b6040518082815260200191505060405180910390f35b3415610b2857600080fd5b610b3061282f565b6040518082815260200191505060405180910390f35b3415610b5157600080fd5b610b59612835565b6040518082815260200191505060405180910390f35b3415610b7a57600080fd5b610bca600480803590602001908201803590602001908080601f0160208091040260200160405190810160405280939291908181526020018383808284378201915050505050509190505061283a565b005b3415610bd757600080fd5b610bed60048080359060200190919050506129e5565b604051808273ffffffffffffffffffffffffffffffffffffffff1673ffffffffffffffffffffffffffffffffffffffff16815260200191505060405180910390f35b3415610c3a57600080fd5b610c6f600480803590602001909190803573ffffffffffffffffffffffffffffffffffffffff16906020019091905050612a29565b005b3415610c7c57600080fd5b610cb1600480803573ffffffffffffffffffffffffffffffffffffffff16906020019091908035906020019091905050612e97565b005b3415610cbe57600080fd5b610cc6613117565b604051808215151515815260200191505060405180910390f35b3415610ceb57600080fd5b610d17600480803573ffffffffffffffffffffffffffffffffffffffff1690602001909190505061312a565b60405180831515151581526020018281526020019250505060405180910390f35b3415610d4357600080fd5b610d6f600480803573ffffffffffffffffffffffffffffffffffffffff1690602001909190505061315b565b005b3415610d7c57600080fd5b610d926004808035906020019091905050613230565b604051808273ffffffffffffffffffffffffffffffffffffffff1673ffffffffffffffffffffffffffffffffffffffff16815260200191505060405180910390f35b3415610ddf57600080fd5b610e62600480803573ffffffffffffffffffffffffffffffffffffffff16906020019091908035906020019091908035151590602001909190803590602001908201803590602001908080601f0160208091040260200160405190810160405280939291908181526020018383808284378201915050505050509190505061326f565b005b60065481565b60018054600181600116156101000203166002900480601f016020809104026020016040519081016040528092919081815260200182805460018160011615610100020316600290048015610f005780601f10610ed557610100808354040283529160200191610f00565b820191906000526020600020905b815481529060010190602001808311610ee357829003601f168201915b505050505081565b60096020528060005260406000206000915090508060000160009054906101000a900460ff16908060000160019054906101000a900460ff16908060000160029054906101000a900460ff169080600101549080600201549080600301905086565b81600960008273ffffffffffffffffffffffffffffffffffffffff1673ffffffffffffffffffffffffffffffffffffffff16815260200190815260200160002060000160009054906101000a900460ff161515610fc657600080fd5b8273ffffffffffffffffffffffffffffffffffffffff163373ffffffffffffffffffffffffffffffffffffffff161415801561104f57506000809054906101000a900473ffffffffffffffffffffffffffffffffffffffff1673ffffffffffffffffffffffffffffffffffffffff163373ffffffffffffffffffffffffffffffffffffffff1614155b1561105957600080fd5b60158251111561106857600080fd5b7f154ad3f744d3641de12f5e012773b0126c47d1ffda727e5a61a2e6db8bb2cb5583600960008673ffffffffffffffffffffffffffffffffffffffff1673ffffffffffffffffffffffffffffffffffffffff16815260200190815260200160002060030184604051808473ffffffffffffffffffffffffffffffffffffffff1673ffffffffffffffffffffffffffffffffffffffff168152602001806020018060200183810383528581815460018160011615610100020316600290048152602001915080546001816001161561010002031660029004801561118c5780601f106111615761010080835404028352916020019161118c565b820191906000526020600020905b81548152906001019060200180831161116f57829003601f168201915b5050838103825284818151815260200191508051906020019080838360005b838110156111c65780820151818401526020810190506111ab565b50505050905090810190601f1680156111f35780820380516001836020036101000a031916815260200191505b509550505050505060405180910390a181600960008573ffffffffffffffffffffffffffffffffffffffff1673ffffffffffffffffffffffffffffffffffffffff16815260200190815260200160002060030190805190602001906112599291906135d0565b50505050565b60003073ffffffffffffffffffffffffffffffffffffffff1631905090565b60008060009054906101000a900473ffffffffffffffffffffffffffffffffffffffff1673ffffffffffffffffffffffffffffffffffffffff163373ffffffffffffffffffffffffffffffffffffffff161415156112db57600080fd5b6008548210156112ea57600080fd5b3073ffffffffffffffffffffffffffffffffffffffff16316113176008548461350d90919063ffffffff16565b111561132257600080fd5b6007549050816007819055507f5b3ea9617f529540e1c3e0beb0e01c060418c2d1fe48d369afe3d47beaa037cf3073ffffffffffffffffffffffffffffffffffffffff1631828460405180848152602001838152602001828152602001935050505060405180910390a15050565b6000809054906101000a900473ffffffffffffffffffffffffffffffffffffffff1673ffffffffffffffffffffffffffffffffffffffff163373ffffffffffffffffffffffffffffffffffffffff161415801561143a5750600960003373ffffffffffffffffffffffffffffffffffffffff1673ffffffffffffffffffffffffffffffffffffffff16815260200190815260200160002060000160029054906101000a900460ff16155b1561144457600080fd5b33600960008273ffffffffffffffffffffffffffffffffffffffff1673ffffffffffffffffffffffffffffffffffffffff16815260200190815260200160002060000160009054906101000a900460ff1615156114a057600080fd5b6114a8611a91565b8311156114b457600080fd5b6114c98360085461352690919063ffffffff16565b6008819055508173ffffffffffffffffffffffffffffffffffffffff166108fc849081150290604051600060405180830381858888f19350505050151561150f57600080fd5b7f223162e752821eb7bd44782f73723defb6e3a087a9afc4d3d4af13783f7b6aca338385600854604051808573ffffffffffffffffffffffffffffffffffffffff1673ffffffffffffffffffffffffffffffffffffffff1681526020018473ffffffffffffffffffffffffffffffffffffffff1673ffffffffffffffffffffffffffffffffffffffff16815260200183815260200182815260200194505050505060405180910390a1505050565b600033600960008273ffffffffffffffffffffffffffffffffffffffff1673ffffffffffffffffffffffffffffffffffffffff16815260200190815260200160002060000160009054906101000a900460ff16151561161b57600080fd5b61162433611934565b915061167b600960003373ffffffffffffffffffffffffffffffffffffffff1673ffffffffffffffffffffffffffffffffffffffff168152602001908152602001600020600201548361350d90919063ffffffff16565b83111561168757600080fd5b6116dc83600960003373ffffffffffffffffffffffffffffffffffffffff1673ffffffffffffffffffffffffffffffffffffffff1681526020019081526020016000206002015461352690919063ffffffff16565b600960003373ffffffffffffffffffffffffffffffffffffffff1673ffffffffffffffffffffffffffffffffffffffff168152602001908152602001600020600201819055506117378360035461352690919063ffffffff16565b6003819055503373ffffffffffffffffffffffffffffffffffffffff166108fc849081150290604051600060405180830381858888f19350505050151561177d57600080fd5b7ff279e6a1f5e320cca91135676d9cb6e44ca8a08c0b88342bcdb1144f6511b5683384600354604051808473ffffffffffffffffffffffffffffffffffffffff1673ffffffffffffffffffffffffffffffffffffffff168152602001838152602001828152602001935050505060405180910390a1505050565b600080600080600061185c600b60008873ffffffffffffffffffffffffffffffffffffffff1673ffffffffffffffffffffffffffffffffffffffff1681526020019081526020016000206001015461184e886126a5565b61352690919063ffffffff16565b93506118766002546012866135449092919063ffffffff16565b92506118cd600960008973ffffffffffffffffffffffffffffffffffffffff1673ffffffffffffffffffffffffffffffffffffffff168152602001908152602001600020600101548461358290919063ffffffff16565b91506118e66012600a0a836135b590919063ffffffff16565b90508094505050505092915050565b600c8181548110151561190457fe5b90600052602060002090016000915054906101000a900473ffffffffffffffffffffffffffffffffffffffff1681565b600080600080600085600960008273ffffffffffffffffffffffffffffffffffffffff1673ffffffffffffffffffffffffffffffffffffffff16815260200190815260200160002060000160009054906101000a900460ff16151561199857600080fd5b6119c46003543073ffffffffffffffffffffffffffffffffffffffff163161352690919063ffffffff16565b94506119db6007548661350d90919063ffffffff16565b94506119f26008548661352690919063ffffffff16565b9450611a0c6002546012876135449092919063ffffffff16565b9350611a63600960008973ffffffffffffffffffffffffffffffffffffffff1673ffffffffffffffffffffffffffffffffffffffff168152602001908152602001600020600101548561358290919063ffffffff16565b9250611a7c6012600a0a846135b590919063ffffffff16565b91508195505050505050919050565b60025481565b6000611aaa60085460075461350d90919063ffffffff16565b905090565b60035481565b6000809054906101000a900473ffffffffffffffffffffffffffffffffffffffff1673ffffffffffffffffffffffffffffffffffffffff163373ffffffffffffffffffffffffffffffffffffffff1614158015611b5f5750600960003373ffffffffffffffffffffffffffffffffffffffff1673ffffffffffffffffffffffffffffffffffffffff16815260200190815260200160002060000160029054906101000a900460ff16155b15611b6957600080fd5b81600960008273ffffffffffffffffffffffffffffffffffffffff1673ffffffffffffffffffffffffffffffffffffffff16815260200190815260200160002060000160009054906101000a900460ff161515611bc557600080fd5b611bda8260025461352690919063ffffffff16565b600281905550611c3582600960008673ffffffffffffffffffffffffffffffffffffffff1673ffffffffffffffffffffffffffffffffffffffff1681526020019081526020016000206001015461352690919063ffffffff16565b600960008573ffffffffffffffffffffffffffffffffffffffff1673ffffffffffffffffffffffffffffffffffffffff168152602001908152602001600020600101819055507f0d0d4d1bc5a254e66ec692f9d1a4452fed4b59a3a1ba48b1a991838e5c7c4b8a8383600960008773ffffffffffffffffffffffffffffffffffffffff1673ffffffffffffffffffffffffffffffffffffffff16815260200190815260200160002060010154604051808473ffffffffffffffffffffffffffffffffffffffff1673ffffffffffffffffffffffffffffffffffffffff168152602001838152602001828152602001935050505060405180910390a1505050565b60055481565b611d43613650565b6000809054906101000a900473ffffffffffffffffffffffffffffffffffffffff1673ffffffffffffffffffffffffffffffffffffffff163373ffffffffffffffffffffffffffffffffffffffff1614158015611ded5750600960003373ffffffffffffffffffffffffffffffffffffffff1673ffffffffffffffffffffffffffffffffffffffff16815260200190815260200160002060000160029054906101000a900460ff16155b15611df757600080fd5b600960008673ffffffffffffffffffffffffffffffffffffffff1673ffffffffffffffffffffffffffffffffffffffff16815260200190815260200160002060000160009054906101000a900460ff1615611e5157600080fd5b601582511115611e6057600080fd5b6001816000019015159081151581525050828160400190151590811515815250506001816020019015159081151581525050818160a0018190525080600960008773ffffffffffffffffffffffffffffffffffffffff1673ffffffffffffffffffffffffffffffffffffffff16815260200190815260200160002060008201518160000160006101000a81548160ff02191690831515021790555060208201518160000160016101000a81548160ff02191690831515021790555060408201518160000160026101000a81548160ff021916908315150217905550606082015181600101556080820151816002015560a0820151816003019080519060200190611f6b929190613693565b50905050600a8054806001018281611f839190613713565b9160005260206000209001600087909190916101000a81548173ffffffffffffffffffffffffffffffffffffffff021916908373ffffffffffffffffffffffffffffffffffffffff16021790555050611fdc8585611ab5565b5050505050565b60085481565b611ff161373f565b60008060008060016000809054906101000a900473ffffffffffffffffffffffffffffffffffffffff16600654600254600354848054600181600116156101000203166002900480601f0160208091040260200160405190810160405280929190818152602001828054600181600116156101000203166002900480156120b95780601f1061208e576101008083540402835291602001916120b9565b820191906000526020600020905b81548152906001019060200180831161209c57829003601f168201915b50505050509450945094509450945094509091929394565b60006120e88383866135449092919063ffffffff16565b90509392505050565b6000809054906101000a900473ffffffffffffffffffffffffffffffffffffffff1673ffffffffffffffffffffffffffffffffffffffff163373ffffffffffffffffffffffffffffffffffffffff161415801561219b5750600960003373ffffffffffffffffffffffffffffffffffffffff1673ffffffffffffffffffffffffffffffffffffffff16815260200190815260200160002060000160029054906101000a900460ff16155b156121a557600080fd5b7eb763075216b1778fecb2719c6d2040ed88fdbe6092a9597de5df9d175c968a82600960008573ffffffffffffffffffffffffffffffffffffffff1673ffffffffffffffffffffffffffffffffffffffff16815260200190815260200160002060000160029054906101000a900460ff1683604051808473ffffffffffffffffffffffffffffffffffffffff1673ffffffffffffffffffffffffffffffffffffffff1681526020018315151515815260200182151515158152602001935050505060405180910390a180600960008473ffffffffffffffffffffffffffffffffffffffff1673ffffffffffffffffffffffffffffffffffffffff16815260200190815260200160002060000160026101000a81548160ff0219169083151502179055505050565b6000806000806122da61373f565b6122e2613650565b86600960008273ffffffffffffffffffffffffffffffffffffffff1673ffffffffffffffffffffffffffffffffffffffff16815260200190815260200160002060000160009054906101000a900460ff16151561233e57600080fd5b600960008973ffffffffffffffffffffffffffffffffffffffff1673ffffffffffffffffffffffffffffffffffffffff16815260200190815260200160002060c060405190810160405290816000820160009054906101000a900460ff161515151581526020016000820160019054906101000a900460ff161515151581526020016000820160029054906101000a900460ff161515151581526020016001820154815260200160028201548152602001600382018054600181600116156101000203166002900480601f0160208091040260200160405190810160405280929190818152602001828054600181600116156101000203166002900480156124875780601f1061245c57610100808354040283529160200191612487565b820191906000526020600020905b81548152906001019060200180831161246a57829003601f168201915b505050505081525050915081602001518260400151836060015184608001518560a0015180905096509650965096509650505091939590929450565b6000809054906101000a900473ffffffffffffffffffffffffffffffffffffffff1681565b60008060009054906101000a900473ffffffffffffffffffffffffffffffffffffffff1673ffffffffffffffffffffffffffffffffffffffff163373ffffffffffffffffffffffffffffffffffffffff16141580156125945750600960003373ffffffffffffffffffffffffffffffffffffffff1673ffffffffffffffffffffffffffffffffffffffff16815260200190815260200160002060000160029054906101000a900460ff16155b1561259e57600080fd5b82600960008273ffffffffffffffffffffffffffffffffffffffff1673ffffffffffffffffffffffffffffffffffffffff16815260200190815260200160002060000160009054906101000a900460ff1615156125fa57600080fd5b600960008573ffffffffffffffffffffffffffffffffffffffff1673ffffffffffffffffffffffffffffffffffffffff1681526020019081526020016000206001015491508183141561264c57600080fd5b81831115612675576126708461266b848661350d90919063ffffffff16565b611ab5565b612692565b6126918461268c858561350d90919063ffffffff16565b612e97565b5b50505050565b6000600a80549050905090565b6000808273ffffffffffffffffffffffffffffffffffffffff166370a08231306000604051602001526040518263ffffffff167c0100000000000000000000000000000000000000000000000000000000028152600401808273ffffffffffffffffffffffffffffffffffffffff1673ffffffffffffffffffffffffffffffffffffffff168152602001915050602060405180830381600087803b151561274b57600080fd5b6102c65a03f1151561275c57600080fd5b505050604051805190509050600b60008473ffffffffffffffffffffffffffffffffffffffff1673ffffffffffffffffffffffffffffffffffffffff16815260200190815260200160002060000160009054906101000a900460ff161580156127c55750600081115b15612826576001600b60008573ffffffffffffffffffffffffffffffffffffffff1673ffffffffffffffffffffffffffffffffffffffff16815260200190815260200160002060000160006101000a81548160ff0219169083151502179055505b80915050919050565b60075481565b601281565b6000809054906101000a900473ffffffffffffffffffffffffffffffffffffffff1673ffffffffffffffffffffffffffffffffffffffff163373ffffffffffffffffffffffffffffffffffffffff1614151561289557600080fd5b6015815111156128a457600080fd5b7f7244709f741ec5f1d637fd5a891de308c779d1023c0f3128595bb88bf571ef886001826040518080602001806020018381038352858181546001816001161561010002031660029004815260200191508054600181600116156101000203166002900480156129555780601f1061292a57610100808354040283529160200191612955565b820191906000526020600020905b81548152906001019060200180831161293857829003601f168201915b5050838103825284818151815260200191508051906020019080838360005b8381101561298f578082015181840152602081019050612974565b50505050905090810190601f1680156129bc5780820380516001836020036101000a031916815260200191505b5094505050505060405180910390a180600190805190602001906129e19291906135d0565b5050565b6000600a828154811015156129f657fe5b906000526020600020900160009054906101000a900473ffffffffffffffffffffffffffffffffffffffff169050919050565b600033600960008273ffffffffffffffffffffffffffffffffffffffff1673ffffffffffffffffffffffffffffffffffffffff16815260200190815260200160002060000160009054906101000a900460ff161515612a8757600080fd5b612a9133846117f7565b9150612b25600960003373ffffffffffffffffffffffffffffffffffffffff1673ffffffffffffffffffffffffffffffffffffffff16815260200190815260200160002060040160008573ffffffffffffffffffffffffffffffffffffffff1673ffffffffffffffffffffffffffffffffffffffff168152602001908152602001600020548361350d90919063ffffffff16565b841115612b3157600080fd5b612bc384600960003373ffffffffffffffffffffffffffffffffffffffff1673ffffffffffffffffffffffffffffffffffffffff16815260200190815260200160002060040160008673ffffffffffffffffffffffffffffffffffffffff1673ffffffffffffffffffffffffffffffffffffffff1681526020019081526020016000205461352690919063ffffffff16565b600960003373ffffffffffffffffffffffffffffffffffffffff1673ffffffffffffffffffffffffffffffffffffffff16815260200190815260200160002060040160008573ffffffffffffffffffffffffffffffffffffffff1673ffffffffffffffffffffffffffffffffffffffff16815260200190815260200160002081905550612c9b84600b60008673ffffffffffffffffffffffffffffffffffffffff1673ffffffffffffffffffffffffffffffffffffffff1681526020019081526020016000206001015461352690919063ffffffff16565b600b60008573ffffffffffffffffffffffffffffffffffffffff1673ffffffffffffffffffffffffffffffffffffffff168152602001908152602001600020600101819055508273ffffffffffffffffffffffffffffffffffffffff1663a9059cbb33866000604051602001526040518363ffffffff167c0100000000000000000000000000000000000000000000000000000000028152600401808373ffffffffffffffffffffffffffffffffffffffff1673ffffffffffffffffffffffffffffffffffffffff16815260200182815260200192505050602060405180830381600087803b1515612d8c57600080fd5b6102c65a03f11515612d9d57600080fd5b50505060405180519050507fffdaa1b8f229c4f9a0c79b712224a2ad8d3aa3c483c23a125f4b9c179870938d338585600b60008873ffffffffffffffffffffffffffffffffffffffff1673ffffffffffffffffffffffffffffffffffffffff16815260200190815260200160002060010154604051808573ffffffffffffffffffffffffffffffffffffffff1673ffffffffffffffffffffffffffffffffffffffff1681526020018481526020018373ffffffffffffffffffffffffffffffffffffffff1673ffffffffffffffffffffffffffffffffffffffff16815260200182815260200194505050505060405180910390a150505050565b6000809054906101000a900473ffffffffffffffffffffffffffffffffffffffff1673ffffffffffffffffffffffffffffffffffffffff163373ffffffffffffffffffffffffffffffffffffffff1614158015612f415750600960003373ffffffffffffffffffffffffffffffffffffffff1673ffffffffffffffffffffffffffffffffffffffff16815260200190815260200160002060000160029054906101000a900460ff16155b15612f4b57600080fd5b81600960008273ffffffffffffffffffffffffffffffffffffffff1673ffffffffffffffffffffffffffffffffffffffff16815260200190815260200160002060000160009054906101000a900460ff161515612fa757600080fd5b612fbc8260025461350d90919063ffffffff16565b60028190555061301782600960008673ffffffffffffffffffffffffffffffffffffffff1673ffffffffffffffffffffffffffffffffffffffff1681526020019081526020016000206001015461350d90919063ffffffff16565b600960008573ffffffffffffffffffffffffffffffffffffffff1673ffffffffffffffffffffffffffffffffffffffff168152602001908152602001600020600101819055507f67d4e98c6b70fdfbb7305797bbb30889a736b9773c74f9557683ffacbd22d5a88383600960008773ffffffffffffffffffffffffffffffffffffffff1673ffffffffffffffffffffffffffffffffffffffff16815260200190815260200160002060010154604051808473ffffffffffffffffffffffffffffffffffffffff1673ffffffffffffffffffffffffffffffffffffffff168152602001838152602001828152602001935050505060405180910390a1505050565b600460009054906101000a900460ff1681565b600b6020528060005260406000206000915090508060000160009054906101000a900460ff16908060010154905082565b6000809054906101000a900473ffffffffffffffffffffffffffffffffffffffff1673ffffffffffffffffffffffffffffffffffffffff163373ffffffffffffffffffffffffffffffffffffffff161415156131b657600080fd5b600073ffffffffffffffffffffffffffffffffffffffff168173ffffffffffffffffffffffffffffffffffffffff1614151561322d57806000806101000a81548173ffffffffffffffffffffffffffffffffffffffff021916908373ffffffffffffffffffffffffffffffffffffffff1602179055505b50565b600a8181548110151561323f57fe5b90600052602060002090016000915054906101000a900473ffffffffffffffffffffffffffffffffffffffff1681565b6000809054906101000a900473ffffffffffffffffffffffffffffffffffffffff1673ffffffffffffffffffffffffffffffffffffffff163373ffffffffffffffffffffffffffffffffffffffff16141580156133195750600960003373ffffffffffffffffffffffffffffffffffffffff1673ffffffffffffffffffffffffffffffffffffffff16815260200190815260200160002060000160029054906101000a900460ff16155b1561332357600080fd5b806040518082805190602001908083835b6020831015156133595780518252602082019150602081019050602083039250613334565b6001836020036101000a038019825116818451168082178552505050505050905001915050604051809103902060001916600960008673ffffffffffffffffffffffffffffffffffffffff1673ffffffffffffffffffffffffffffffffffffffff16815260200190815260200160002060030160405180828054600181600116156101000203166002900480156134275780601f10613405576101008083540402835291820191613427565b820191906000526020600020905b815481529060010190602001808311613413575b505091505060405180910390206000191614151561344a576134498482610f6a565b5b811515600960008673ffffffffffffffffffffffffffffffffffffffff1673ffffffffffffffffffffffffffffffffffffffff16815260200190815260200160002060000160029054906101000a900460ff1615151415156134b1576134b084836120f1565b5b82600960008673ffffffffffffffffffffffffffffffffffffffff1673ffffffffffffffffffffffffffffffffffffffff168152602001908152602001600020600101541415156135075761350684846124e8565b5b50505050565b600082821115151561351b57fe5b818303905092915050565b600080828401905083811015151561353a57fe5b8091505092915050565b60008060006135598660018601600a0a613582565b9150600a600561356984886135b5565b0181151561357357fe5b04905080925050509392505050565b600080828402905060008414806135a357508284828115156135a057fe5b04145b15156135ab57fe5b8091505092915050565b60008082848115156135c357fe5b0490508091505092915050565b828054600181600116156101000203166002900490600052602060002090601f016020900481019282601f1061361157805160ff191683800117855561363f565b8280016001018555821561363f579182015b8281111561363e578251825591602001919060010190613623565b5b50905061364c9190613753565b5090565b60c060405190810160405280600015158152602001600015158152602001600015158152602001600081526020016000815260200161368d613778565b81525090565b828054600181600116156101000203166002900490600052602060002090601f016020900481019282601f106136d457805160ff1916838001178555613702565b82800160010185558215613702579182015b828111156137015782518255916020019190600101906136e6565b5b50905061370f9190613753565b5090565b81548183558181151161373a578183600052602060002091820191016137399190613753565b5b505050565b602060405190810160405280600081525090565b61377591905b80821115613771576000816000905550600101613759565b5090565b90565b6020604051908101604052806000815250905600a165627a7a72305820f48c996c4a8bc320f958e34b821fc9ec1431ae4ef1f8ab58c44b22855b8200c90029",
  "source": "pragma solidity ^0.4.15;\n\n/**\n * @title Doneth (Doneth)\n * @dev Doneth is a contract that allows members of a project\n * to share donations. Project supporters can submit donations.\n * The admins of the contract determine who is a member, and each\n * member gets a number of shares. The number of shares each \n * member has determines how much Ether the member can withdraw \n * from the contract. \n */\n\n/*\n * Ownable\n *\n * Base contract with an owner.\n * Provides onlyOwner modifier, which prevents function from running if it is called by anyone other than the owner.\n */\n\ncontract Ownable {\n    address public owner;\n\n    function Ownable() {\n        owner = msg.sender;\n    }\n\n    modifier onlyOwner() {\n        require(msg.sender == owner);\n        _;\n    }\n\n    function transferOwnership(address newOwner) onlyOwner {\n        if (newOwner != address(0)) {\n            owner = newOwner;\n        }\n    }\n}\n\ncontract Doneth is Ownable {\n    using SafeMath for uint256;  \n\n    // Name of the contract\n    string public name;\n\n    // Sum of all shares allocated to members\n    uint256 public totalShares;\n\n    // Sum of all withdrawals done by members\n    uint256 public totalWithdrawn;\n\n    // Variables to be used in the future \n    bool public incrementShares;\n    uint256 public incrementInterval;\n\n    // Block number of when the contract was created\n    uint256 public genesisBlockNumber;\n\n    // Number of decimal places for floating point division\n    uint256 constant public PRECISION = 18;\n\n    // Variables for shared expense allocation\n    uint256 public sharedExpense;\n    uint256 public sharedExpenseWithdrawn;\n\n    // Used to keep track of members\n    mapping(address => Member) public members;\n    address[] public memberKeys;\n\n    struct Member {\n        bool exists;\n        bool active;\n        bool admin;\n        uint256 shares;\n        uint256 withdrawn;\n        string memberName;\n        mapping(address => uint256) tokensWithdrawn;\n    }\n\n    function Doneth(string _contractName, string _founderName) {\n        if (bytes(_contractName).length > 21) revert();\n        if (bytes(_founderName).length > 21) revert();\n        name = _contractName;\n        genesisBlockNumber = block.number;\n        addMember(msg.sender, 1, true, _founderName);\n    }\n\n    mapping(address => Token) public tokens;\n    address[] public tokenKeys;\n    struct Token {\n        bool exists;\n        uint256 totalWithdrawn;\n    }\n\n    event Deposit(address from, uint value);\n    event Withdraw(address from, uint value, uint256 newTotalWithdrawn);\n    event TokenWithdraw(address from, uint value, address token, uint amount);\n    event AddShare(address who, uint256 addedShares, uint256 newTotalShares);\n    event RemoveShare(address who, uint256 removedShares, uint256 newTotalShares);\n    // event Division(uint256 num, uint256 balance, uint256 shares);\n    event ChangePrivilege(address who, bool oldValue, bool newValue);\n    event ChangeContractName(string oldValue, string newValue);\n    event ChangeMemberName(address who, string oldValue, string newValue);\n    event ChangeSharedExpense(uint256 contractBalance, uint256 oldValue, uint256 newValue);\n    event WithdrawSharedExpense(address from, address to, uint value, uint256 newSharedExpenseWithdrawn);\n\n    // Fallback function accepts Ether from donators\n    function () public payable {\n        Deposit(msg.sender, msg.value);\n    }\n\n    modifier onlyAdmin() { \n        if (msg.sender != owner && !members[msg.sender].admin) revert();   \n        _;\n    }\n\n    modifier onlyExisting(address who) { \n        if (!members[who].exists) revert(); \n        _;\n    }\n\n    // Series of getter functions for contract data\n    function getMemberCount() constant returns(uint) {\n        return memberKeys.length;\n    }\n    \n    function getMemberAtKey(uint key) constant returns(address) {\n        return memberKeys[key];\n    }\n    \n    function getBalance() constant returns(uint256 balance) {\n        return this.balance;\n    }\n    \n    // function getOwner() constant returns(address) {\n    //     return owner;\n    // }\n\n    // function getSharedExpense() constant returns(uint256) {\n    //     return sharedExpense;\n    // }\n\n    // function getSharedExpenseWithdrawn() constant returns(uint256) {\n    //     return sharedExpenseWithdrawn;\n    // }\n\n    function getContractInfo() constant returns(string, address, uint256, uint256, uint256) {\n        return (string(name), owner, genesisBlockNumber, totalShares, totalWithdrawn);\n    }\n    \n    function returnMember (address _address) constant onlyExisting(_address) returns(bool active, bool admin, uint256 shares, uint256 withdrawn, string memberName) {\n      Member memory m = members[_address];\n      return (m.active, m.admin, m.shares, m.withdrawn, m.memberName);\n    }\n\n    function checkERC20Balance(address token) public returns(uint256) {\n        uint256 balance = ERC20(token).balanceOf(address(this));\n        if (!tokens[token].exists && balance > 0) {\n            tokens[token].exists = true;\n        }\n        return balance;\n    }\n\n    // Function to add members to the contract \n    function addMember(address who, uint256 shares, bool admin, string memberName) public onlyAdmin() {\n        // Don't allow the same member to be added twice\n        if (members[who].exists) revert();\n        if (bytes(memberName).length > 21) revert();\n\n        Member memory newMember;\n        newMember.exists = true;\n        newMember.admin = admin;\n        newMember.active = true;\n        newMember.memberName = memberName;\n\n        members[who] = newMember;\n        memberKeys.push(who);\n        addShare(who, shares);\n    }\n\n    function updateMember(address who, uint256 shares, bool isAdmin, string name) public onlyAdmin() {\n        if (sha3(members[who].memberName) != sha3(name)) changeMemberName(who, name);\n        if (members[who].admin != isAdmin) changeAdminPrivilege(who, isAdmin);\n        if (members[who].shares != shares) allocateShares(who, shares);\n    }\n\n    // Only owner or member can change member's name\n    function changeMemberName(address who, string newName) public  onlyExisting(who) {\n        if (msg.sender != who && msg.sender != owner) revert();\n        if (bytes(newName).length > 21) revert();\n        ChangeMemberName(who, members[who].memberName, newName);\n        members[who].memberName = newName;\n    }\n\n    // Only owner can change admin privileges of members; other admins cannot change other admins\n    function changeAdminPrivilege(address who, bool newValue) public onlyAdmin() {\n        ChangePrivilege(who, members[who].admin, newValue);\n        members[who].admin = newValue; \n    }\n\n    // Only owner can change the contract name\n    function changeContractName(string newName) public onlyOwner() {\n        if (bytes(newName).length > 21) revert();\n        ChangeContractName(name, newName);\n        name = newName;\n    }\n\n    // Shared expense allocation allows all members to withdraw an amount to be used for shared\n    // expenses. Shared expense allocation subtracts from the withdrawable amount each member \n    // can withdraw based on shares. Only owner can change this amount.\n    function changeSharedExpenseAllocation(uint256 newAllocation) public onlyOwner() {\n        if (newAllocation < sharedExpenseWithdrawn) revert();\n        if (newAllocation.sub(sharedExpenseWithdrawn) > this.balance) revert();\n\n        uint256 oldAllocation = sharedExpense;\n        sharedExpense = newAllocation;\n        ChangeSharedExpense(this.balance, oldAllocation, newAllocation);\n    }\n\n    // Set share amount explicitly by calculating difference then adding or removing accordingly\n    function allocateShares(address who, uint256 amount) public onlyAdmin() onlyExisting(who) {\n        uint256 currentShares = members[who].shares;\n        if (amount == currentShares) revert();\n        if (amount > currentShares) {\n            addShare(who, amount.sub(currentShares));\n        } else {\n            removeShare(who, currentShares.sub(amount));\n        }\n    }\n\n    // Increment the number of shares for a member\n    function addShare(address who, uint256 amount) public onlyAdmin() onlyExisting(who) {\n        totalShares = totalShares.add(amount);\n        members[who].shares = members[who].shares.add(amount);\n        AddShare(who, amount, members[who].shares);\n    }\n\n    // Decrement the number of shares for a member\n    function removeShare(address who, uint256 amount) public onlyAdmin() onlyExisting(who) {\n        totalShares = totalShares.sub(amount);\n        members[who].shares = members[who].shares.sub(amount);\n        RemoveShare(who, amount, members[who].shares);\n    }\n\n    // Function for a member to withdraw Ether from the contract proportional\n    // to the amount of shares they have. Calculates the totalWithdrawableAmount\n    // in Ether based on the member's share and the Ether balance of the contract,\n    // then subtracts the amount of Ether that the member has already previously\n    // withdrawn.\n    function withdraw(uint256 amount) public onlyExisting(msg.sender) {\n        uint256 newTotal = calculateTotalWithdrawableAmount(msg.sender);\n        if (amount > newTotal.sub(members[msg.sender].withdrawn)) revert();\n        \n        members[msg.sender].withdrawn = members[msg.sender].withdrawn.add(amount);\n        totalWithdrawn = totalWithdrawn.add(amount);\n        msg.sender.transfer(amount);\n        Withdraw(msg.sender, amount, totalWithdrawn);\n    }\n\n    function withdrawToken(uint256 amount, address token) public onlyExisting(msg.sender) {\n        uint256 newTotal = calculateTotalWithdrawableTokenAmount(msg.sender, token);\n        if (amount > newTotal.sub(members[msg.sender].tokensWithdrawn[token])) revert();\n\n        members[msg.sender].tokensWithdrawn[token] = members[msg.sender].tokensWithdrawn[token].add(amount);\n        tokens[token].totalWithdrawn = tokens[token].totalWithdrawn.add(amount);\n        ERC20(token).transfer(msg.sender, amount);\n        TokenWithdraw(msg.sender, amount, token, tokens[token].totalWithdrawn);\n    }\n\n    // Withdraw from shared expense allocation. Total withdrawable is calculated as \n    // sharedExpense - sharedExpenseWithdrawn.\n    function withdrawSharedExpense(uint256 amount, address to) public onlyAdmin() onlyExisting(msg.sender) {\n        if (amount > calculateTotalExpenseWithdrawableAmount()) revert();\n        \n        sharedExpenseWithdrawn = sharedExpenseWithdrawn.add(amount);\n        to.transfer(amount);\n        WithdrawSharedExpense(msg.sender, to, amount, sharedExpenseWithdrawn);\n    }\n\n    function calculateTotalWithdrawableTokenAmount(address who, address token) public constant returns(uint256) {\n        uint256 balanceSum = checkERC20Balance(token).add(tokens[token].totalWithdrawn);\n\n        // Need to use parts-per notation to compute percentages for lack of floating point division\n        uint256 ethPerSharePPN = balanceSum.percent(totalShares, PRECISION); \n        uint256 ethPPN = ethPerSharePPN.mul(members[who].shares);\n        uint256 ethVal = ethPPN.div(10**PRECISION); \n        // Division(ethVal, balanceSum, totalShares);\n        return ethVal;\n    }\n\n    function calculateTotalExpenseWithdrawableAmount() public constant returns(uint256) {\n        return sharedExpense.sub(sharedExpenseWithdrawn);\n    }\n\n    // Converts from shares to Eth.\n    // Ex: 100 shares, 1000 total shares, 100 Eth balance\n    // 100 Eth / 1000 total shares = 1/10 eth per share * 100 shares = 10 Eth to cash out\n    function calculateTotalWithdrawableAmount(address who) public constant onlyExisting(who) returns (uint256) {\n        // Total balance to calculate share from = \n        // contract balance + totalWithdrawn - sharedExpense + sharedExpenseWithdrawn\n        uint256 balanceSum = this.balance.add(totalWithdrawn);\n        balanceSum = balanceSum.sub(sharedExpense);\n        balanceSum = balanceSum.add(sharedExpenseWithdrawn);\n        \n        // Need to use parts-per notation to compute percentages for lack of floating point division\n        uint256 ethPerSharePPN = balanceSum.percent(totalShares, PRECISION); \n        uint256 ethPPN = ethPerSharePPN.mul(members[who].shares);\n        uint256 ethVal = ethPPN.div(10**PRECISION); \n        // Division(ethVal, balanceSum, totalShares);\n        return ethVal;\n    }\n\n    // Used for testing\n    function delegatePercent(uint256 a, uint256 b, uint256 c) public constant returns (uint256) {\n        return a.percent(b, c);\n    }\n}\n\n/**\n * @title ERC20Basic\n * @dev Simpler version of ERC20 interface\n * @dev see https://github.com/ethereum/EIPs/issues/179\n */\ncontract ERC20Basic {\n  uint256 public totalSupply;\n  function balanceOf(address who) public constant returns (uint256);\n  function transfer(address to, uint256 value) public returns (bool);\n  event Transfer(address indexed from, address indexed to, uint256 value);\n}\n\n\n/**\n * @title ERC20 interface\n * @dev see https://github.com/ethereum/EIPs/issues/20\n */\ncontract ERC20 is ERC20Basic {\n  function allowance(address owner, address spender) public constant returns (uint256);\n  function transferFrom(address from, address to, uint256 value) public returns (bool);\n  function approve(address spender, uint256 value) public returns (bool);\n  event Approval(address indexed owner, address indexed spender, uint256 value);\n}\n\n\n/**\n * @title SafeMath\n * @dev Math operations with safety checks that throw on error\n */\nlibrary SafeMath {\n    function mul(uint256 a, uint256 b) internal constant returns (uint256) {\n        uint256 c = a * b;\n        assert(a == 0 || c / a == b);\n        return c;\n    }\n\n    function div(uint256 a, uint256 b) internal constant returns (uint256) {\n        // assert(b > 0); // Solidity automatically throws when dividing by 0\n        uint256 c = a / b;\n        // assert(a == b * c + a % b); // There is no case in which this doesn't hold\n        return c;\n    }\n\n    function sub(uint256 a, uint256 b) internal constant returns (uint256) {\n        assert(b <= a);\n        return a - b;\n    }\n\n    function add(uint256 a, uint256 b) internal constant returns (uint256) {\n        uint256 c = a + b;\n        assert(c >= a);\n        return c;\n    }\n\n    // Using from SO: https://stackoverflow.com/questions/42738640/division-in-ethereum-solidity/42739843#42739843\n    // Adapted to use SafeMath and uint256.\n    function percent(uint256 numerator, uint256 denominator, uint256 precision) internal constant returns(uint256 quotient) {\n        // caution, check safe-to-multiply here\n        uint256 _numerator = mul(numerator, 10 ** (precision+1));\n        // with rounding of last digit\n        uint256 _quotient = (div(_numerator, denominator) + 5) / 10;\n        return (_quotient);\n    }\n}\n\n",
  "sourcePath": "/Users/billy/vue/doneth/contracts/Doneth.sol",
  "compiler": {
    "name": "solc",
    "version": "0.4.18+commit.9cf6e910.Emscripten.clang"
  },
  "schemaVersion": "1.0.1",
  "updatedAt": "2017-11-06T12:06:56.852Z"
}